:040000000CEF00F011
:10000800FACF03F0FBCF04F0E9CF05F01AED09F0C1
:100018009AEF08F0290E366E000E376E0DD2250EB7
:100028003F18D8B404D03F508BEC0BF005D2000E2B
:100038003D6E000E3C6E000E3E6E05D03E84274A93
:10004800282A01D00BD027C0F6FF28C0F7FF0800E8
:10005800F550300AD8B4F2D701D0F5D727C0F6FF4B
:1000680028C0F7FF0800F5501EEC0BF0D8A03DD0D3
:10007800000E3D6E000E3C6E00D03CC011F03DC03D
:1000880012F0000E146E0A0E136E0AEC0BF011C07B
:100098003CF012C03DF0D00E2F6EFF0E306E27C020
:1000A800F6FF28C0F7FF0800F550316E326A2F506E
:1000B80031263050322231503C2632503D22274AD8
:1000C800282A27C0F6FF28C0F7FF0800F5501EECC5
:1000D8000BF0D8A00AD0D1D708D0BCD13E8805D023
:1000E8001ED03E8E1CD0A8D11AD027C0F6FF28C03B
:1000F800F7FF274A282A0800F5CF3FF03F50000AAB
:10010800D8B4A8D1640AD8B40AD00D0AD8B407D094
:10011800050AD8B4E3D7140AD8B4E3D78DD13EBEC4
:100128002FD03EA80ED036C0D9FF37C0DAFFDECFB9
:1001380038F0DECF39F0DECF3AF0DECF3BF0040EF8
:100148000ED036C0D9FF37C0DAFFDECF38F0DDCFAA
:1001580039F0000E39BEFF0E3A6E3B6E020E36269F
:10016800000E372200D03BAE74D0030E3E123B1E69
:100178003A1E391E386C000E39223A223B2269D0C9
:100188003EA80ED036C0D9FF37C0DAFFDECF38F030
:10019800DECF39F0DECF3AF0DECF3BF0040E0FD0E1
:1001A80036C0D9FF37C0DAFFDECF2FF0DDCF30F011
:1001B8002FC038F030C039F03A6A3B6A020E362652
:1001C800000E372246D0010E3F6E0A0E3F18D8B4F3
:1001D80049D001D047D03F50040D6A0EF324F66E83
:1001E800FF0EF420F76E0900F550385C0900F55051
:1001F80039580900F5503A580900F5503B58D8A02D
:1002080031D001D02FD03F2AE0D72CD0010E3F6E3D
:10021800080E3F18D8B426D001D024D03F50040D82
:10022800920EF324F66EFF0EF420F76E0900F550D7
:10023800385C0900F55039580900F5503A5809005A
:10024800F5503B58D8A00ED001D00CD03F2AE0D7AB
:1002580009D03E50800B000AD8B4B5D7800AD8B46C
:10026800D5D700D03C503D10D8B40AD03EC02FF0AE
:10027800030E2F16D8B404D03C06D8A03D0600D0F3
:10028800800E3FBE7F0E2F6E3C503F5C3D50800A73
:100298002F58D8B007D03F503C5E000E3FBEFF0E2F
:1002A8003D5A05D0000E3D6E000E3C6E00D03EA4B7
:1002B8001AD03EC02FF0030E2F16D8B404D02D0E3E
:1002C8008BEC0BF000D03C503D10D8B426D0300E4B
:1002D8008BEC0BF03C06D8A03D063C503D10D8B442
:1002E8001CD0F5D71AD03C503D10D8B40CD0200EF5
:1002F8008BEC0BF03C06D8A03D063C503D10D8B422
:1003080002D0F5D700D03EC02FF0030E2F16D8B478
:1003180004D02D0E8BEC0BF000D03F50346E356AB4
:1003280034BE35067FD071D034C02FF035C030F0E0
:10033800D8902F363036D8902F3630366A0E2F2484
:10034800F66EFF0E3020F76E0900F5CF15F00900A4
:10035800F5CF16F00900F5CF17F00A00F5CF18F021
:1003680038C011F039C012F03AC013F03BC014F095
:1003780010EC08F011C01EF012C01FF013C020F0DE
:1003880014C021F00A0E226E000E236E000E246E99
:10039800000E256E58EC09F01E50300F3F6E3ED00F
:1003A80038C011F039C012F03AC013F03BC014F055
:1003B80034C02FF035C030F0D8902F363036D89072
:1003C8002F363036920E2F24F66EFF0E3020F76E41
:1003D8000900F5CF15F00900F5CF16F00900F5CFA3
:1003E80017F00A00F5CF18F010EC08F011500F0BB9
:1003F800336E3350010DD90EF324F66EFF0EF42040
:10040800F76E0800F5CF3FF009D03E50800B000A88
:10041800D8B48AD7800AD8B4C3D700D03F508BEC61
:100428000BF000D03406D8A035063428EEE1352884
:10043800D8B402D0EAD700D027C0F6FF28C0F7FF0B
:10044800274A282A0800F5CF3FF03F50D8B402D0F9
:10045800E6D500D0120055EC0BF0700ED36EF19E6D
:10046800000E926E010E936E000E946E000E956E45
:10047800000E966E0F0EC16EC9EC07F0F292F19C59
:10048800F288000ECF6E000ECE6E9E909D80F28C8C
:10049800F28E000E666E000E656E000E5D6E000E2A
:1004A8005E6E000E5F6E000E606E00D06504661012
:1004B800D8A4FCD7000E666E000E656E5EC069F0AB
:1004C800F288F19C4668000E456E000E446E45BEEB
:1004D80008D0455017E1150E445CD8B013D001D0B0
:1004E80011D0470E4424D96E000E4520DA6E6950AB
:1004F800DE18D8A403D044C046F004D0444A452AA4
:10050800E6D700D0B20E276EFF0E286E5DC029F028
:100518005EC02AF05FC02BF060C02CF069C02DF0DF
:100528002E6A0EEC00F0EA0E276EFF0E286E46C00B
:1005380029F02A6A0EEC00F04628D8B4B7D74650FE
:10054800010D800EF324D96E000EF420DA6EDF5010
:10055800806E4650010D950EF324D96E000EF420DE
:10056800DA6EDF50836E4650010DAA0EF324D96E61
:10057800000EF420DA6EDF50846E000E3C6E3C0EE6
:100588003B6E000E3E6E500E3D6E000E406E140E19
:100598003F6E4650020D000EF324D96E010EF42072
:1005A800DA6EDECF41F0DDCF42F0C8EC09F0000E84
:1005B8001D6E3C0E1C6E000E1F6E500E1E6E000E41
:1005C800216E140E206EFF0E236E22680DEC03F0D0
:1005D8004D0E396E4650040D2A0EF3243A6E010E64
:1005E800F4203B6EFF0E3D6E3C68000E3F6E000E21
:1005F8003E6E010E406E340E5DEC06F0818E72EC9C
:100608000BF03DEC0BF0819E98EC0BF04FD70CEF04
:1006180000F020C024F021C025F0241E251E244A05
:10062800252A010E24242A6E000E25202B6E000E8A
:10063800276E010E266E20C024F021C025F0D89028
:1006480024362536241E251E244A252A24C028F0AF
:1006580025C029F0000E2D6E000E2C6E20C02EF045
:1006680021C02FF01E502024186E22C019F023C07C
:100678001AF01C50DDEC0AF0205000081E24186EF9
:1006880022C019F023C01AF01C50DDEC0AF01EC07D
:1006980018F022C019F023C01AF01C502024DDECF9
:1006A8000AF01EC018F022C019F023C01AF020501A
:1006B80000081C24DDEC0AF078D02BBE0BD02E06E7
:1006C800D8A02F06020E2826000E292228502A26F6
:1006D80029502B222C4A2D2A020E2626000E2722CC
:1006E80026502A2627502B221E502E24186E22C050
:1006F80019F023C01AF01C502C24DDEC0AF01E500F
:100708002E24186E22C019F023C01AF02C500008AD
:100718001C24DDEC0AF02E5000081E24186E22C09E
:1007280019F023C01AF01C502C24DDEC0AF02E50CE
:1007380000081E24186E22C019F023C01AF02C508D
:1007480000081C24DDEC0AF01E502C24186E22C070
:1007580019F023C01AF01C502E24DDEC0AF01E50AC
:100768002C24186E22C019F023C01AF02E5000084D
:100778001C24DDEC0AF02C5000081E24186E22C040
:1007880019F023C01AF01C502E24DDEC0AF02C506E
:1007980000081E24186E22C019F023C01AF02E502B
:1007A80000081C24DDEC0AF000D02E502C5C2D50E3
:1007B800800A246E2F50800A2458D8A07ED71200B1
:1007C800366E800E3660A6D09F0E2E6401D0A2D061
:1007D8003450D8A403D0010E346E00D01F0E2F64FD
:1007E80004D07E0E2F6403D000D03F0E2F6E000E73
:1007F800386E040E386401D08DD0530E2F6015D09A
:10080800E00E2F24116E126AFF0E1222000E146ED3
:10081800050E136E0AEC0BF038501126000E12224A
:100828008F0E1124F66EFD0E14D0AD0E2F24116E0E
:10083800126AFF0E1222000E146E050E136E0AECD9
:100848000BF038501126000E12228E0E1124F66E6F
:10085800FE0E1220F76E0800F5CF35F000D0000E1E
:10086800376E060E376401D053D035A023D0340438
:10087800D8A40CD02E503724186E30C019F031C0CF
:100888001AF036503824DDEC0AF03ED037503402E6
:10089800F3502E24236E34C024F034C025F030C029
:1008A80026F031C027F038503402F350362441EC9A
:1008B8000AF02AD03050321804E131503318D8B435
:1008C80023D03404D8A40CD02E503724186E32C04C
:1008D80019F033C01AF036503824DDEC0AF014D081
:1008E80037503402F3502E24236E34C024F034C021
:1008F80025F032C026F033C027F038503402F350C8
:10090800362441EC0AF000D0372AD8903532A9D7DE
:10091800382A6FD71200F2926A50D8B494D0CE50C9
:10092800CFCF01F0026A01C002F0016A0110616EC6
:100938000250626E000ECF6E000ECE6E84D0000E96
:10094800CF6E000ECE6E9E90900ECD6ECD80000EB6
:100958006C6E000E5D6E000E5E6E000E5F6E000E19
:10096800606E010E6A6E6DD07FD0350E615C210E0F
:100978006258D8A009D01C0E615C250E6258D8B008
:1009880003D0020E6A6E2AD09CEC0BF027D026D03A
:100998006BD0A10E615C0F0E6258D8A009D0880EEA
:1009A800615C130E6258D8B003D0030E6A6E49D04A
:1009B8009CEC0BF046D045D057D0910E615C010EEF
:1009C8006258D8A008D0BC0E615C020E6258D8B03C
:1009D80002D0040ED7D79CEC0BF000D0F19C44D089
:1009E800910E615C010E6258D8A028D0080E615C97
:1009F800070E6258D8B022D0D8905D345D6E5E3450
:100A08005E6E5F345F6E6034606EE90E615C030E8B
:100A18006258D8A007D0010E5D26000E5E225F2224
:100A2800602200D06C2A1F0E6C64BFD7000E666E61
:100A3800010E656EF298000E6A6EB7D79CEC0BF04B
:100A480000D0F18C11D06A50000AD8B478D7010AC6
:100A5800D8B48BD7030AD8B49CD7010AD8B4ADD779
:100A6800070AD8B4BDD700D0120027C02FF028C07D
:100A780030F02F1E301E2F4A302A010E2F24356EDB
:100A8800000E3020366E000E326E010E316E27C019
:100A98002FF028C030F0D8902F3630362F1E301E59
:100AA8002F4A302A2FC033F030C034F0000E386E91
:100AB800000E376E27C039F028C03AF067D036BE2E
:100AC8000BD03906D8A03A06020E3326000E34227F
:100AD8003350352634503622374A382A020E31260A
:100AE800000E3222315035263250362229A025D028
:100AF800395000082524186E395039242B242F6EBC
:100B08002F28196E2DC01AF02EC01BF02350372441
:100B180056EC08F0375000082524186E3750372453
:100B28002B242F6E2F28196E2DC01AF02EC01BF003
:100B38002350392456EC08F000D029A227D0395088
:100B480000082524186E395039242B242F6E2F289D
:100B5800196E2DC01AF02EC01BF037500008232440
:100B680056EC08F0375000082524186E3750372403
:100B78002B242F6E2F28196E2DC01AF02EC01BF0B3
:100B880039500008232456EC08F000D03950375C5F
:100B98003850800A2F6E3A50800A2F58D8A08FD725
:100BA8001200010E83EC0BF0000E186E960E176EF5
:100BB800F1EC09F0110E83EC0BF0010E186EF40E37
:100BC800176EF1EC09F0B10E83EC0BF0010E7BEC23
:100BD8000BF02C0E7BEC0BF02D0E7BEC0BF0B20E19
:100BE80083EC0BF0010E7BEC0BF02C0E7BEC0BF086
:100BF8002D0E7BEC0BF0B30E83EC0BF0010E7BECAF
:100C08000BF02C0E7BEC0BF02D0E7BEC0BF0010E99
:100C18007BEC0BF02C0E7BEC0BF02D0E7BEC0BF031
:100C2800B40E83EC0BF0070E7BEC0BF0C00E83ECDC
:100C38000BF0A20E7BEC0BF0020E7BEC0BF0840E9B
:100C48007BEC0BF0C10E83EC0BF0C50E7BEC0BF0CC
:100C5800C20E83EC0BF00A0E7BEC0BF0000E7BEC63
:100C68000BF0C30E83EC0BF08A0E7BEC0BF02A0E14
:100C78007BEC0BF0C40E83EC0BF08A0E7BEC0BF0D4
:100C8800EE0E7BEC0BF0C50E83EC0BF00E0E7BEC3E
:100C98000BF0200E83EC0BF0360E83EC0BF0C80E35
:100CA8007BEC0BF03A0E83EC0BF0050E7BEC0BF0B3
:100CB80012000001DE6FDEC0E4F039C0E3F03AC094
:100CC80011F03BC012F086EC0AF011C0DFF012C040
:100CD800E0F0000E0001E26F000EE16F64D05C509E
:100CE800D8B434D04050050D0001E451416E426A39
:100CF800F3504126F450422242BE28D0425004E12B
:100D0800810E415CD8A022D0000E0001E46F405053
:100D1800070DF3500001E325030F0001E36FA00E58
:100D28000001E36504D0A00E0001E36F00D00001CC
:100D3800E1513A24D96E0001E2513B20DA6E200ECF
:100D4800DE18D8B42CD002D02AD000D0E3C02EF0C0
:100D58000001E1513A24D96E0001E2513B20DA6EDC
:100D6800DF502F6E3CC030F03DC031F03EC032F055
:100D78003FC033F040C034F00001E451E4EC03F02C
:100D88004050060DF3500001E4250001E46F800E89
:100D98000001E46504D0800E0001E46F00D000017A
:100DA800E14BE22B00D00001DF510001E15D0001C1
:100DB800E0510001E259D8A092D71200E00E83EC6E
:100DC8000BF0020E7BEC0BF01C0E7BEC0BF0070E0D
:100DD8007BEC0BF0120E7BEC0BF0370E7BEC0BF080
:100DE800320E7BEC0BF0290E7BEC0BF02D0E7BEC1E
:100DF8000BF0290E7BEC0BF0250E7BEC0BF02B0E89
:100E08007BEC0BF0390E7BEC0BF0000E7BEC0BF05F
:100E1800010E7BEC0BF0030E7BEC0BF0100E7BEC61
:100E28000BF0E10E83EC0BF0030E7BEC0BF01D0EC8
:100E38007BEC0BF0070E7BEC0BF0060E7BEC0BF05B
:100E48002E0E7BEC0BF02C0E7BEC0BF0290E7BECC2
:100E58000BF02D0E7BEC0BF02E0E7BEC0BF02E0E18
:100E68007BEC0BF0370E7BEC0BF03F0E7BEC0BF0C2
:100E7800000E7BEC0BF0000E7BEC0BF0020E7BEC13
:100E88000BF0100E7BEC0BF0130E83EC0BF0000E46
:100E9800186E0A0E176EF1EC09F0290E83EC0BF0B0
:100EA800000E186E640E176EF1EC09F01200236E36
:100EB800800E236069D09F0E186401D065D0FF0EA4
:100EC8001D6EFF0E1E6E195023C01FF0206A1F26CC
:100ED800000E20221D501F261E50202220BE0AD0A0
:100EE800205004E1800E1F5CD8A004D023500008D5
:100EF800800F196EFF0E1D6EFF0E1E6E1A5018C061
:100F08001FF0206A1F26000E20221D501F261E508B
:100F1800202220BE0BD0205004E1A00E1F5CD8A0D8
:100F280005D018500008A00F1A6E00D018C014F091
:100F3800235019241D6E1D04156E18501A241E6E98
:100F48001E04166E23501AEC0AF01C50216E1BC0AA
:100F580022F0828082941AC018F01850D8B413D0A6
:100F680001D011D019C023F02350D8B40AD001D031
:100F780008D021505FEC0BF022505FEC0BF02306F9
:100F8800F3D71806EAD78284120069EC0BF0F5EC67
:100F98000AF0000E256E000E246E2FEC0BF0BF0E2B
:100FA800676E000E686E67C011F068C012F0C70E59
:100FB800136EFF0E146EC4EC0AF0020E396E67C091
:100FC8003AF068C03BF0FF0E3D6E3C68000E3F6E85
:100FD800000E3E6E010E406E020E5DEC06F067C01C
:100FE80011F068C012F0F70E136EFF0E146EC4EC09
:100FF8000AF00A0E396E67C03AF068C03BF0FF0E7F
:101008003D6E3C68000E3F6E000E3E6E010E406E57
:10101800320E5DEC06F01200000E196E000E1A6E0C
:10102800000E1B6E000E1C6E1550161017101810AF
:10103800D8B42FD0010E1D6E07D0D89015361636AD
:10104800173618361D2A00D018BE02D0F6D700D0A1
:10105800D89019361A361B361C361550115C1650A6
:1010680012581750135818501458D8A00AD01550B1
:10107800115E1650125A1750135A1850145A1980E4
:1010880000D0D89018321732163215321D2EE0D7FC
:1010980000D019C011F01AC012F01BC013F01CC008
:1010A80014F01200226E800E22603FD09F0E18644A
:1010B80001D03BD0FF0E1C6EFF0E1D6E195018C0DC
:1010C8001EF01F6A1E26000E1F221C501E261D50D1
:1010D8001F221FBE0BD01F5004E1A00E1E5CD8A01B
:1010E80005D018500008A00F196E00D01B50206EB4
:1010F8001AC021F018C014F022C015F01850192495
:101108001C6E1C04166E22501AEC0AF0828082941F
:1011180007D020505FEC0BF021505FEC0BF000D0B3
:1011280019061928D8A4F5D78284120000EEBFF05A
:101138001F0EEE6AE806FDE100EE5DF0130EEE6AA2
:10114800E806FDE1B60EF66E110EF76E000EF86EAB
:1011580001EE00F010EE7EF00900F5CFEEFFE5504D
:10116800E150FAE1CC0EF66E140EF76E000EF86E32
:1011780000EE80F010EE3FF00900F5CFEEFFE550ED
:10118800E150FAE1940EF66E160EF76E000EF86E48
:1011980000EE47F010EE16F00900F5CFEEFFE5502F
:1011A800E150FAE1000EF86E00012FEF02F000F8AE
:1011B80000F800F81F001F00E0071FF81FF81FF8CD
:1011C8000000000000000000000000000000000017
:1011D800000000000000000043482D0043482000A4
:1011E80043482B00505256004E585400502F500080
:1011F800564C2D00564C2B00455120002330300012
:1012080031303000323030002330310023303200AA
:1012180023303300233034002330350023303600A8
:101228002330370023303800233039000600EACF56
:1012380006F0E1CF07F0E2CF08F0D9CF09F0DACF16
:101248000AF0F3CF0BF0F4CF0CF0F6CF0DF0F7CF98
:101258000EF0F8CF0FF0F5CF10F09EA003D092EC6F
:101268000BF000D0F2A203D08FEC04F000D010C035
:10127800F5FF0FC0F8FF0EC0F7FF0DC0F6FF0CC05A
:10128800F4FF0BC0F3FF0AC0DAFF09C0D9FF08C09A
:10129800E2FF07C0E1FF06C0EAFF05C0E9FF04C09E
:1012A800FBFF03C0FAFF1100225023102410251061
:1012B800D8B429D0010E266E07D0D890223623360E
:1012C80024362536262A00D025BE02D0F6D700D0EF
:1012D80022501E5C23501F58245020582550215856
:1012E800D8A009D022501E5E23501F5A2450205ADD
:1012F8002550215A00D0D890253224322332223268
:10130800262EE6D700D01EC01EF01FC01FF020C03A
:1013180020F021C021F01200136E000EAC6E000EFA
:10132800AB6E13A002D0AC8800D013A203D0AC8C53
:10133800AB8C00D013A402D0AC8E00D013A602D080
:10134800AB8802D0AB8A00D013B8AC849E9813AA9D
:1013580002D0AB8600D013AC02D09D8A01D09D9AF2
:101368009E9A13AE02D09D8801D09D9811C0AFFF00
:101378001250B06EAC8AAB8E949C948EACB8ACBE56
:1013880002D0948C00D012003F5000083D24186E03
:10139800D8803F34196E41C01AF042C01BF03B5050
:1013A80056EC08F03BC023F03CC024F03DC025F0CB
:1013B8003EC026F03FC027F040C028F0000E2A6E3D
:1013C800030E296E000E2C6E000E2B6E41C02DF000
:1013D80042C02EF039EC05F0120017C011F018C009
:1013E80012F0000E146EFA0E136E0AEC0BF011C018
:1013F8001BF012C01CF01BC019F01CC01AF0191EFB
:101408001A1E194A1A2AFF0E19241B6EFF0E1A20DB
:101418001C6EB80EB16E1BC0B2FF1C50B36EA19209
:10142800B18000D0A1A2FED7B1901200176E2A0E8B
:1014380083EC0BF0000E7BEC0BF017506D247BEC6B
:101448000BF0000E7BEC0BF015506D247BEC0BF0D1
:101458002B0E83EC0BF0000E7BEC0BF014506F247A
:101468007BEC0BF0000E7BEC0BF016506F247BEC42
:101478000BF02C0E83EC0BF012002B6E2BC02CF013
:101488002D6A0ED023C018F025C019F026C01AF016
:1014980027C01BF02C5056EC08F02C4A2D2A00D0FF
:1014A80024502BC028F0296A2826000E292228500B
:1014B8002C5C2D50800A2A6E2950800A2A58D8A000
:1014C800E1D712000202020808040A000000000026
:1014D8000000000000000000000000000000000004
:1014E800282838383838380000000000000000008C
:1014F80000000000000000000000000007070707C8
:101508000707070011C015F012C016F003D0154ADE
:10151800162A00D015C0D9FF16C0DAFFDF50D8A4AC
:10152800F6D711C013F012C014F0131E141E134A7C
:10153800142A15501324116E16501420126E00D060
:1015480012002A0E83EC0BF0000E7BEC0BF0000E61
:101558007BEC0BF0000E7BEC0BF07F0E7BEC0BF0C2
:101568002B0E83EC0BF0000E7BEC0BF0000E7BECEB
:101578000BF0000E7BEC0BF09F0E7BEC0BF01200D7
:1015880011C015F012C016F005D0154A162A134AD4
:10159800142A00D013C0F6FF14C0F7FF15C0D9FFF6
:1015A80016C0DAFF0800F5CFDFFFDF50D8A4EDD76B
:1015B80012001B6E800E1B6013D09F0E186401D0A2
:1015C8000FD018C014F01B28156E1828166E1B5063
:1015D8001AEC0AF01A507BEC0BF019507BEC0BF06C
:1015E800120082848290800EC76E300EC66ED5ECD3
:1015F80005F0A5EC0AF0E2EC06F0360E83EC0BF0F1
:10160800C00E7BEC0BF0010E6B6E12001150130232
:10161800F3CF15F0F4CF16F011501402F35016263C
:1016280012501302F350162615C011F016C012F00E
:1016380000D01200136E000E126E3A0E136006D020
:101648002F0E136403D0010E126E00D012C011F0D9
:10165800113000D01200000E186E800E196EA00E08
:101668001A6E24C01BF025C01CF0000E5BEC07F0BE
:101678001200030ED56EDB0ED66E0B0ED76EF294EB
:10168800D58E00D0F2A4FED7D59E1200A262E22227
:1016980002C2E0A8906898B030187A10385A424AC6
:1016A8005201000E126E190E116E3C0E90EC09F0EC
:1016B800600ED36E1200126E9E96C9CF11F012C042
:1016C800C9FF00D0C7A0FED712008298000E186E7E
:1016D800640E176EF1EC09F082881200F90ECB6ED9
:1016E800050ECA6E4A0EBB6E3C0EBA6E1200136E21
:1016F8008294828013505FEC0BF082841200136E88
:101708008294829013505FEC0BF082841200116E69
:1017180000D0ACA2FED711C0ADFF1200000E6A6E59
:10172800F19CCD909E901200000EBA6E8196120028
:08173800000E6A6ECD90120054
:10FD8E0000000000000000005F00000007000700F8
:10FD9E00147F147F14242A7F2A12231308646236D8
:10FDAE00495620500008070300001C224100004164
:10FDBE00221C002A1C7F1C2A08083E08080080709E
:10FDCE0030000808080808000060600020100804D1
:10FDDE00023E5149453E00427F4000724949494624
:10FDEE002141494D331814127F1027454545393CA2
:10FDFE004A4949314121110907364949493646498F
:10FE0E0049291E00001400000040340000000814B0
:10FE1E002241141414141400412214080201590929
:10FE2E00063E415D594E7C1211127C7F494949367E
:10FE3E003E414141227F4141413E7F494949417FF7
:10FE4E00090909013E414151737F0808087F0041AD
:10FE5E007F41002040413F017F081422417F4040F6
:10FE6E0040407F021C027F7F0408107F3E414141CB
:10FE7E003E7F090909063E4151215E7F0919294637
:10FE8E00264949493203017F01033F4040403F1F4D
:10FE9E002040201F3F4038403F6314081463030482
:10FEAE007804036159494D43007F414141020408E2
:10FEBE001020004141417F040201020440404040B5
:10FECE0040000307080020545478407F28444438EB
:10FEDE003844444428384444287F38545454180035
:10FEEE00087E090218A4A49C787F080404780044B4
:10FEFE007D40002040403D007F1028440000417F9F
:10FF0E0040007C047804787C080404783844444427
:10FF1E0038FC1824241818242418FC7C080404081F
:10FF2E00485454542404043F44243C4040207C1C38
:10FF3E002040201C3C4030403C44281028444C902B
:10FF4E0090907C4464544C44000836410000007785
:10FF5E000000004136080002010204020100000008
:10FF6E000A00000064000000E803000010270000F3
:10FF7E00A086010040420F008096980000E1F50532
:10FF8E0000CA9A3B010000001000000000010000B2
:10FF9E000010000000000100000010000000000131
:10FFAE00000000104E45435F436F6465203D2025E1
:10FFBE0030386C7820257820004543453333303176
:10FFCE004C2053702032322D5333003031323334C3
:10FFDE00353637383961626364656600466F756E13
:10FFEE0064203D2025640D0A004C41422031302012
:02FFFE00000001
:020000040020DA
:08000000FFFFFFFFFFFFFFFF00
:020000040030CA
:0E000000FF08191EFF8281FF0FC00FE00F40A6
:00000001FF
