:020000040000FA
:100000000F0EC16EFF0E926EFF0E946E070E956E70
:10001000000E936E83B40FEF00F011EF00F020EFAD
:1000200000F083B216EF00F01BEF00F083B044EF56
:1000300000F03BEF00F083B032EF00F029EF00F06A
:10004000838C839A8398400E836E7EEC00F00AEFD7
:1000500000F0839C839A8398000E836E4DEC00F031
:100060000AEF00F0839C839A8398100E836E56ECFF
:1000700000F00AEF00F0839C839A8398200E836E31
:1000800063EC00F00AEF00F0839C839A8398300EB3
:10009000836E70EC00F00AEF00F080500F0B016EE1
:1000A000011C0F0B056E05C081FF120080500F0B65
:1000B000016E82500F0B036E0124056E05C081FF97
:1000C00084901BE1848080500F0B016E82500F0BD7
:1000D000036E0114056E05C081FF84900EE18480DB
:1000E00080500F0B016E82500F0B036E0118056ECE
:1000F00005C081FF849001E18480120080500F0BC5
:10010000016E090E01658AEF00F0060E0124016EF2
:0C0110008AEF00F00150056E05C081FF71
:02011C000000E1
:020000040030CA
:0100010008F6
:0100020019E4
:010003001EDE
:010006008178
:00000001FF
