:040000000CEF00F011
:10000800FACF03F0FBCF04F0E9CF05F0BEED09F01D
:10001800FCEF09F0290E0001F66F000E0001F76FE2
:1000280054D2250E0001FF19D8B405D00001FF51A4
:100038009CEC0DF04AD2000E0001FD6F000EFC6F23
:10004800000E0001FE6F06D00001FE85274A282A0F
:1000580001D00BD027C0F6FF28C0F7FF0800F550E5
:10006800300AD8B4F1D701D0F5D727C0F6FF28C099
:10007800F7FF0800F550E8EC0CF0D8A042D0000ECD
:100088000001FD6F000EFC6F00D0FCC011F0FDC038
:1000980012F0000E146E0A0E136ED4EC0CF011C0A0
:1000A800FCF012C0FDF0D00E356EFF0E366E27C084
:1000B800F6FF28C0F7FF0800F550376E386A35504C
:1000C80037263650382237500001FC2738500001B7
:1000D800FD23274A282A27C0F6FF28C0F7FF080073
:1000E800F550E8EC0CF0D8A00CD0CFD70AD0FCD152
:1000F8000001FE8906D020D00001FE8F1DD0E5D179
:100108001BD027C0F6FF28C0F7FF274A282A080077
:10011800F5CFFFF00001FF51000AD8B4E5D1640A19
:10012800D8B40AD00D0AD8B407D0050AD8B4E0D795
:10013800140AD8B4E1D7C9D10001FEBF35D00001F7
:10014800FEA90ED0F6C0D9FFF7C0DAFFDECFF8F06F
:10015800DECFF9F0DECFFAF0DECFFBF0040E0FD0E1
:10016800F6C0D9FFF7C0DAFFDECFF8F0DDCFF9F03F
:100178000001000EF9BFFF0EFA6FFB6F020E0001BF
:10018800F627000EF72300D00001FBAF89D0030E3D
:100198000001FE130001FB1FFA1FF91FF86D000E86
:1001A800F923FA23FB237CD00001FEA90ED0F6C068
:1001B800D9FFF7C0DAFFDECFF8F0DECFF9F0DECFF7
:1001C800FAF0DECFFBF0040E10D0F6C0D9FFF7C06E
:1001D800DAFFDECF35F0DDCF36F035C0F8F036C0C7
:1001E800F9F00001FA6BFB6B020E0001F627000E16
:1001F800F72356D0010E0001FF6F0A0E0001FF1908
:10020800D8B458D001D056D00001FF51040D1C0EAF
:10021800F324F66EFF0EF420F76E0900F550000186
:10022800F85D0900F5500001F9590900F550000181
:10023800FA590900F5500001FB59D8A03BD001D06C
:1002480039D00001FF2BD9D735D0010E0001FF6F3F
:10025800080E0001FF19D8B42DD001D02BD0000111
:10026800FF51040D440EF324F66EFF0EF420F76ED2
:100278000900F5500001F85D0900F5500001F95931
:100288000900F5500001FA590900F5500001FB5921
:10029800D8A010D001D00ED00001FF2BD9D70AD09A
:1002A8000001FE51800B000AD8B4A4D7800AD8B444
:1002B800CCD700D00001FC510001FD11D8B40BD0FF
:1002C800FEC035F0030E3516D8B405D00001FC0782
:1002D800D8A0FD0700D0800E0001FFBF7F0E356E4D
:1002E8000001FC510001FF5D0001FD51800A3558F5
:1002F800D8B00BD00001FF510001FC5F000E0001D7
:10030800FFBFFF0E0001FD5B06D0000E0001FD6F70
:10031800000EFC6F00D00001FEA51FD0FEC035F016
:10032800030E3516D8B404D02D0E9CEC0DF000D079
:100338000001FC510001FD11D8B42ED0300E9CEC08
:100348000DF00001FC07D8A0FD070001FC510001D9
:10035800FD11D8B421D0F2D71FD00001FC51000103
:10036800FD11D8B40FD0200E9CEC0DF00001FC0755
:10037800D8A0FD070001FC510001FD11D8B402D03E
:10038800F2D700D0FEC035F0030E3516D8B404D02D
:100398002D0E9CEC0DF000D00001FF510001F46F10
:1003A800F56BF4BFF50784D074D0F4C035F0F5C010
:1003B80036F0D89035363636D890353636361C0E67
:1003C8003524F66EFF0E3620F76E0900F5CF15F0CE
:1003D8000900F5CF16F00900F5CF17F00A00F5CFA0
:1003E80018F0F8C011F0F9C012F0FAC013F0FBC011
:1003F80014F0F5EC08F011C01EF012C01FF013C085
:1004080020F014C021F00A0E226E000E236E000E9A
:10041800246E000E256E39EC0AF01E50300F0001D4
:10042800FF6F41D0F8C011F0F9C012F0FAC013F014
:10043800FBC014F0F4C035F0F5C036F0D89035366E
:100448003636D89035363636440E3524F66EFF0EDD
:100458003620F76E0900F5CF15F00900F5CF16F034
:100468000900F5CF17F00A00F5CF18F0F5EC08F001
:1004780011500F0B0001F36F0001F351010DD80E5D
:10048800F324F66EFF0EF420F76E0800F5CFFFF0A8
:100498000AD00001FE51800B000AD8B486D7800A22
:1004A800D8B4C0D700D00001FF519CEC0DF000D0AB
:1004B8000001F407D8A0F5070001F429EAE10001DA
:1004C800F529D8B402D0E5D700D027C0F6FF28C058
:1004D800F7FF274A282A0800F5CFFFF00001FF514F
:1004E800D8B402D09ED500D0120052EC0CF0AEEC7D
:1004F80008F0DBEC0AF000D070EC0CF014500101AD
:10050800826F01018251090DF3CF11F0F4CF12F07F
:10051800000E146E050E136E63EC08F01150200FD8
:1005280001017F6F640E276EFF0E286E82C129F0CD
:100538002A6A7FC12BF02C6A0EEC00F063C07EF1B2
:10054800A9EC0AF001017E516318D8B43BD08F0E94
:10055800276EFF0E286E5DC029F02A6A5FC02BF057
:100568002C6A63C02DF02E6A60C02FF0306A5AC022
:1005780031F0326A6DC033F0346A0EEC00F070EC82
:100588000CF014500101826F01018251090DF3CF63
:1005980011F0F4CF12F0000E146E050E136E63EC1A
:1005A80008F01150200F01017F6F640E276EFF0EB7
:1005B800286E82C129F02A6A7FC12BF02C6A0EECC2
:1005C80000F000D04C044D10D8A496D7000E4D6E04
:1005D800000E4C6EF288F19C5C68000E0101816F80
:1005E800000E806F010181BF0AD0010181511BE11A
:1005F800150E0101805DD8B016D001D014D0BF0E01
:1006080001018025D96E000E01018121DA6E50505A
:10061800DE18D8A403D080C15CF005D00101804B5E
:10062800812BE0D700D0C30E276EFF0E286E44C082
:1006380029F045C02AF046C02BF047C02CF050C026
:100648002DF02E6A0EEC00F0E90E276EFF0E286ED4
:100658005CC029F02A6A0EEC00F05C28D8B468D097
:100668005C50010D800EF324D96E000EF420DA6E72
:10067800DF50806E5C50010D950EF324D96E000E8C
:10068800F420DA6EDF50836E5C50010DAA0EF3245D
:10069800D96E000EF420DA6EDF50846E000E3C6EC8
:1006A8003C0E3B6E000E3E6E500E3D6E000E406ED0
:1006B800140E3F6E5C50020D000EF324D96E010E2D
:1006C800F420DA6EDECF41F0DDCF42F033EC0BF0F0
:1006D800000E1D6E3C0E1C6E000E1F6E500E1E6E20
:1006E800000E216E140E206EFF0E236E2268A5ECFC
:1006F80003F04D0E396E5C50040D2A0EF3243A6E49
:10070800010EF4203B6EFF0E3D6E3C68000E3F6EFE
:10071800000E3E6E010E406E340EF7EC06F0818E30
:1007280083EC0DF026EC0DF0819EBEEC0DF000D0B0
:10073800080E5C18D8A4E0D6DBEC0AF0DDD60CEF86
:1007480000F020C024F021C025F0241E251E244AD4
:10075800252A010E24242A6E000E25202B6E000E59
:10076800276E010E266E20C024F021C025F0D890F7
:1007780024362536241E251E244A252A24C028F07E
:1007880025C029F0000E2D6E000E2C6E20C02EF014
:1007980021C02FF01E502024186E22C019F023C04B
:1007A8001AF01C50A7EC0CF0205000081E24186EFC
:1007B80022C019F023C01AF01C50A7EC0CF01EC080
:1007C80018F022C019F023C01AF01C502024A7ECFE
:1007D8000CF01EC018F022C019F023C01AF02050E7
:1007E80000081C24A7EC0CF078D02BBE0BD02E06EA
:1007F800D8A02F06020E2826000E292228502A26C5
:1008080029502B222C4A2D2A020E2626000E27229A
:1008180026502A2627502B221E502E24186E22C01E
:1008280019F023C01AF01C502C24A7EC0CF01E5011
:100838002E24186E22C019F023C01AF02C5000087C
:100848001C24A7EC0CF02E5000081E24186E22C0A1
:1008580019F023C01AF01C502C24A7EC0CF02E50D1
:1008680000081E24186E22C019F023C01AF02C505C
:1008780000081C24A7EC0CF01E502C24186E22C073
:1008880019F023C01AF01C502E24A7EC0CF01E50AF
:100898002C24186E22C019F023C01AF02E5000081C
:1008A8001C24A7EC0CF02C5000081E24186E22C043
:1008B80019F023C01AF01C502E24A7EC0CF02C5071
:1008C80000081E24186E22C019F023C01AF02E50FA
:1008D80000081C24A7EC0CF000D02E502C5C2D50E6
:1008E800800A246E2F50800A2458D8A07ED7120080
:1008F800F2925150D8B496D0CE50CFCF01F0026AC0
:1009080001C002F0016A0110486E0250496E000EE3
:10091800CF6E000ECE6E86D0000ECF6E000ECE6E5D
:100928009E90900ECD6ECD80000E586E000E446ED7
:10093800000E456E000E466E000E476E010E516E9B
:100948006FD081D0350E485C210E4958D8A009D007
:100958001C0E485C250E4958D8B003D0020E516EC3
:100968002AD0CAEC0DF027D026D06DD0A10E485C55
:100978000F0E4958D8A009D0880E485C130E495864
:10098800D8B003D0030E516E4BD0CAEC0DF048D04E
:1009980047D059D0910E485C010E4958D8A008D0CC
:1009A800BC0E485C020E4958D8B002D0040ED7D706
:1009B800CAEC0DF000D0F19C46D0910E485C010EB7
:1009C8004958D8A02AD0080E485C070E4958D8B014
:1009D80024D0D8904434446E4534456E4634466E2F
:1009E8004734476EE90E485C030E4958D8A007D033
:1009F800010E4426000E45224622472200D0582ADE
:100A08001F0E5864BFD7000E4D6E010E4C6E45C0C8
:100A180050F0F298000E516EB5D7CAEC0DF000D028
:100A2800F18C11D05150000AD8B476D7010AD8B445
:100A380089D7030AD8B49AD7010AD8B4ABD7070A1A
:100A4800D8B4BBD700D01200366E800E3660A6D060
:100A58009F0E2E6401D0A2D03450D8A403D0010E2A
:100A6800346E00D01F0E2F6404D07E0E2F6403D086
:100A780000D03F0E2F6E000E386E040E386401D081
:100A88008DD0530E2F6015D0E00E2F24116E126AF0
:100A9800FF0E1222000E146E050E136ED4EC0CF02D
:100AA80038501126000E1222410E1124F66EFD0E4A
:100AB80014D0AD0E2F24116E126AFF0E1222000EF2
:100AC800146E050E136ED4EC0CF038501126000E7F
:100AD8001222400E1124F66EFE0E1220F76E080048
:100AE800F5CF35F000D0000E376E060E376401D012
:100AF80053D035A023D03404D8A40CD02E5037249A
:100B0800186E30C019F031C01AF036503824A7ECEE
:100B18000CF03ED037503402F3502E24236E34C0EC
:100B280024F034C025F030C026F031C027F038500A
:100B38003402F3503624ACEC0BF02AD03050321883
:100B480004E131503318D8B423D03404D8A40CD0DD
:100B58002E503724186E32C019F033C01AF03650B0
:100B68003824A7EC0CF014D037503402F3502E245C
:100B7800236E34C024F034C025F032C026F033C0D0
:100B880027F038503402F3503624ACEC0BF000D088
:100B9800372AD8903532A9D7382A6FD7120027C0FC
:100BA8002FF028C030F02F1E301E2F4A302A010E99
:100BB8002F24356E000E3020366E000E326E010E78
:100BC800316E27C02FF028C030F0D8902F3630363D
:100BD8002F1E301E2F4A302A2FC033F030C034F079
:100BE800000E386E000E376E27C039F028C03AF074
:100BF80067D036BE0BD03906D8A03A06020E332687
:100C0800000E34223350352634503622374A382ADB
:100C1800020E3126000E322231503526325036224D
:100C280029A025D0395000082524186E39503924B8
:100C38002B242F6E2F28196E2DC01AF02EC01BF0F2
:100C4800235037243BEC09F0375000082524186E50
:100C5800375037242B242F6E2F28196E2DC01AF0E9
:100C68002EC01BF0235039243BEC09F000D029A2F8
:100C780027D0395000082524186E395039242B24E0
:100C88002F6E2F28196E2DC01AF02EC01BF037506A
:100C9800000823243BEC09F0375000082524186E7F
:100CA800375037242B242F6E2F28196E2DC01AF099
:100CB8002EC01BF03950000823243BEC09F000D06B
:100CC8003950375C3850800A2F6E3A50800A2F58B6
:100CD800D8A08FD71200010E94EC0DF0000E186EFC
:100CE800960E176E5CEC0BF0110E94EC0DF0010EE5
:100CF800186EF40E176E5CEC0BF0B10E94EC0DF060
:100D0800010E8CEC0DF02C0E8CEC0DF02D0E8CECF5
:100D18000DF0B20E94EC0DF0010E8CEC0DF02C0ED3
:100D28008CEC0DF02D0E8CEC0DF0B30E94EC0DF058
:100D3800010E8CEC0DF02C0E8CEC0DF02D0E8CECC5
:100D48000DF0010E8CEC0DF02C0E8CEC0DF02D0E30
:100D58008CEC0DF0B40E94EC0DF0070E8CEC0DF04D
:100D6800C00E94EC0DF0A20E8CEC0DF0020E8CEC83
:100D78000DF0840E8CEC0DF0C10E94EC0DF0C50E48
:100D88008CEC0DF0C20E94EC0DF00A0E8CEC0DF00C
:100D9800000E8CEC0DF0C30E94EC0DF08A0E8CEC6A
:100DA8000DF02A0E8CEC0DF0C40E94EC0DF08A0EAA
:100DB8008CEC0DF0EE0E8CEC0DF0C50E94EC0DF0F5
:100DC8000E0E8CEC0DF0200E94EC0DF0360E94EC1B
:100DD8000DF0C80E8CEC0DF03A0E94EC0DF0050EEB
:100DE8008CEC0DF012000001F36FF3C0F9F039C07C
:100DF800F8F03AC011F03BC012F0F5EC0BF011C05E
:100E0800F4F012C0F5F0000E0001F76F000EF66F57
:100E180064D06F50D8B434D04050050D0001F9515A
:100E2800416E426AF3504126F450422242BE28D015
:100E3800425004E1810E415CD8A022D0000E00018E
:100E4800F96F4050070DF3500001F825030F00011A
:100E5800F86FA00E0001F86504D0A00E0001F86F2D
:100E680000D00001F6513A24D96E0001F7513B2019
:100E7800DA6E200EDE18D8B42CD002D02AD000D0DA
:100E8800F8C02EF00001F6513A24D96E0001F7514E
:100E98003B20DA6EDF502F6E3CC030F03DC031F0A1
:100EA8003EC032F03FC033F040C034F00001F95189
:100EB80028EC05F04050060DF3500001F92500011B
:100EC800F96F800E0001F96504D0800E0001F96FFA
:100ED80000D00001F64BF72B00D00001F4510001BF
:100EE800F65D0001F5510001F759D8A092D712001C
:100EF800E00E94EC0DF0020E8CEC0DF01C0E8CEC58
:100F08000DF0070E8CEC0DF0120E8CEC0DF0370E78
:100F18008CEC0DF0320E8CEC0DF0290E8CEC0DF0F3
:100F28002D0E8CEC0DF0290E8CEC0DF0250E8CECB2
:100F38000DF02B0E8CEC0DF0390E8CEC0DF0000E34
:100F48008CEC0DF0010E8CEC0DF0030E8CEC0DF01A
:100F5800100E8CEC0DF0E10E94EC0DF0030E8CEC01
:100F68000DF01D0E8CEC0DF0070E8CEC0DF0060E3E
:100F78008CEC0DF02E0E8CEC0DF02C0E8CEC0DF094
:100F8800290E8CEC0DF02D0E8CEC0DF02E0E8CEC49
:100F98000DF02E0E8CEC0DF0370E8CEC0DF03F0E94
:100FA8008CEC0DF0000E8CEC0DF0000E8CEC0DF0BE
:100FB800020E8CEC0DF0100E8CEC0DF0130E94EC70
:100FC8000DF0000E186E0A0E176E5CEC0BF0290E71
:100FD80094EC0DF0000E186E640E176E5CEC0BF0BE
:100FE8001200236E800E236069D09F0E186401D012
:100FF80065D0FF0E1D6EFF0E1E6E195023C01FF028
:10100800206A1F26000E20221D501F261E50202257
:1010180020BE0AD0205004E1800E1F5CD8A004D066
:1010280023500008800F196EFF0E1D6EFF0E1E6EF6
:101038001A5018C01FF0206A1F26000E20221D50CB
:101048001F261E50202220BE0BD0205004E1A00EE7
:101058001F5CD8A005D018500008A00F1A6E00D049
:1010680018C014F0235019241D6E1D04156E185055
:101078001A241E6E1E04166E235085EC0BF01C50AD
:10108800216E1BC022F0828082941AC018F018507A
:10109800D8B413D001D011D019C023F02350D8B43C
:1010A8000AD001D008D021504BEC0DF022504BEC67
:1010B8000DF02306F3D71806EAD782841200000E33
:1010C800166E14AE07D0136C141ED8B0142A010E75
:1010D800166E00D012AE07D0116C121ED8B0122AAC
:1010E800010E161A00D0000E186E000E176E13505F
:1010F8001410D8B421D0010E156E05D0D89013362F
:101108001436152A00D014BE02D0F8D700D0D890D3
:10111800173618361350115C14501258D8A006D040
:101128001350115E1450125A178000D0D890143200
:101138001332152EECD700D01650D8B405D0176C42
:10114800181ED8B0182A00D017C011F018C012F015
:1011580000D012005FEC0DF0BFEC0CF0000E256E15
:10116800000E246E18EC0DF0D40E4E6E000E4F6E6D
:101178004EC011F04FC012F0AD0E136EFF0E146E7C
:101188008EEC0CF0020E396E4EC03AF04FC03BF0B8
:10119800FF0E3D6E3C68000E3F6E000E3E6E010E67
:1011A800406E020EF7EC06F04EC011F04FC012F080
:1011B800F60E136EFF0E146E8EEC0CF00A0E396EDE
:1011C8004EC03AF04FC03BF0FF0E3D6E3C68000E3B
:1011D8003F6E000E3E6E010E406E320EF7EC06F0CA
:1011E8001200000E196E000E1A6E000E1B6E000E15
:1011F8001C6E1550161017101810D8B42FD0010EE9
:101208001D6E07D0D89015361636173618361D2A93
:1012180000D018BE02D0F6D700D0D89019361A36AA
:101228001B361C361550115C16501258175013589F
:1012380018501458D8A00AD01550115E1650125ADA
:101248001750135A1850145A198000D0D8901832D1
:101258001732163215321D2EE0D700D019C011F002
:101268001AC012F01BC013F01CC014F01200226E3A
:10127800800E22603FD09F0E186401D03BD0FF0E35
:101288001C6EFF0E1D6E195018C01EF01F6A1E2618
:10129800000E1F221C501E261D501F221FBE0BD0E1
:1012A8001F5004E1A00E1E5CD8A005D018500008FD
:1012B800A00F196E00D01B50206E1AC021F018C064
:1012C80014F022C015F0185019241C6E1C04166E58
:1012D800225085EC0BF08280829407D020504BEC92
:1012E8000DF021504BEC0DF000D019061928D8A4A8
:1012F800F5D78284120000F800000000000000000A
:1013080000000000000000000000000000000000D5
:1013180000000000000000000000000000000000C5
:1013280043482D00000000000000000000000000FD
:1013380000000000000000000000000000000000A5
:101348000000000000000000000000000000000095
:101358000000000000000000000000000000000085
:101368000000000000000000000000000000000075
:10137800000000000600EACF06F0E1CF07F0E2CF58
:1013880008F0D9CF09F0DACF0AF0F3CF0BF0F4CF99
:101398000CF0F6CF0DF0F7CF0EF0F8CF0FF0F5CF39
:1013A80010F09EA003D0A9EC0DF000D0F2A203D05B
:1013B8007CEC04F000D010C0F5FF0FC0F8FF0EC0A1
:1013C800F7FF0DC0F6FF0CC0F4FF0BC0F3FF0AC017
:1013D800DAFF09C0D9FF08C0E2FF07C0E1FF06C075
:1013E800EAFF05C0E9FF04C0FBFF03C0FAFF1100D4
:1013F80000EED4F01F0EEE6AE806FDE100EE44F0C0
:101408002A0EEE6AE806FDE1FE0EF66E120EF76E83
:10141800000EF86E01EE00F010EE7EF00900F5CF38
:10142800EEFFE550E150FAE1120EF66E160EF76E79
:10143800000EF86E00EE80F010EE54F00900F5CFC3
:10144800EEFFE550E150FAE19C0EF66E1B0EF76ECA
:10145800000EF86E0900F5CF6EF00900F5CF6FF0B9
:10146800000EF86E000179EF02F0225023102410CC
:101478002510D8B429D0010E266E07D0D890223670
:10148800233624362536262A00D025BE02D0F6D7A4
:1014980000D022501E5C23501F582450205825503D
:1014A8002158D8A009D022501E5E23501F5A24501C
:1014B800205A2550215A00D0D89025322432233280
:1014C8002232262EE6D700D01EC01EF01FC01FF005
:1014D80020C020F021C021F01200136E000EAC6E67
:1014E800000EAB6E13A002D0AC8800D013A203D0BC
:1014F800AC8CAB8C00D013A402D0AC8E00D013A659
:1015080002D0AB8802D0AB8A00D013B8AC849E98C6
:1015180013AA02D0AB8600D013AC02D09D8A01D0AA
:101528009D9A9E9A13AE02D09D8801D09D9811C0B5
:10153800AFFF1250B06EAC8AAB8E949C948EACB850
:10154800ACBE02D0948C00D01200680E156E000E4E
:10155800146E71EC0DF01550152433EC0CF014508A
:1015680033EC0CF040EC0DF0D880153433EC0CF073
:10157800010ED1EC0BF0636E010ED1EC0BF05F6E37
:10158800010ED1EC0BF05D6E010ED1EC0BF05B6E31
:10159800010ED1EC0BF05A6E010ED1EC0BF0606E1F
:1015A800000ED1EC0BF06D6E68EC0DF01200680EB9
:1015B800136E000E146E000E636E000E5D6E000E4C
:1015C8005B6E000E5A6E000E606E000E6D6E71EC52
:1015D8000DF01350132433EC0CF0145033EC0CF0D2
:1015E800635033EC0CF05D5033EC0CF05B5033EC93
:1015F8000CF05A5033EC0CF0605033EC0CF06D509A
:1016080033EC0CF068EC0DF012000202020808043A
:101618000A000000000000000000000000000000B8
:10162800000000000000282838383838380000004A
:1016380000000000000000000000000000000000A2
:10164800000007070707070707A2000000000000BF
:1016580000000000000000000000000000003F50F3
:1016680000083D24186ED8803F34196E41C01AF026
:1016780042C01BF03B503BEC09F03BC023F03CC0A0
:1016880024F03DC025F03EC026F03FC027F040C002
:1016980028F0000E2A6E030E296E000E2C6E000E26
:1016A8002B6E41C02DF042C02EF0D3EC05F0120095
:1016B80017C011F018C012F0000E146EFA0E136E57
:1016C800D4EC0CF011C01BF012C01CF01BC019F0B8
:1016D8001CC01AF0191E1A1E194A1A2AFF0E1924BC
:1016E8001B6EFF0E1A201C6EB80EB16E1BC0B2FF27
:1016F8001C50B36EA192B18000D0A1A2FED7B190C8
:101708001200176E2A0E94EC0DF0000E8CEC0DF002
:10171800175059248CEC0DF0000E8CEC0DF0155080
:1017280059248CEC0DF02B0E94EC0DF0000E8CEC83
:101738000DF0145062248CEC0DF0000E8CEC0DF0C2
:10174800165062248CEC0DF02C0E94EC0DF0120067
:101758002B6E2BC02CF02D6A0ED023C018F025C09C
:1017680019F026C01AF027C01BF02C503BEC09F0EA
:101778002C4A2D2A00D024502BC028F0296A28266C
:10178800000E292228502C5C2D50800A2A6E2950E0
:10179800800A2A58D8A0E1D71200116EC6EC0DF0C5
:1017A800000E126E070E126401D00FD0A3EC0DF0DC
:1017B80083AC03D0D880133604D013501324136E8F
:1017C80000D0C2EC0DF0122AEDD71150D8B403D0D6
:1017D8007AEC0DF003D0B4EC0DF000D0135000D02B
:1017E800120011C015F012C016F003D0154A162ABF
:1017F80000D015C0D9FF16C0DAFFDF50D8A4F6D73D
:1018080011C013F012C014F0131E141E134A142A28
:1018180015501324116E16501420126E00D01200A9
:101828002A0E94EC0DF0000E8CEC0DF0000E8CECF2
:101838000DF0000E8CEC0DF07F0E8CEC0DF02B0EE5
:1018480094EC0DF0000E8CEC0DF0000E8CEC0DF00D
:10185800000E8CEC0DF09F0E8CEC0DF01200116E4A
:10186800000E126E070E126401D011D011AE03D013
:10187800C6EC0DF003D0B9EC0DF000D0A3EC0DF0E0
:10188800C2EC0DF011501124116E122AEBD7C6ECE0
:101898000DF0A3EC0DF0C2EC0DF0120055EC0DF0BC
:1018A800700ED36E09EC0DF00F0EC16E000E926E25
:1018B800110E936E000E946E400E956E000E966E8D
:1018C800F19EA00E116E860E126E010E136E000EA2
:1018D800146EAFEC0DF01200480E186EAA0E166EBC
:1018E80071EC0DF01850182433EC0CF0165033EC52
:1018F8000CF040EC0DF0D880183433EC0CF0000EEE
:10190800D1EC0BF0176E68EC0DF017C014F0156AE7
:1019180000D0120011C015F012C016F005D0154AFB
:10192800162A134A142A00D013C0F6FF14C0F7FF72
:1019380015C0D9FF16C0DAFF0800F5CFDFFFDF506A
:10194800D8A4EDD712001B6E800E1B6013D09F0E1B
:10195800186401D00FD018C014F01B28156E182871
:10196800166E1B5085EC0BF01A508CEC0DF01950CC
:101978008CEC0DF0120082848290800EC76E300EBF
:10198800C66E6FEC06F014EC0CF07CEC07F0360E2B
:1019980094EC0DF0C00E8CEC0DF0010E536E12009D
:1019A80011501302F3CF15F0F4CF16F011501402B2
:1019B800F350162612501302F350162615C011F0D4
:1019C80016C012F000D01200136E000E126E3A0EFE
:1019D800136006D02F0E136403D0010E126E00D0D0
:1019E80012C011F0113000D01200156E71EC0DF01C
:1019F8001550152433EC0CF0135033EC0CF0145044
:101A080033EC0CF068EC0DF01200480E166EAC0EBC
:101A1800136E020E146E1650F9EC0CF0EE0E136EE7
:101A2800165033EC0DF01200000E186E800E196E71
:101A3800A00E1A6E24C01BF025C01CF0000EF5EC99
:101A480007F01200030ED56EDB0ED66E0B0ED76EA6
:101A5800F294D58E00D0F2A4FED7D59E1200146E53
:101A680071EC0DF01450142433EC0CF0135033ECDB
:101A78000CF068EC0DF01200C2EC0DF0C6EC0DF0A5
:101A8800A3EC0DF0B9EC0DF0C2EC0DF01200126EE3
:101A98009E96C9CF11F012C0C9FF00D0C7A0FED7CB
:101AA8001200000E126E190E116E3C0E71EC0AF047
:101AB800700ED36E12008298000E186E640E176EA8
:101AC8005CEC0BF082881200C2EC0DF0B9EC0DF062
:101AD800A3EC0DF0C6EC0DF01200C6EC0DF0A3EC73
:101AE8000DF0B9EC0DF0C2EC0DF01200B9EC0DF0F0
:101AF800A3EC0DF0C2EC0DF0C6EC0DF01200F90EDF
:101B0800CB6E050ECA6E4A0EBB6E3C0EBA6E120044
:101B1800136E8294828013504BEC0DF08284120075
:101B2800136E8294829013504BEC0DF08284120055
:101B3800116E00D0ACA2FED711C0ADFF1200938881
:101B4800060EE82EFED700D01200000E516EF19C52
:101B5800CD909E901200A3EC0DF0C6EC0DF0120093
:101B6800A3EC0DF0C2EC0DF01200839C959C00D004
:101B780000D01200000EBA6E8196120081989398D8
:101B880000D01200958C00D000D01200000E516ECB
:061B9800CD901200FF01D8
:10FD400000000000000000005F0000000700070046
:10FD5000147F147F14242A7F2A1223130864623626
:10FD6000495620500008070300001C2241000041B2
:10FD7000221C002A1C7F1C2A08083E0808008070EC
:10FD8000300008080808080000606000201008041F
:10FD9000023E5149453E00427F4000724949494672
:10FDA0002141494D331814127F1027454545393CF0
:10FDB0004A494931412111090736494949364649DD
:10FDC00049291E00001400000040340000000814FF
:10FDD0002241141414141400412214080201590978
:10FDE000063E415D594E7C1211127C7F49494936CD
:10FDF0003E414141227F4141413E7F494949417F46
:10FE0000090909013E414151737F0808087F0041FB
:10FE10007F41002040413F017F081422417F404044
:10FE200040407F021C027F7F0408107F3E41414119
:10FE30003E7F090909063E4151215E7F0919294685
:10FE4000264949493203017F01033F4040403F1F9B
:10FE50002040201F3F4038403F63140814630304D0
:10FE60007804036159494D43007F41414102040830
:10FE70001020004141417F04020102044040404003
:10FE800040000307080020545478407F2844443839
:10FE90003844444428384444287F38545454180083
:10FEA000087E090218A4A49C787F08040478004402
:10FEB0007D40002040403D007F1028440000417FED
:10FEC00040007C047804787C080404783844444476
:10FED00038FC1824241818242418FC7C080404086E
:10FEE000485454542404043F44243C4040207C1C87
:10FEF0002040201C3C4030403C44281028444C907A
:10FF000090907C4464544C440008364100000077D3
:10FF10000000004136080002010204020100000056
:10FF20000A00000064000000E80300001027000041
:10FF3000A086010040420F008096980000E1F50580
:10FF400000CA9A3B01000000100000000001000000
:10FF5000001000000000010000001000000000017F
:10FF6000000000102054656D7065726174757265D3
:10FF7000203D202564206465677265657343203DDC
:10FF80002025642064656772656573460D0A002547
:10FF90003032783A253032783A25303278202530A0
:10FFA00032782F253032782F25303278004543457E
:10FFB000333330314C20537072696E672032322DEA
:10FFC0005333004E45435F436F6465203D20253029
:10FFD000386C78202578200030313233343536378C
:10FFE000383961626364656600466F756E64203DF2
:10FFF0002025640D0A004C414220313120000000D0
:020000040020DA
:08000000FFFFFFFFFFFFFFFF00
:020000040030CA
:0E000000FF08191EFF8281FF0FC00FE00F40A6
:00000001FF
