:04000000EDEF63F0CD
:10C4A800000EBA6E819612000E0EC16EA90EC06EF5
:10C4B8001200016E0150040DF328C26E1200016EC5
:10C4C80000D0ACA2FED701C0ADFF1200036E82946B
:10C4D800829003508CEC62F082841200036E829486
:10C4E800828003508CEC62F082841200F90ECB6ECD
:10C4F800050ECA6E4A0EBB6E3C0EBA6E12008298CA
:10C50800000E166E640E156E2DEC65F08288120012
:10C51800026E9E96C9CF01F002C0C9FF00D0C7A025
:10C52800FED71200000E026E190E016E3C0EF1ECE1
:10C5380065F0600ED36E12001F0E926E000E936EA1
:10C54800000E946E000E956E000E966E1200030E8D
:10C55800D56EDB0ED66E0B0ED76EF294D58E00D04C
:10C56800F2A4FED7D59E1200000E086E800E096E4A
:10C57800A00E0A6E14C00BF015C00CF0000E31ECC2
:10C588006AF01200015002100310D8B406D0000E51
:10C59800011A000E021A800E031A01C001F002C02F
:10C5A80002F003C003F01200C28200D0C2B2FED76C
:10C5B800C450046E036AC3500324056E000E0420A1
:10C5C800066E05C001F006C002F000D012000F5040
:10C5D8001102F3CF13F0F4CF14F00F501202F350FE
:10C5E800142610501102F350142613C00FF014C073
:10C5F80010F000D0120082848290800EC76E300E38
:10C60800C66EF6EC6DF0CEEC63F0F4EC6BF0360E23
:10C618006AEC62F0C00E72EC62F0010E7C6E1200E1
:10C62900FF792430191202780010300001303000EF
:10C6390030300030300030300030300030300044CD
:10C6490000300030003000440030003000686E686F
:10C65900C069F06950D8B40BD001D009D069C03A8B
:10C66900F07E50C5EC6FF06AEC66F06906F2D7000F
:10C679000E3A6E7E50C5EC6FF012000B6E800E0BF9
:10C689006013D09F0E086401D00FD008C004F00BCE
:10C6990028056E0828066E0B50DDEC64F00A50720E
:10C6A900EC62F0095072EC62F0120001C005F00270
:10C6B900C006F005D0054A062A034A042A00D00319
:10C6C900C0F6FF04C0F7FF05C0D9FF06C0DAFF08AE
:10C6D90000F5CFDFFFDF50D8A4EDD71200000E1808
:10C6E9006E16AE07D0156C161ED8B0162A010E1894
:10C6F9006E00D015C001F016C002F0036A8E0E0458
:10C709006E18C005F001EC69F001C015F002C01601
:10C71900F003C017F000D01200696E68046A6E6AEF
:10C7290050D8B40BD001D009D06AC03AF06950642E
:10C73900EC69F033EC67F06A06F2D7000E3A6E7EC8
:10C749005064EC69F0000E3A6E010E64EC69F03346
:10C75900EC67F0120001C005F002C006F003D00535
:10C769004A062A00D005C0D9FF06C0DAFFDF50D833
:10C77900A4F6D701C003F002C004F0031E041E038F
:10C789004A042A05500324016E06500420026E0053
:10C79900D012002A0E6AEC62F0000E72EC62F00010
:10C7A9000E72EC62F0000E72EC62F07F0E72EC62B7
:10C7B900F02B0E6AEC62F0000E72EC62F0000E7261
:10C7C900EC62F0000E72EC62F09F0E72EC62F012F5
:10C7D9000000EEADF02B0EEE6AE806FDE100EE7505
:10C7E900F00B0EEE6AE806FDE1290EF66EC60EF7AD
:10C7F9006E000EF86E00EE80F010EE2DF00900F5D7
:10C80900CFEEFFE550E150FAE1000EF86E00015459
:10C81900EF68F0415042104310D8B407D0000E41E0
:10C829001A000E421A800E431A00D03EC032F03F61
:10C83900C033F040C034F041C035F042C036F04357
:10C84900C037F063EC71F032C03EF033C03FF034D2
:10C85900C040F000D01200366E020E7E6E36C03334
:10C86900F07E5057EC74F00AD0819801D08188810C
:10C879009A13D0819801D08188818A0ED0365000D0
:10C889000AD8B4F2D7010AD8B4F1D7030AD8B4F157
:10C89900D7010AD8B4F0D700D01200366E030E7E45
:10C8A9006E36C033F07E5057EC74F00AD084900194
:10C8B900D08480849413D0849001D0848084840EA1
:10C8C900D03650000AD8B4F2D7010AD8B4F1D70348
:10C8D9000AD8B4F1D7010AD8B4F0D700D01200367B
:10C8E9006E000E7E6E36C033F07E5057EC74F00A3F
:10C8F900D0809A01D0808A819013D0809A01D0800B
:10C909008A81800ED03650000AD8B4F2D7010AD8ED
:10C91900B4F1D7030AD8B4F1D7010AD8B4F0D700D3
:10C92900D01200366E010E7E6E36C033F07E50573F
:10C93900EC74F00AD0819201D08182819413D08164
:10C949009201D0818281840ED03650000AD8B4F287
:10C95900D7010AD8B4F1D7030AD8B4F1D7010AD854
:10C96900B4F0D700D012001B6E1BC01CF01D6A0E5C
:10C97900D013C008F015C009F016C00AF017C00B93
:10C98900F01C50ABEC66F01C4A1D2A00D014501B59
:10C99900C018F0196A1826000E192218501C5C1DBF
:10C9A90050800A1A6E1950800A1A58D8A0E1D71275
:10C9B90000076E2A0E6AEC62F0000E72EC62F00754
:10C9C900507D2472EC62F0000E72EC62F005507D2D
:10C9D9002472EC62F02B0E6AEC62F0000E72EC62CB
:10C9E900F004507F2472EC62F0000E72EC62F006E3
:10C9F900507F2472EC62F02C0E6AEC62F012002F68
:10CA09005000082D24086ED8802F34096E31C00AD1
:10CA1900F032C00BF02B50ABEC66F02BC013F02CAE
:10CA2900C014F02DC015F02EC016F02FC017F0302D
:10CA3900C018F0000E1A6E030E196E000E1C6E005F
:10CA49000E1B6E31C01DF032C01EF07EEC6EF0126E
:10CA59000015C00FF016C010F0000E126EFA0E117C
:10CA69006EEBEC62F00FC019F010C01AF019C01784
:10CA7900F01AC018F0171E181E174A182AFF0E17A9
:10CA890024196EFF0E18201A6EB80EB16E19C0D691
:10CA9900FF1A50D76EA192B18000D0A1A2FED7B1E2
:10CAA9009012008E0E116E07D0D8900C320B320AFC
:10CAB900320932112A00D0000E09140D6E000E0A37
:10CAC900140E6E000E0B140F6EFF0E0C14106E0D6B
:10CAD900500E100F101010D8A4E7D709C001F00AA2
:10CAE900C002F00BC003F011C004F0000E056E0186
:10CAF900EC69F001C009F002C00AF003C00BF000B4
:10CB0900D0120015C008F017C009F01BC00AF01CAC
:10CB1900C00BF01350EFEC66F0155019241D6E1D73
:10CB290004086E17C009F01BC00AF01CC00BF013F3
:10CB390050EFEC66F015C008F019C009F01BC00AE7
:10CB4900F01CC00BF01350ABEC66F015C008F019DF
:10CB5900C009F01BC00AF01CC00BF0135017241DAC
:10CB69006E1D04ABEC66F0120005500610071008A4
:10CB790010D8B429D0010E096E07D0D89005360611
:10CB89003607360836092A00D008BE02D0F6D70083
:10CB9900D00550015C06500258075003580850044C
:10CBA90058D8A009D00550015E0650025A07500313
:10CBB9005A0850045A00D0D8900832073206320574
:10CBC90032092EE6D700D001C001F002C002F003FD
:10CBD900C003F004C004F01200036E000EAC6E0036
:10CBE9000EAB6E03A002D0AC8800D003A203D0AC78
:10CBF9008CAB8C00D003A402D0AC8E00D003A6026B
:10CC0900D0AB8802D0AB8A00D003B8AC849E98031D
:10CC1900AA02D0AB8600D003AC02D09D8A01D09D78
:10CC29009A9E9A03AE02D09D8801D09D9801C0AF0B
:10CC3900FF0250B06EAC8AAB8E949C948EACB8ACAB
:10CC4900BE02D0948C00D01200000E066E02AE0710
:10CC5900D0016C021ED8B0022A010E066E00D00463
:10CC6900AE05D0036C041ED8B0042A00D0035004CA
:10CC790010D8B41DD0010E056E05D0D89003360426
:10CC890036052A00D004BE02D0F8D700D0035001DF
:10CC99005C04500258D8A005D00350015E0450022C
:10CCA9005A00D0D89004320332052EF0D700D006AE
:10CCB90050D8B405D0016C021ED8B0022A00D001A8
:10CCC900C001F002C002F000D01200838E75C001CD
:10CCD900F076C002F0FD0E036EFF0E046E5AEC638F
:10CCE900F00A0E296E75C02AF076C02BF0FF0E2DC2
:10CCF9006E2C68000E2F6E000E2E6E010E306E78AF
:10CD09000E10EC6BF0ABEC62F0839E75C001F0760F
:10CD1900C002F0FB0E036EFF0E046E5AEC63F00ABC
:10CD29000E296E75C02AF076C02BF0FF0E2D6E2CE1
:10CD390068000E2F6E000E2E6E010E306E780E10EA
:10CD4900EC6BF0ABEC62F045EC72F01200126E8005
:10CD59000E12603FD09F0E086401D03BD0FF0E0C2D
:10CD69006EFF0E0D6E095008C00EF00F6A0E2600F8
:10CD79000E0F220C500E260D500F220FBE0BD00F96
:10CD89005004E1A00E0E5CD8A005D008500008A000
:10CD99000F096E00D00B50106E0AC011F008C004C4
:10CDA900F012C005F0085009240C6E0C04066E122E
:10CDB90050DDEC64F08280829407D010508CEC62D4
:10CDC900F011508CEC62F000D009060928D8A4F5BE
:10CDD900D782841200126E800E12603FD09F0E0817
:10CDE9006401D03BD0FF0E0C6EFF0E0D6E09501280
:10CDF900C00EF00F6A0E26000E0F220C500E260DE3
:10CE0900500F220FBE0BD00F5004E1800E0E5CD8DC
:10CE1900A005D012500008800F096E00D00B5010E9
:10CE29006E0AC011F008C004F0125009240C6E0CEF
:10CE390004056E08C006F01250DDEC64F0828082B1
:10CE49009407D010508CEC62F011508CEC62F00019
:10CE5900D009060928D8A4F5D782841200838E75D3
:10CE6900C001F076C002F0FD0E036EFF0E046E5A8B
:10CE7900EC63F00A0E296E75C02AF076C02BF0FF1C
:10CE89000E2D6E2C68000E2F6E000E2E6E010E30C8
:10CE99006E780E10EC6BF07AEC62F0ABEC62F0831A
:10CEA9009E75C001F076C002F0FB0E036EFF0E0402
:10CEB9006E5AEC63F00A0E296E75C02AF076C02B03
:10CEC900F0FF0E2D6E2C68000E2F6E000E2E6E01D7
:10CED9000E306E780E10EC6BF054EC62F0ABEC6235
:10CEE900F045EC72F01200000E096E000E0A6E0099
:10CEF9000E0B6E000E0C6E0550061007100810D8A8
:10CF0900B42FD0010E0D6E07D0D89005360636071E
:10CF19003608360D2A00D008BE02D0F6D700D0D880
:10CF29009009360A360B360C360550015C0650025C
:10CF3900580750035808500458D8A00AD005500182
:10CF49005E0650025A0750035A0850045A098000D5
:10CF5900D0D89008320732063205320D2EE0D700BC
:10CF6900D009C001F00AC002F00BC003F00CC004E4
:10CF7900F0120003AE17D001C007F002C008F00399
:10CF8900C009F0071E081E091E072A000E082209FB
:10CF990022000E0724016E000E0820026E800E0981
:10CFA90020036E00D006AE17D004C007F005C008F4
:10CFB900F006C009F0071E081E091E072A000E0800
:10CFC900220922000E0724046E000E0820056E8037
:10CFD9000E0920066E00D0000E011A000E021A80FA
:10CFE9000E031A000E041A000E051A800E061A0402
:10CFF90050015C0550025806500358D8B002D0D8E9
:10D009009002D0D88000D01200000E0C6E0AAE0734
:10D01900D0096C0A1ED8B00A2A010E0C6E00D0087D
:10D02900AE07D0076C081ED8B0082A010E0C1A00EA
:10D03900D0000E0E6E000E0D6E09500A10D8B421E4
:10D04900D0010E0B6E05D0D89009360A360B2A008E
:10D05900D00ABE02D0F8D700D0D8900D360E3609C6
:10D0690050075C0A500858D8A006D00950075E0A34
:10D0790050085A0D8000D0D8900A3209320B2EEC94
:10D08900D700D00C50D8B405D00D6C0E1ED8B00EF8
:10D099002A00D00DC007F00EC008F000D0120058C9
:10D0A900EC62F096EC62F0A0EC62F0700ED36EF1D7
:10D0B9009E0BEC7BF000D0000E5DEC62F0D8EC62C8
:10D0C900F001C071F002C072F071C015F072C016A3
:10D0D900F073EC63F015C019F016C01AF017C01BF5
:10D0E900F0000E1C6E800E1D6E400E1E6E6DEC6CF7
:10D0F900F019C06BF01AC06CF01BC06DF06BC06EFC
:10D10900F06CC06FF06DC070F06EC02FF06FC03062
:10D11900F070C031F081EC6BF02FC073F030C07447
:10D12900F074BE06D0CA0E735C080E7458D8B004E9
:10D13900D0818ECAEC69F0BFD7819EA7EC68F0BB9D
:10D14900D700EF00F0000E0001B16F000EB06F8143
:10D159009E4E0E00019F6F010E96EC64F0010E3099
:10D16900EC64F0010E52EC64F0020E74EC64F00809
:10D179000E2BEC63F0030E74EC64F0030E2BEC63DE
:10D18900F0010E74EC64F080A810D0020E52EC6429
:10D19900F0060E2BEC63F0030E52EC64F0030E2B39
:10D1A900EC63F0010E52EC64F010D0020E30EC6426
:10D1B900F0060E2BEC63F0030E30EC64F0030E2B3B
:10D1C900EC63F0010E30EC64F000D080A410D002C2
:10D1D9000E96EC64F0080E2BEC63F0030E96EC64EB
:10D1E900F0030E2BEC63F0010E96EC64F004D00111
:10D1F9000E96EC64F000D012000450D8B405D001AA
:10D209005002100310D8A40ED0000E016E000E02B9
:10D219006E000E036E53D006D0042AD89003320252
:10D2290032013200D0000E0114066E000E021407FE
:10D239006EFE0E0314086E065007100810D8B40EBF
:10D24900D0EBD70CD0042A010E0126000E022200D1
:10D259000E0322D89003320232013200D0000E01AF
:10D2690014066E000E0214076EFF0E0314086E06F4
:10D279005007100810D8B408D0E5D706D00406D84E
:10D289009001360236033600D002BE04D0020E04E5
:10D2990060F5D700D004B002D0029E00D0D8900427
:10D2A90032045003120550D8B402D0038E00D001C5
:10D2B900C001F002C002F003C003F000D012003B2D
:10D2C9006E5BD03AC007F0086A000E0A6E0A0E09B2
:10D2D9006E09EC68F00750300F0001996F3AC001F0
:10D2E900F0026A000E046E0A0E036E29EC66F00164
:10D2F90050300F00019A6F5A0E296E990E2A6E004E
:10D309000E2B6E070E2D6E2C68000E2F6E000E2E42
:10D319006E020E306E020E10EC6BF036D03AC0077A
:10D32900F0086A000E0A6E0A0E096E09EC68F00729
:10D3390050300F00019C6F3AC001F0026A000E04E0
:10D349006E0A0E036E29EC66F00150300F00019D44
:10D359006F1E0E296E9C0E2A6E000E2B6E000E2D6E
:10D369006E1F0E2C6E000E2F6E000E2E6E020E30EA
:10D379006E020E10EC6BF008D03B50000AD8B4CE08
:10D38900D7010AD8B49ED700D01200000E0001B10F
:10D399006F010EB06F818E440E00019F6F010E96D2
:10D3A900EC64F0010E30EC64F0010E52EC64F00212
:10D3B9000E74EC64F080A205D0080E686E000E9120
:10D3C900EC63F0070E2BEC63F0030E74EC64F003CE
:10D3D9000E2BEC63F0010E74EC64F080A810D002FF
:10D3E9000E52EC64F0080E2BEC63F0030E52EC6461
:10D3F900F0030E2BEC63F0010E52EC64F000D00246
:10D409000E30EC64F080A606D0090E686E010E910C
:10D41900EC63F000D0020E30EC64F0090E2BEC63E3
:10D42900F0030E30EC64F0030E2BEC63F0010E30C8
:10D43900EC64F080A40DD0020E96EC64F0080E2B7B
:10D44900EC63F0030E96EC64F0030E2BEC63F00032
:10D45900D0010E96EC64F01200136E800E13606911
:10D46900D09F0E086401D065D0FF0E0D6EFF0E0E21
:10D479006E095013C00FF0106A0F26000E10220D0E
:10D48900500F260E50102210BE0AD0105004E18011
:10D499000E0F5CD8A004D013500008800F096EFF4E
:10D4A9000E0D6EFF0E0E6E0A5008C00FF0106A0FB7
:10D4B90026000E10220D500F260E50102210BE0B02
:10D4C900D0105004E1A00E0F5CD8A005D008500080
:10D4D90008A00F0A6E00D008C004F0135009240DEB
:10D4E9006E0D04056E08500A240E6E0E04066E13A6
:10D4F90050DDEC64F00C50116E0BC012F08280828A
:10D50900940AC008F00850D8B413D001D011D0093A
:10D51900C013F01350D8B40AD001D008D011508CE0
:10D52900EC62F012508CEC62F01306F3D70806EAAD
:10D53900D7828412001BC01FF0206A216A1A341F87
:10D549003601E320801F50266E2650D8A402D00E43
:10D55900D061D01EC01FF0206A216A1D341F360118
:10D56900E320801F50276E2750D8A407D0000E193A
:10D579006E000E1A6E000E1B6E4DD0000E236E004B
:10D589000E246E000E256E2750890F265E1BC027BC
:10D59900F01E50271A800E27161A8EFF0E1916FF35
:10D5A9000E1A16000E1B161D8EFF0E1C16FF0E1DE1
:10D5B90016000E1E16180E226E00D0D8902336249F
:10D5C9003625361C50195C1D501A581E501B58D848
:10D5D900A007D01C50195E1D501A5A1E501B5A2301
:10D5E90080D89019361A361B36222EE7D700D02359
:10D5F900C001F024C002F025C003F026C004F027C2
:10D60900C005F001EC69F001C019F002C01AF0037D
:10D61900C01BF000D01200356E35C039F029C03872
:10D62900F02AC001F02BC002F0AFEC63F001C03367
:10D63900F002C034F0000E376E000E366E56D00080
:10D64900018C510001D8B42CD03050050D3950311E
:10D659006E326AF3503126F450322232BE21D03272
:10D669005004E1810E315CD8A01BD0000E396E3018
:10D6790050070DF3503824030F386EA00E38640399
:10D68900D0A00E386E00D036502A24D96E37502BD0
:10D6990020DA6E200EDE18D8B425D002D023D000AF
:10D6A900D038C01EF036502A24D96E37502B20DAD4
:10D6B9006EDF501F6E2CC020F02DC021F02EC0222D
:10D6C900F02FC023F030C024F039501AEC6FF0303D
:10D6D90050060DF3503924396E800E396403D08019
:10D6E9000E396E00D0364A372A00D03350365C34B2
:10D6F900503758D8A0A4D7120031C033F0346A3556
:10D709006A3034333601E3348033503D6E3D50D8AE
:10D71900A402D039D063D0170E336E2FC034F03045
:10D72900C035F031C036F03328376E04D0D8903682
:10D739003235323432372EFAD73450386E308EFFC4
:10D749000E2F16FF0E3016000E31162F50396E307F
:10D75900503A6E31503B6E3C6A8E0E3D5E3DAE10C6
:10D76900D03D50800A8F0FD8B003D00DD037D000EC
:10D77900D0D8903C323B323A3239323D3EF9D71952
:10D78900D0170E3D6411D0000E2F6E000E306E00C2
:10D799000E316E000E326E22D007D0D89039363A4B
:10D7A900363B363C363D0600D03D50D8B402D0F564
:10D7B900D700D03850D8B409D03C1E3B1E3A1E3988
:10D7C9006C000E3A223B223C2200D039C02FF03A9D
:10D7D900C030F03BC031F03CC032F000D01200E064
:10D7E9000E6AEC62F0020E72EC62F01C0E72EC62D0
:10D7F900F0070E72EC62F0120E72EC62F0370E72E4
:10D80900EC62F0320E72EC62F0290E72EC62F02DCD
:10D819000E72EC62F0290E72EC62F0250E72EC6267
:10D82900F02B0E72EC62F0390E72EC62F0000E729F
:10D83900EC62F0010E72EC62F0030E72EC62F01011
:10D849000E72EC62F0E10E6AEC62F0030E72EC62A9
:10D85900F01D0E72EC62F0070E72EC62F0060E72A9
:10D86900EC62F02E0E72EC62F02C0E72EC62F02972
:10D879000E72EC62F02D0E72EC62F02E0E72EC62FA
:10D88900F02E0E72EC62F0370E72EC62F03F0E72FF
:10D89900EC62F0000E72EC62F0000E72EC62F002C3
:10D8A9000E72EC62F0100E72EC62F0130E6AEC620A
:10D8B900F0000E166E0A0E156E2DEC65F0290E6A33
:10D8C900EC62F0000E166E640E156E2DEC65F0120A
:10D8D900001BC01FF0206A216A1A341F3601E32099
:10D8E900801F50226E2250D8A402D00ED06CD01EB8
:10D8F900C01FF0206A216A1D341F3601E320801FF2
:10D9090050276E2750D8A407D0000E196E000E1AA2
:10D919006E000E1B6E58D027507B0F22261BC02786
:10D92900F01E50271A800E27161A8E1D8EFF0E1C08
:10D9390016FF0E1D16000E1E16000E236E000E2475
:10D949006E000E256E070E266E00D019A007D01C9A
:10D959005023261D5024221E50252200D0D8901B6A
:10D96900321A321932D8901C361D361E36262EED43
:10D97900D700D0090E266E00D019A007D01C50235D
:10D98900261D5024221E50252200D0D8901B321A61
:10D99900321932D890253224322332262EEDD7007F
:10D9A900D023C001F024C002F025C003F022C00436
:10D9B900F027C005F001EC69F001C019F002C01AA6
:10D9C900F003C01BF000D01200033404340C6E0CB9
:10D9D90050D8A402D061D07CD0063407340B6E0B2A
:10D9E90050D8A402D059D074D0038EFF0E0116FF6F
:10D9F9000E0216FF0E0316000E0416068EFF0E0405
:10DA090016FF0E0516FF0E0616000E0716000E0766
:10DA19006E000E086E000E096E000E0A6E7F0E0C67
:10DA29005E0B50A00F0C5E200E0B6E00D0D8900735
:10DA390036083609360A360450015C055002580684
:10DA490050035807500458D8A00AD00450015E0565
:10DA590050025A0650035A0750045A078000D0D87A
:10DA69009001360236033604360B2EE0D700D00C6F
:10DA7900AE10D00C50800A9F0FD8B003D00DD0281B
:10DA8900D000D0D8900A320932083207320C3EF958
:10DA9900D717D01F0E0C6411D0000E016E000E02B4
:10DAA9006E000E036E000E046E13D007D0D89007D7
:10DAB90036083609360A360C0600D00C50D8A4F6BA
:10DAC900D707C001F008C002F009C003F00AC0047A
:10DAD900F0120003C007F0086A096A023407360128
:10DAE900E3088007500F6E0F50D8A402D05DD0789C
:10DAF900D006C007F0086A096A0534073601E30849
:10DB09008007500E6E0E50D8A402D04ED069D002B4
:10DB19008EFF0E0116FF0E0216000E0316058EFF6C
:10DB29000E0416FF0E0516000E0616000E0A6E00EC
:10DB39000E0B6E000E0C6E000E0D6E7F0E0F5E0E3C
:10DB490050980F0F5E180E0E6ED8900A360B360CD1
:10DB5900360D360450015C0550025806500358D85A
:10DB6900A007D00450015E0550025A0650035A0A14
:10DB790080D8900136023603360E2EE6D700D00F34
:10DB8900AE10D00F50800A970FD8B003D00DD0280F
:10DB9900D000D0D8900D320C320B320A320F3EF938
:10DBA900D717D0170E0F6411D0000E016E000E02A8
:10DBB9006E000E036E000E046E13D007D0D8900AC3
:10DBC900360B360C360D360F0600D00F50D8A4F69A
:10DBD900D70AC001F00BC002F00CC003F00DC0045D
:10DBE900F01200010E6AEC62F0000E166E960E1528
:10DBF9006E2DEC65F0110E6AEC62F0010E166EF4F2
:10DC09000E156E2DEC65F0B10E6AEC62F0010E7224
:10DC1900EC62F02C0E72EC62F02D0E72EC62F0B236
:10DC29000E6AEC62F0010E72EC62F02C0E72EC627C
:10DC3900F02D0E72EC62F0B30E6AEC62F0010E7216
:10DC4900EC62F02C0E72EC62F02D0E72EC62F001B7
:10DC59000E72EC62F02C0E72EC62F02D0E72EC6218
:10DC6900F0B40E6AEC62F0070E72EC62F0C00E6A54
:10DC7900EC62F0A20E72EC62F0020E72EC62F084B9
:10DC89000E72EC62F0C10E6AEC62F0C50E72EC62C3
:10DC9900F0C20E6AEC62F00A0E72EC62F0000E72CB
:10DCA900EC62F0C30E6AEC62F08A0E72EC62F02A42
:10DCB9000E72EC62F0C40E6AEC62F08A0E72EC62CB
:10DCC900F0EE0E72EC62F0C50E6AEC62F00E0E72A6
:10DCD900EC62F0200E6AEC62F0360E6AEC62F0C873
:10DCE9000E72EC62F03A0E6AEC62F0050E72EC62AA
:10DCF900F0120017C01FF018C020F01F1E201E1FB1
:10DD09004A202A010E1F24256E000E2020266E00AF
:10DD19000E226E010E216E17C01FF018C020F0D818
:10DD2900901F3620361F1E201E1F4A202A1FC0237F
:10DD3900F020C024F0000E286E000E276E17C029AF
:10DD4900F018C02AF067D026BE0BD02906D8A02A21
:10DD590006020E2326000E242223502526245026AF
:10DD690022274A282A020E2126000E222221502586
:10DD7900262250262219A025D0295000081524084A
:10DD89006E295029241B241F6E1F28096E1DC00AE5
:10DD9900F01EC00BF013502724ABEC66F02750009F
:10DDA900081524086E275027241B241F6E1F2809D5
:10DDB9006E1DC00AF01EC00BF013502924ABEC668F
:10DDC900F000D019A227D0295000081524086E297F
:10DDD9005029241B241F6E1F28096E1DC00AF01E1E
:10DDE900C00BF0275000081324ABEC66F027500055
:10DDF900081524086E275027241B241F6E1F280985
:10DE09006E1DC00AF01EC00BF0295000081324AB88
:10DE1900EC66F000D02950275C2850800A1F6E2A32
:10DE290050800A1F58D8A08FD71200266E800E2660
:10DE390060A6D09F0E1E6401D0A2D02450D8A4039E
:10DE4900D0010E246E00D01F0E1F6404D07E0E1F59
:10DE59006403D000D03F0E1F6E000E286E040E28FA
:10DE69006401D08DD0530E1F6015D0E00E1F240F12
:10DE79006E106AFF0E1022000E126E050E116EEB67
:10DE8900EC62F028500F26000E1022350E0F24F6F2
:10DE99006EFD0E14D0AD0E1F240F6E106AFF0E100A
:10DEA90022000E126E050E116EEBEC62F028500F77
:10DEB90026000E1022340E0F24F66EFE0E1020F7E7
:10DEC9006E0800F5CF25F000D0000E276E060E274C
:10DED9006401D053D025A023D02404D8A40CD01E8B
:10DEE900502724086E20C009F021C00AF0265028C6
:10DEF9002442EC63F03ED027502402F3501E241331
:10DF09006E24C014F024C015F020C016F021C017EB
:10DF1900F028502402F3502624B8EC64F02AD020CB
:10DF290050221804E121502318D8B423D02404D84E
:10DF3900A40CD01E502724086E22C009F023C00A61
:10DF4900F02650282442EC63F014D027502402F321
:10DF5900501E24136E24C014F024C015F022C016DC
:10DF6900F023C017F028502402F3502624B8EC649B
:10DF7900F000D0272AD8902532A9D7282A6FD7129E
:10DF8900003B6EB6D03AC007F0086A000E0A6E0A66
:10DF99000E096E09EC68F00750300F0001966F3AD0
:10DFA900C001F0026A000E046E0A0E036E29EC66C7
:10DFB900F00150300F0001976F1E0E296E960E2A40
:10DFC9006E000E2B6E000E2D6E1F0E2C6E000E2F86
:10DFD9006E000E2E6E020E306E640E10EC6BF09613
:10DFE900D03AC007F0086A000E0A6E0A0E096E09D7
:10DFF900EC68F00750300F0001936F3AC001F0024E
:10E009006A000E046E0A0E036E29EC66F0015030A8
:10E019000F0001946F3C0E296E930E2A6E000E2B91
:10E029006EF80E2D6E1F0E2C6E000E2F6E000E2E2A
:10E039006E020E306E640E10EC6BF068D03AC007B9
:10E04900F0086A000E0A6E0A0E096E09EC68F007FC
:10E0590050300F0001906F3AC001F0026A000E04BF
:10E069006E0A0E036E29EC66F00150300F00019123
:10E079006F5A0E296E900E2A6E000E2B6E070E2D0A
:10E089006E2C68000E2F6E000E2E6E020E306E641E
:10E099000E10EC6BF03BD03AC007F0086A000E0A8C
:10E0A9006E0A0E096E09EC68F00750300F00018DF9
:10E0B9006F3AC001F0026A000E046E0A0E036E295F
:10E0C900EC66F00150300F00018E6F780E296E8DCD
:10E0D9000E2A6E000E2B6EFF0E2D6E2C68000E2F71
:10E0E9006E000E2E6E020E306E640E10EC6BF00E8A
:10E0F900D03B50000AD8B446D7010AD8B471D70327
:10E109000AD8B49CD7010AD8B4C6D700D0120010D7
:10E11900C014F011C015F0141E151E144A152A0159
:10E129000E14241A6E000E15201B6E000E176E01B8
:10E139000E166E10C014F011C015F0D890143615D3
:10E1490036141E151E144A152A14C018F015C019C4
:10E15900F0000E1D6E000E1C6E10C01EF011C01FC7
:10E16900F00E501024086E12C009F013C00AF00C0A
:10E179005042EC63F0105000080E24086E12C009DA
:10E18900F013C00AF00C5042EC63F00EC008F01214
:10E19900C009F013C00AF00C50102442EC63F00ED1
:10E1A900C008F012C009F013C00AF0105000080CA2
:10E1B9002442EC63F078D01BBE0BD01E06D8A01FFA
:10E1C90006020E1826000E192218501A2619501B7D
:10E1D900221C4A1D2A020E1626000E172216501A54
:10E1E9002617501B220E501E24086E12C009F01368
:10E1F900C00AF00C501C2442EC63F00E501E240897
:10E209006E12C009F013C00AF01C5000080C244219
:10E21900EC63F01E5000080E24086E12C009F013BA
:10E22900C00AF00C501C2442EC63F01E5000080E8A
:10E2390024086E12C009F013C00AF01C5000080C23
:10E249002442EC63F00E501C24086E12C009F0132E
:10E25900C00AF00C501E2442EC63F00E501C240836
:10E269006E12C009F013C00AF01E5000080C2442B7
:10E27900EC63F01C5000080E24086E12C009F0135C
:10E28900C00AF00C501E2442EC63F01C5000080E2A
:10E2990024086E12C009F013C00AF01E5000080CC1
:10E2A9002442EC63F000D01E501C5C1D50800A14FF
:10E2B9006E1F50800A1458D8A07ED7120034C03877
:10E2C900F0396A3A6A3334383601E3398038503DD7
:10E2D9006E37C038F0396A3A6A3634383601E3396C
:10E2E9008038503C6E3D50D8B40BD03C503D5CD882
:10E2F900B00ED03D5000083C24386E180E38640723
:10E30900D035C032F036C033F037C034F0B8D03C25
:10E3190050D8B40BD03D503C5CD8B00ED03C500026
:10E32900083D24386E180E386407D032C032F033F5
:10E33900C033F034C034F0A3D0060E3B6E34AE02C5
:10E34900D03B8E00D037BE3B8C338EFF0E3216FF8A
:10E359000E3316000E3416368EFF0E3516FF0E36A6
:10E3690016000E37163C503D5CD8B01ED0D89035FB
:10E3790036363637363C063D503C18D8B40FD03BBC
:10E38900063BC038F0070E3816D8B408D0EFD706C8
:10E39900D0D8903432333232323D2A00D03C503D0D
:10E3A90018D8B424D0F5D722D03D503C5CD8B01E43
:10E3B900D0D8903236333634363D063D503C18D8E5
:10E3C900B40FD03B063BC038F0070E3816D8B40856
:10E3D900D0EFD706D0D8903732363235323C2A00C2
:10E3E900D03C503D18D8B402D0F5D700D03BAE0C84
:10E3F900D0FF0E321AFF0E331AFF0E341A010E32F5
:10E4090026000E3322000E34223BAC0DD0FF0E3510
:10E419001AFF0E361AFF0E371A010E3526000E3670
:10E4290022000E372200D0000E3B6E3250352633C3
:10E439005036223450372237AE0FD0FF0E351AFF2F
:10E449000E361AFF0E371A010E3526000E36220037
:10E459000E3722010E3B6E00D035C001F036C002E6
:10E46900F037C003F03DC004F03BC005F001EC6992
:10E47900F001C032F002C033F003C034F000D01212
:10E4890000D8EC62F001C066F002C067F066C00F08
:10E49900F067C010F0000E126E050E116EEBEC6203
:10E4A900F00FC015F010C016F073EC63F015C01929
:10E4B900F016C01AF017C01BF0000E1C6E800E1D5E
:10E4C9006E440E1E6E9FEC6AF019C0ADF01AC0AE14
:10E4D900F01BC0AFF0ADC001F0AEC002F0AFC00399
:10E4E900F0000E046E100E056E400E066EBEEC674F
:10E4F900F0D8B002D0010E01D0000E796EB10E44F1
:10E509006EFF0E456EADC046F0AEC047F0AFC048D5
:10E51900F0F8EC77F0000E80B6010E786E000E80F0
:10E52900B8010E776E000E80B2010E7B6E000E8070
:10E53900B4010E7A6E7950D8A402D04E0E01D0449F
:10E549000E0001A76F7850D8A402D0300E01D03147
:10E559000E0001A56F7750D8A402D0300E01D0313A
:10E569000E0001A36F7B50D8A402D0300E01D03128
:10E579000E0001AB6F7A50D8A402D0300E01D03111
:10E589000E0001A96F00D00A0E296E9F0E2A6E0097
:10E599000E2B6EFF0E2D6E2C68000E2F6E000E2EA8
:10E5A9006E010E306E230E10EC6BF0950E296EA5E0
:10E5B9000E2A6E000E2B6EFF0E2D6E2C68000E2F8C
:10E5C9006E000E2E6E010E306E060E10EC6BF0957D
:10E5D9000E296EA30E2A6E000E2B6EFF0E2D6E2CC9
:10E5E90068000E2F6E000E2E6E010E306E200E107A
:10E5F900EC6BF0950E296EAB0E2A6E000E2B6EFF9A
:10E609000E2D6E2C68000E2F6E000E2E6E010E3030
:10E619006E3A0E10EC6BF0950E296EA90E2A6E005B
:10E629000E2B6EFF0E2D6E2C68000E2F6E000E2E17
:10E639006E010E306E570E10EC6BF0950E296EA719
:10E649000E2A6E000E2B6EFF0E2D6E2C68000E2FFB
:10E659006E000E2E6E010E306E700E10EC6BF01205
:10E6690000316E6D0E31649BD0000E126E030E11D7
:10E679006E000E0A6E0A0E096E000E046E640E0319
:10E689006E31C001F0026A29EC66F001C007F002A0
:10E69900C008F009EC68F0090E07240F6E000E0897
:10E6A90020106EEBEC62F0380E0F24F66EFF0E10A0
:10E6B90020F76E0900F5CF1CF00900F5CF1DF00A0F
:10E6C90000F5CF1EF0000E0A6E640E096E31C00708
:10E6D900F0086A09EC68F0120E07240F6E000E08A4
:10E6E90020106E000E126E030E116EEBEC62F03804
:10E6F9000E0F24F66EFF0E1020F76E0900F5CF19E4
:10E70900F00900F5CF1AF00A00F5CF1BF06DEC6C9B
:10E71900F019C02EF01AC02FF01BC030F0000E12F5
:10E729006E030E116E000E046E0A0E036E31C001E7
:10E73900F0026A29EC66F001C00FF002C010F0EB9C
:10E74900EC62F0380E0F24F66EFF0E1020F76E09FA
:10E7590000F5CF1CF00900F5CF1DF00A00F5CF1E1A
:10E76900F02EC019F02FC01AF030C01BF06DEC6C00
:10E77900F019C02BF01AC02CF01BC02DF02BC019BA
:10E78900F02CC01AF02DC01BF0000E1C6E000E1DDF
:10E799006E3F0E1E6E6DEC6CF07DD083D062D00A98
:10E7A9000E31645FD0000E126E030E116E000E045E
:10E7B9006E0A0E036E31C001F0026A29EC66F0019F
:10E7C900C00FF002C010F0EBEC62F0380E0F24F627
:10E7D9006EFF0E1020F76E0900F5CF1CF00900F549
:10E7E900CF1DF00A00F5CF1EF0000E0A6E0A0E09C1
:10E7F9006E31C007F0086A09EC68F0090E07240FAA
:10E809006E000E0820106E000E126E030E116EEBD4
:10E81900EC62F0380E0F24F66EFF0E1020F76E0929
:10E8290000F5CF19F00900F5CF1AF00A00F5CF1B52
:10E83900F06DEC6CF019C02EF01AC02FF01BC0302F
:10E84900F02EC019F02FC01AF030C01BF0000E1CBA
:10E859006E000E1D6E3F0E1E6E6DEC6CF01BD0210E
:10E86900D000D03150030D380EF324F66EFF0EF4AC
:10E8790020F76E0900F5CF19F00900F5CF1AF00A53
:10E8890000F5CF1BF0000E1C6E000E1D6E3F0E1E14
:10E899006E6DEC6CF019C028F01AC029F01BC02A63
:10E8A900F000D01200346E34501E0DF350230F3592
:10E8B9006E3350D8A467D0000E2C6E280E2B6E35FF
:10E8C900C02DF02E6A000E306E070E2F6E000E322C
:10E8D9006E000E316E04EC65F0000E2C6E3C0E2BB2
:10E8E9006E35C02DF02E6A000E306E070E2F6E00A9
:10E8F9000E326E000E316E04EC65F0000E2C6E5077
:10E909000E2B6E35C02DF02E6A000E306E070E2FBD
:10E919006E000E326E000E316E04EC65F0000E0DC5
:10E929006E280E0C6E35C00EF00F6A000E116E07C0
:10E939000E106EF80E136E000E126E8CEC70F00055
:10E949000E0D6E3C0E0C6E35C00EF00F6A000E11E6
:10E959006E070E106EFF0E136EE00E126E8CEC70C9
:10E96900F0000E0D6E500E0C6E35C00EF00F6A00E1
:10E979000E116E070E106E070E136EE00E126E8CDE
:10E98900EC70F000D03304D8A467D0000E2C6E28A8
:10E999000E2B6E35C02DF02E6A000E306E070E2F2D
:10E9A9006EF80E326E000E316E04EC65F0000E2C1E
:10E9B9006E3C0E2B6E35C02DF02E6A000E306E07A0
:10E9C9000E2F6E000E326E000E316E04EC65F000F3
:10E9D9000E2C6E500E2B6E35C02DF02E6A000E30A7
:10E9E9006E070E2F6E000E326E000E316E04EC654E
:10E9F900F0000E0D6E280E0C6E35C00EF00F6A0079
:10EA09000E116E070E106EF80E136E000E126E8C3C
:10EA1900EC70F0000E0D6E3C0E0C6E35C00EF00F52
:10EA29006A000E116E070E106EFF0E136EE00E12C5
:10EA39006E8CEC70F0000E0D6E500E0C6E35C00E23
:10EA4900F00F6A000E116E070E106E070E136EE0BE
:10EA59000E126E8CEC70F000D0030E3318D8A46738
:10EA6900D0000E2C6E280E2B6E35C02DF02E6A00AC
:10EA79000E306E070E2F6E000E326E000E316E04D0
:10EA8900EC65F0000E2C6E3C0E2B6E35C02DF02E71
:10EA99006A000E306E070E2F6EFF0E326EE00E31D9
:10EAA9006E04EC65F0000E2C6E500E2B6E35C02DE9
:10EAB900F02E6A000E306E070E2F6E000E326E00B9
:10EAC9000E316E04EC65F0000E0D6E280E0C6E35DD
:10EAD900C00EF00F6A000E116E070E106EF80E13BD
:10EAE9006E000E126E8CEC70F0000E0D6E3C0E0C6A
:10EAF9006E35C00EF00F6A000E116E070E106EFF14
:10EB09000E136EE00E126E8CEC70F0000E0D6E504E
:10EB19000E0C6E35C00EF00F6A000E116E070E1046
:10EB29006E070E136EE00E126E8CEC70F000D002C0
:10EB39000E3318D8A467D0000E2C6E280E2B6E3514
:10EB4900C02DF02E6A000E306E070E2F6E000E32A9
:10EB59006E000E316E04EC65F0000E2C6E3C0E2B2F
:10EB69006E35C02DF02E6A000E306E070E2F6E0026
:10EB79000E326E000E316E04EC65F0000E2C6E50F4
:10EB89000E2B6E35C02DF02E6A000E306E070E2F3B
:10EB99006E070E326EE00E316E04EC65F0000E0D5C
:10EBA9006E280E0C6E35C00EF00F6A000E116E073E
:10EBB9000E106EF80E136E000E126E8CEC70F000D3
:10EBC9000E0D6E3C0E0C6E35C00EF00F6A000E1164
:10EBD9006E070E106EFF0E136EE00E126E8CEC7047
:10EBE900F0000E0D6E500E0C6E35C00EF00F6A005F
:10EBF9000E116E070E106E070E136EE00E126E8C5C
:10EC0900EC70F000D012002E6E2EAEEFD02E6C2ECE
:10EC190050800A120FD8A08DD0000E126E030E116B
:10EC29006E000E0A6E0A0E096E000E046E640E0363
:10EC39006E2E50016E026A01BE020629EC66F001D1
:10EC4900C007F002C008F009EC68F0090E07240FAC
:10EC59006E000E0820106EEBEC62F0380E0F24F6F1
:10EC69006EFF0E1020F76E0900F5CF1CF00900F5B4
:10EC7900CF1DF00A00F5CF1EF0000E0A6E640E09D2
:10EC89006E2E50076E086A07BE080609EC68F01276
:10EC99000E07240F6E000E0820106E000E126E0370
:10ECA9000E116EEBEC62F0380E0F24F66EFF0E10AB
:10ECB90020F76E0900F5CF19F00900F5CF1AF00A0F
:10ECC90000F5CF1BF06DEC6CF019C02BF01AC02CBD
:10ECD900F01BC02DF02BC019F02CC01AF02DC01B51
:10ECE900F0000E126E030E116E000E046E0A0E0372
:10ECF9006E2E50016E026A01BE020629EC66F00111
:10ED0900C00FF002C010F0EBEC62F0380E0F24F6E1
:10ED19006EFF0E1020F76E0900F5CF1CF00900F503
:10ED2900CF1DF00A00F5CF1EF06DEC6CF041D15A01
:10ED3900D154D02E50800A750FD8A04FD0000E0A9A
:10ED49006E0A0E096E2E50076E086A07BE0806097C
:10ED5900EC68F0090E07240F6E000E0820106E00F3
:10ED69000E126E030E116EEBEC62F0380E0F24F6E4
:10ED79006EFF0E1020F76E0900F5CF19F00900F5A6
:10ED8900CF1AF00A00F5CF1BF0000E126E030E1118
:10ED99006E000E046E0A0E036E2E50016E026A0199
:10EDA900BE020629EC66F001C00FF002C010F0EBBC
:10EDB900EC62F0380E0F24F66EFF0E1020F76E0984
:10EDC90000F5CF1CF00900F5CF1DF00A00F5CF1EA4
:10EDD900F06DEC6CF0EDD006D100D02E50030D385B
:10EDE9000EF324F66EFF0EF2D0FDD02E50800A12DB
:10EDF9000FD8A08DD0000E126E030E116E000E0AF0
:10EE09006E0A0E096E000E046E640E036E2E50011A
:10EE19006E026A01BE020629EC66F001C007F00223
:10EE2900C008F009EC68F0090E07240F6E000E08FF
:10EE390020106EEBEC62F05F0E0F24F66EFF0E10E1
:10EE490020F76E0900F5CF1CF00900F5CF1DF00A77
:10EE590000F5CF1EF0000E0A6E640E096E2E5007E3
:10EE69006E086A07BE080609EC68F0120E07240F3F
:10EE79006E000E0820106E000E126E030E116EEB5E
:10EE8900EC62F05F0E0F24F66EFF0E1020F76E098C
:10EE990000F5CF19F00900F5CF1AF00A00F5CF1BDC
:10EEA900F06DEC6CF019C02BF01AC02CF01BC02DC2
:10EEB900F02BC019F02CC01AF02DC01BF0000E1257
:10EEC9006E030E116E000E046E0A0E036E2E5001B3
:10EED9006E026A01BE020629EC66F001C00FF0025B
:10EEE900C010F0EBEC62F05F0E0F24F66EFF0E100F
:10EEF90020F76E0900F5CF1CF00900F5CF1DF00AC7
:10EF090000F5CF1EF06DEC6CF053D06CD059D02EBB
:10EF190050800A750FD8A054D0000E0A6E0A0E0947
:10EF29006E2E50076E086A07BE080609EC68F009DC
:10EF39000E07240F6E000E0820106E000E126E03CD
:10EF49000E116EEBEC62F05F0E0F24F66EFF0E10E1
:10EF590020F76E0900F5CF19F00900F5CF1AF00A6C
:10EF690000F5CF1BF0000E126E030E116E000E0499
:10EF79006E0A0E036E2E50016E026A01BE02062948
:10EF8900EC66F001C00FF002C010F0EBEC62F05F2C
:10EF99000E0F24F66EFF0E1020F76E0900F5CF1C38
:10EFA900F00900F5CF1DF00A00F5CF1EF06DEC6CED
:10EFB900F019C028F01AC029F01BC02AF013D0009C
:10EFC900D02E50030D5F0EF324F66EFF0EF420F7DA
:10EFD9006E0900F5CF28F00900F5CF29F00A00F5F0
:10EFE900CF2AF000D01200460E526E000E536EFF6B
:10EFF900D2250E6518D8B404D0655063EC62F0F7D9
:10F00900D2000E556E000E546E05D0FFD2558413F2
:10F01900D0EED211D044C0F6FF45C0F7FF444A45AF
:10F029002A0800F5CF65F06550000AD8B4EED2661B
:10F039000AD8B4ECD7DCD2070E5514D8B4CAD2001A
:10F049000E576E060E566E52C0D9FF53C0DAFFDE58
:10F05900CF62F0DECF63F0DDCF64F0030E522600FD
:10F069000E532264AE11D062C001F063C002F06495
:10F07900C003F0C6EC62F001C062F002C063F003A5
:10F08900C064F0030E541200D0000E5D6E000E5CD9
:10F099006E625063106410D8B485D0820E496EFF39
:10F0A9000E4A6E62C04BF063C04CF064C04DF0650F
:10F0B900C04EF0100E05D0D8904E324D324C324B26
:10F0C90032E82EF9D74B5049245C6E000E4A205D78
:10F0D9006E5C06D8A05D065CC00FF05DC010F00044
:10F0E9000E126E030E116EEBEC62F00FC05CF010A5
:10F0F900C05DF05CC007F05DC008F0000E0A6E0A42
:10F109000E096E09EC68F007C05CF008C05DF05D9F
:10F11900AE04D05C06D8A05D0600D05C500008089B
:10F12900EC76F028C05EF029C05FF02AC060F05E7E
:10F13900C019F05FC01AF060C01BF062C01CF06318
:10F14900C01DF064C01EF06DEC6CF019C05EF01AC1
:10F15900C05FF01BC060F05EC001F05FC002F060EC
:10F16900C003F0000E046E800E056E3F0E066EBEE3
:10F17900EC67F0D8B004D05C06D8A05D0613D05E69
:10F18900C001F05FC002F060C003F0000E046E2001
:10F199000E056E410E066EBEEC67F0D8A003D05C7A
:10F1A9004A5D2A00D057BE06D057501CE10D0E56B5
:10F1B9005CD8B018D062C032F063C033F064C03498
:10F1C900F0565035EC73F028C035F029C036F02AD6
:10F1D900C037F063EC71F032C062F033C063F034D1
:10F1E900C064F000D05DBE06D05D5020E10A0E5C1F
:10F1F9005CD8B01CD0625063106410D8B46DD06272
:10F20900C02FF063C030F064C031F081EC6BF02F97
:10F2190050301031103210D8B45DBE5ED05D50064A
:10F22900E1020E5C5CD8B002D057D000D05EC001BC
:10F23900F05FC002F060C003F0700E046E890E0525
:10F249006E400E066EBEEC67F0D8B002D0F70E0124
:10F25900D0F80E5C26FF0E5D2200D05C5008EC76DB
:10F26900F028C05EF029C05FF02AC060F017D062B4
:10F27900C001F063C002F064C003F05EC004F05F37
:10F28900C005F060C006F0E9EC6CF001C058F0026E
:10F29900C059F003C05AF004C05BF017D062C00136
:10F2A900F063C002F064C003F05EC004F05FC00503
:10F2B900F060C006F06EEC6DF001C058F002C05964
:10F2C900F003C05AF004C05BF000D0000E626E007B
:10F2D9000E636E000E646E33D062C02FF063C030CF
:10F2E900F064C031F081EC6BF02FC058F030C05998
:10F2F900F031C05AF032C05BF062C03EF063C03FEB
:10F30900F064C040F058C009F059C00AF05AC00B67
:10F31900F05BC00CF056EC65F009C041F00AC04240
:10F32900F00BC043F00EEC64F03EC062F03FC063E6
:10F33900F040C064F0000E5D6E000E5C6E00D001FE
:10F349000E656E0A0E6518D8B41CD001D01AD065A6
:10F3590050040D100EF324F66EFF0EF420F76E091B
:10F3690000F550585C0900F55059580900F5505AF4
:10F37900580900F5505B58D8A004D001D002D065D7
:10F389002AE0D7030E5414496E000E55144A6E49EB
:10F39900504A10D8B449D02D0E63EC62F045D058CC
:10F3A900C001F059C002F05AC003F05BC004F06517
:10F3B90050040D100EF324F66EFF0EF420F76E09BB
:10F3C90000F5CF05F00900F5CF06F00900F5CF07E4
:10F3D900F00A00F5CF08F078EC67F001C05EF002A2
:10F3E900C05FF003C060F004C061F05EC001F05F6F
:10F3F900C002F060C003F061C004F00A0E056E009F
:10F409000E066E000E076E000E086EB9EC65F0016F
:10F41900C05EF002C05FF003C060F004C061F05E3E
:10F4290050300F63EC62F000D065066528D8B40946
:10F43900D0B6D707D0300E63EC62F05C06D8A05D79
:10F449000600D05DBE05D05D50F5E15C04D8B0F290
:10F45900D757BE09D0575004E1090E565CD8A0030E
:10F46900D0080E656E03D056C065F000D0655056C1
:10F479005E000E65BEFF0E575A6550D8B404D02EF3
:10F489000E63EC62F000D0655008EC76F028C04FAE
:10F49900F029C050F02AC051F062C01CF063C01DB1
:10F4A900F064C01EF04FC019F050C01AF051C01BD3
:10F4B900F06DEC6CF019C02FF01AC030F01BC031A0
:10F4C900F081EC6BF02FC058F030C059F031C05AC0
:10F4D900F032C05BF06BD058C001F059C002F05A4D
:10F4E900C003F05BC004F06550040D100EF324F660
:10F4F9006EFF0EF420F76E0900F5CF05F00900F54F
:10F50900CF06F00900F5CF07F00A00F5CF08F0782B
:10F51900EC67F001C05EF002C05FF003C060F00468
:10F52900C061F05EC001F05FC002F060C003F0612D
:10F53900C004F00A0E056E000E066E000E076E007E
:10F549000E086EB9EC65F001C05EF002C05FF00311
:10F55900C060F004C061F05E50300F63EC62F05897
:10F56900C001F059C002F05AC003F05BC004F06555
:10F5790050040D100EF324F66EFF0EF420F76E09F9
:10F5890000F5CF05F00900F5CF06F00900F5CF0722
:10F59900F00A00F5CF08F0B9EC65F001C058F002A7
:10F5A900C059F003C05AF004C05BF000D06506658D
:10F5B90028D8B409D090D707D0300E63EC62F05642
:10F5C90006D8A0570600D056505710D8B410D0F41A
:10F5D900D70ED0030E5414496E000E55144A6E49C5
:10F5E900504A10D8B404D02D0E63EC62F000D04418
:10F5F900C0F6FF45C0F7FF444A452A0800F5CF6524
:10F60900F06550D8B402D0F4D400D0120083EC6273
:10F61900F0FFEC62F0000E156E000E146EB8EC628D
:10F62900F0B90E756E000E766E75C001F076C002E7
:10F63900F0860E036EFF0E046E5AEC63F0020E297B
:10F649006E75C02AF076C02BF0FF0E2D6E2C680067
:10F659000E2F6E000E2E6E010E306E020E10EC6B28
:10F66900F075C001F076C002F0E50E036EFF0E04DE
:10F679006E5AEC63F00A0E296E75C02AF076C02B1B
:10F68900F0FF0E2D6E2C68000E2F6E000E2E6E01EF
:10F699000E306E020E10EC6BF00A0E296E9F0E2AC8
:10F6A9006E000E2B6EFF0E2D6E2C68000E2F6E0055
:10F6B9000E2E6E010E306E230E10EC6BF075C0012C
:10F6C900F076C002F0EB0E036EFF0E046E5AEC6387
:10F6D900F00A0E296E75C02AF076C02BF0FF0E2DA8
:10F6E9006E2C68000E2F6E000E2E6E010E306E32DB
:10F6F9000E10EC6BF00A0E296EA10E2A6E000E2B6D
:10F709006EFF0E2D6E2C68000E2F6E000E2E6E01F0
:10F719000E306E460E10EC6BF075C001F076C0022B
:10F72900F0EF0E036EFF0E046E5AEC63F00A0E2919
:10F739006E75C02AF076C02BF0FF0E2D6E2C680076
:10F749000E2F6E000E2E6E010E306E500E10EC6BE9
:10F75900F00A0E296EA10E2A6E000E2B6EFF0E2DD9
:10F769006E2C68000E2F6E000E2E6E010E306E6428
:10F779000E10EC6BF075C001F076C002F0FD0E03BF
:10F789006EFF0E046E5AEC63F00A0E296E75C02ADC
:10F79900F076C02BF0FF0E2D6E2C68000E2F6E0038
:10F7A9000E2E6E010E306E780E10EC6BF075C001E6
:10F7B900F076C002F0C10E036EFF0E046E5AEC63C0
:10F7C900F0140E296E75C02AF076C02BF0000E2DAC
:10F7D9006E1F0E2C6E000E2F6E000E2E6E010E3057
:10F7E9006E1E0E10EC6BF0000E146E1E0E136E00E2
:10F7F9000E166E1B0E156E000E186E3C0E176E005F
:10F809000E1A6E120E196E000E1C6E1F0E1B6E86DE
:10F81900EC65F0000E0D6E280E0C6E000E0F6E23B7
:10F829000E0E6E000E116E070E106EF80E136E009E
:10F839000E126E8CEC70F0000E0D6E3C0E0C6E000C
:10F849000E0F6E230E0E6E000E116E070E106EFF58
:10F859000E136EE00E126E8CEC70F0000E2C6E50D2
:10F869000E2B6E000E2E6E230E2D6E000E306E07BF
:10F879000E2F6E070E326EE00E316E04EC65F01E2F
:10F889000E296E960E2A6E000E2B6E000E2D6E1F1F
:10F899000E2C6E000E2F6E000E2E6E020E306E6450
:10F8A9000E10EC6BF075C001F076C002F0D70E03B4
:10F8B9006EFF0E046E5AEC63F0320E296E75C02A83
:10F8C900F076C02BF0F80E2D6E1F0E2C6E000E2F49
:10F8D9006E000E2E6E010E306E1E0E10EC6BF000D7
:10F8E9000E146E1E0E136E000E166E390E156E0076
:10F8F9000E186E3C0E176E000E1A6E120E196EF867
:10F909000E1C6E1F0E1B6E86EC65F0000E2C6E2809
:10F919000E2B6E000E2E6E410E2D6E000E306E07F0
:10F929000E2F6EF80E326E000E316E04EC65F0008B
:10F939000E0D6E3C0E0C6E000E0F6E410E0E6E001B
:10F949000E116E070E106EFF0E136EE00E126E8C06
:10F95900EC70F0000E0D6E500E0C6E000E0F6E4125
:10F969000E0E6E000E116E070E106E070E136EE06E
:10F979000E126E8CEC70F03C0E296E930E2A6E00FE
:10F989000E2B6EF80E2D6E1F0E2C6E000E2F6E00B4
:10F999000E2E6E020E306E640E10EC6BF075C00107
:10F9A900F076C002F0CD0E036EFF0E046E5AEC63C2
:10F9B900F0500E296E75C02AF076C02BF0070E2D77
:10F9C9006E2C68000E2F6E000E2E6E010E306E1E0C
:10F9D9000E10EC6BF0000E146E1E0E136E000E1658
:10F9E9006E570E156E000E186E3C0E176E000E1A2D
:10F9F9006E120E196E070E1C6E1B6886EC65F00000
:10FA09000E2C6E280E2B6E000E2E6E5F0E2D6E00C4
:10FA19000E306E070E2F6EF80E326E000E316E0428
:10FA2900EC65F0000E0D6E3C0E0C6E000E0F6E5F55
:10FA39000E0E6E000E116E070E106EFF0E136EE0A5
:10FA49000E126E8CEC70F0000E0D6E500E0C6E00E6
:10FA59000E0F6E5F0E0E6E000E116E070E106E0702
:10FA69000E136EE00E126E8CEC70F05A0E296E9029
:10FA79000E2A6E000E2B6E070E2D6E2C68000E2FAF
:10FA89006E000E2E6E020E306E640E10EC6BF07569
:10FA9900C001F076C002F0DE0E036EFF0E046E5A4E
:10FAA900EC63F06E0E296E75C02AF076C02BF0FF5C
:10FAB9000E2D6E2C68000E2F6E000E2E6E010E306C
:10FAC9006E1E0E10EC6BF0000E146E1E0E136E00FF
:10FAD9000E166E750E156E000E186E3C0E176E0022
:10FAE9000E1A6E120E196EFF0E1C6E1B6886EC65DF
:10FAF900F0000E2C6E280E2B6E000E2E6E7D0E2D34
:10FB09006E000E306E070E2F6EF80E326E000E313B
:10FB19006E04EC65F0000E0D6E3C0E0C6E000E0FBF
:10FB29006E7D0E0E6E000E116E070E106EFF0E1317
:10FB39006EE00E126E8CEC70F0000E0D6E500E0C15
:10FB49006E000E0F6E7D0E0E6E000E116E070E10FA
:10FB59006E070E136EE00E126E8CEC70F0780E29A3
:10FB69006E8D0E2A6E000E2B6EFF0E2D6E2C680008
:10FB79000E2F6E000E2E6E020E306E640E10EC6BA0
:10FB8900F075C001F076C002F0F30E036EFF0E04AB
:10FB99006E5AEC63F0140E296E75C02AF076C02BEC
:10FBA900F0000E2D6E1F0E2C6E000E2F6E000E2E05
:10FBB9006E010E306E030E10EC6BF01E0E296E9C5A
:10FBC9000E2A6E000E2B6E000E2D6E1F0E2C6E006F
:10FBD9000E2F6E000E2E6E020E306E020E10EC6BA2
:10FBE900F05A0E296E990E2A6E000E2B6E070E2DF5
:10FBF9006E2C68000E2F6E000E2E6E020E306E02F5
:10FC09000E10EC6BF075C001F076C002F0F70E0330
:10FC19006EFF0E046E5AEC63F0500E296E75C02A01
:10FC2900F076C02BF0070E2D6E2C68000E2F6E009B
:10FC39000E2E6E010E306E030E10EC6BF075C001C6
:10FC4900F076C002F09C0E036EFF0E046E5AEC6350
:10FC5900F08C0E296E75C02AF076C02BF0FF0E2DA0
:10FC69006E2C68000E2F6E000E2E6E010E306E0186
:10FC79000E10EC6BF0950E296EAB0E2A6E000E2B52
:10FC89006EFF0E2D6E2C68000E2F6E000E2E6E016B
:10FC99000E306E060E10EC6BF0950E296EA90E2A29
:10FCA9006E000E2B6EFF0E2D6E2C68000E2F6E004F
:10FCB9000E2E6E010E306E200E10EC6BF0950E2993
:10FCC9006EA50E2A6E000E2B6EFF0E2D6E2C68008F
:10FCD9000E2F6E000E2E6E010E306E3A0E10EC6B6A
:10FCE900F0950E296EA30E2A6E000E2B6EFF0E2DB7
:10FCF9006E2C68000E2F6E000E2E6E010E306E57A0
:10FD09000E10EC6BF0950E296EA70E2A6E000E2BC5
:10FD19006EFF0E2D6E2C68000E2F6E000E2E6E01DA
:10FD29000E306E700E10EC6BF01200000000000037
:10FD39000000005F00000007000700147F147F1413
:10FD4900242A7F2A12231308646236495620500058
:10FD590008070300001C2241000041221C002A1C44
:10FD69007F1C2A08083E080800807030000808082F
:10FD79000808000060600020100804023E5149454F
:10FD89003E00427F400072494949462141494D336D
:10FD99001814127F1027454545393C4A49493141D4
:10FDA900211109073649494936464949291E0000A2
:10FDB90014000000403400000008142241141414F7
:10FDC9001414004122140802015909063E415D59E3
:10FDD9004E7C1211127C7F494949363E41414122EC
:10FDE9007F4141413E7F494949417F090909013E16
:10FDF900414151737F0808087F00417F410020403D
:10FE0900413F017F081422417F404040407F021C4E
:10FE1900027F7F0408107F3E4141413E7F09090965
:10FE2900063E4151215E7F09192946264949493231
:10FE390003017F01033F4040403F1F2040201F3FF7
:10FE49004038403F6314081463030478040361597C
:10FE5900494D43007F4141410204081020004141BE
:10FE6900417F04020102044040404040000307086A
:10FE79000020545478407F28444438384444442866
:10FE8900384444287F385454541800087E0902180D
:10FE9900A4A49C787F0804047800447D4000204095
:10FEA900403D007F1028440000417F40007C0478D9
:10FEB90004787C080404783844444438FC18242421
:10FEC9001818242418FC7C080404084854545424A1
:10FED90004043F44243C4040207C1C2040201C3C1E
:10FEE9004030403C44281028444C9090907C446415
:10FEF900544C4400083641000000770000004136A8
:10FF090008000201020402010000000A0000006466
:10FF1900000000E803000010270000A0860100404F
:10FF2900420F008096980000E1F50500CA9A3B004F
:10FF3900803FCDCC3DD7233C12833AB7D138C62771
:10FF490037388635C0D633CC2B32708930E7DB2E73
:10FF5900E53C1E42A20D00803F00204100C842003E
:10FF69007A44401C4650C34724744997184BBCBE79
:10FF79004C6B6E4E03155079AD60F349714543459D
:10FF8900333330314C20535052494E472032322DB1
:10FF99005333004E5350204E534C54204557502054
:10FFA90045574C54204D5200566F6C74616765205B
:10FFB9003D202566200D0A004E4F5254482F534FBD
:10FFC90055544800454153542F57455354004E2F1B
:10FFD90053204C5400452F57204C54004D6F6465F5
:10FFE9003A0046523A0046533A00504E53005045A3
:07FFF900570020002A000060
:020000040001F9
:01000000FF00
:020000040020DA
:08000000FFFFFFFFFFFFFFFF00
:020000040030CA
:0E000000FF08191EFF8281FF0FC00FE00F40A6
:00000001FF
