:040000000CEF00F011
:10000800FACF03F0FBCF04F0E9CF05F0D0ED16F0FE
:100018001CEF18F046AE23D02D0E0001D86F4650C5
:100028007F0B0008800F01015D6F5DC153F1010175
:10003800546B000E0101566F0A0E556FB4EC12F0A6
:1000480001015351300F0001D96F5DC13BF03C6A8B
:10005800000E3E6E0A0E3D6E5CEC17F01DD02B0EA6
:100068000001D86F46C053F147C054F1000E01019A
:10007800566F0A0E556FB4EC12F001015351300F50
:100088000001D96F46C03BF047C03CF0000E3E6E01
:100098000A0E3D6E5CEC17F03B50300F0001DA6F32
:1000A80000D049AE35D02D0E0001DC6F7F0E48140C
:1000B8000001FD6F000E49140001FE6F0001FD1FD5
:1000C800FE1FFD4BFE2B800E0001FD2501015B6F1D
:1000D800000E0001FE2101015C6F5BC153F15CC1A0
:1000E80054F1000E0101566F0A0E556FB4EC12F070
:1000F80001015351300F0001DD6F5BC13BF05CC162
:100108003CF0000E3E6E0A0E3D6E5CEC17F01DD002
:100118002B0E0001DC6F48C053F149C054F1000EAA
:100128000101566F0A0E556FB4EC12F001015351DC
:10013800300F0001DD6F48C03BF049C03CF0000EB5
:100148003E6E0A0E3D6E5CEC17F03B50300F00011E
:10015800DE6F00D05E380F0B300F0001AE6F5E50BF
:100168000F0B300F0001AF6F5F380F0B300F00011E
:10017800B16F5F500F0B300F0001B26F62380F0B79
:10018800300F0001B46F62500F0B300F0001B56FD4
:1001980060380F0B300F00018A6F60500F0B300F63
:1001A80000018B6F5A380F0B300F00018D6F5A50BA
:1001B8000F0B300F00018E6F6D380F0B300F0001E1
:1001C800906F6D500F0B300F0001916F56380F0B69
:1001D800300F0001816F56500F0B300F0001826FF6
:1001E80057380F0B300F0001846F57500F0B300F2B
:1001F8000001856F58380F0B300F0001876F58507A
:100208000F0B300F0001886F44044510D8A40BD0A1
:10021800CC0E116E000E126EE90E136EFF0E146EE8
:100228003CEC1CF00BD0CC0E116E000E126EED0ED5
:10023800136EFF0E146E3CEC1CF000D06EC053F130
:100248000101546B000E0101566F640E556FB4EC3A
:1002580012F001015351300F0001BD6F000E3E6EC8
:10026800640E3D6E6EC03BF03C6A5CEC17F03BC020
:1002780053F13CC054F1000E0101566F0A0E556F40
:10028800B4EC12F001015351300F0001BE6F6EC083
:100298003BF03C6A000E3E6E0A0E3D6E5CEC17F0B9
:1002A8003B50300F0001BF6F5004D8A40BD0D40EC0
:1002B800116E000E126EE90E136EFF0E146E3CECFA
:1002C8001CF00BD0D40E116E000E126EED0E136ED4
:1002D800FF0E146E3CEC1CF000D080B802D0310E3A
:1002E80001D0300E0001E06F00D05CC053F1010175
:1002F800546B000E0101566F640E556FB4EC12F08A
:1003080001015351300F0001D06F000E3E6E640E94
:100318003D6E5CC03BF03C6A5CEC17F03BC053F1AF
:100328003CC054F1000E0101566F0A0E556FB4EC33
:1003380012F001015351300F0001D16F5CC03BF046
:100348003C6A000E3E6E0A0E3D6E5CEC17F03B50A8
:10035800300F0001D26FE6C02CF0E7C02DF0E8C0E6
:100368002EF0FAEC10F02C50300F0001B76F000E91
:100378003E6E640E3D6E000E206EC80E216E420E5B
:10038800226EE6C01DF0E7C01EF0E8C01FF013ECB7
:100398000FF01DC02CF01EC02DF01FC02EF0FAEC7F
:1003A80010F02CC03BF02DC03CF05CEC17F03BC0CB
:1003B80053F13CC054F1000E0101566F0A0E556FFF
:1003C800B4EC12F001015351300F0001B96F000E67
:1003D800206EC80E216E420E226EE6C01DF0E7C0E8
:1003E8001EF0E8C01FF013EC0FF01DC02CF01EC06B
:1003F8002DF01FC02EF0FAEC10F02CC03BF02DC0F1
:100408003CF0000E3E6E0A0E3D6E5CEC17F03B5061
:10041800300F0001BA6F4CC053F14DC054F1030EB8
:100428000101566FE80E556FB4EC12F001015351FB
:10043800300F0001C26F030E3E6EE80E3D6E4CC0D9
:100448003BF04DC03CF05CEC17F03BC053F13CC0B6
:1004580054F1000E0101566F640E556FB4EC12F0A2
:1004680001015351300F0001C36F000E3E6E640E40
:100478003D6E4CC03BF04DC03CF05CEC17F03BC00F
:1004880053F13CC054F1000E0101566F0A0E556F2E
:10049800B4EC12F001015351300F0001C46F4CC08D
:1004A8003BF04DC03CF0000E3E6E0A0E3D6E5CEC1B
:1004B80017F03B50300F0001C56F170E396ED80E7C
:1004C8003A6E000E3B6EFF0E3D6EE00E3C6E000E67
:1004D8003F6E000E3E6E020E406E010EFCEC0CF0FC
:1004E800170E396EDC0E3A6E000E3B6EFF0E3D6E37
:1004F800E00E3C6E000E3F6E000E3E6E020E406E29
:10050800460EFCEC0CF0340E396EAE0E3A6E000E50
:100518003B6E070E3D6E3C68000E3F6E000E3E6E51
:10052800020E406E0F0EFCEC0CF0520E396E8A0E65
:100538003A6E000E3B6E070E3D6EE00E3C6E000EEE
:100548003F6E000E3E6E020E406E0F0EFCEC0CF07D
:100558006E0E396E810E3A6E000E3B6E070E3D6EC2
:100568003C68000E3F6E000E3E6E010E406E0A0E95
:10057800FCEC0CF06E0E396ECC0E3A6E000E3B6E33
:10058800070E3D6E3C68000E3F6E000E3E6E010E7B
:10059800406E5F0EFCEC0CF0820E396EBD0E3A6EAA
:1005A800000E3B6EF80E3D6E000E3C6E000E3F6E68
:1005B800000E3E6E010E406E230EFCEC0CF0820E17
:1005C800396ED40E3A6E000E3B6EF80E3D6E000E7C
:1005D8003C6E000E3F6E000E3E6E010E406E5F0ECA
:1005E800FCEC0CF0960E396ED00E3A6E000E3B6E97
:1005F800070E3D6EE00E3C6E000E3F6E000E3E6E26
:10060800010E406E0A0EFCEC0CF0960E396EE00EF0
:100618003A6E000E3B6E070E3D6EE00E3C6E000E0D
:100628003F6E000E3E6E010E406E230EFCEC0CF089
:10063800960E396EB70E3A6E000E3B6E070E3D6E83
:10064800E00E3C6E000E3F6E000E3E6E010E406ED8
:10065800320EFCEC0CF0960E396EC20E3A6E000E9D
:100668003B6E070E3D6EE00E3C6E000E3F6E000EB8
:100678003E6E010E406E5D0EFCEC0CF0120023EC99
:100688001EF099EC1CF0000E256E000E246E4DEC49
:100698001DF04EC011F04FC012F0130E136EFF0E76
:1006A800146E3CEC1CF0010E396E4EC03AF04FC08F
:1006B8003BF0FF0E3D6E3C68000E3F6E000E3E6E36
:1006C800010E406E010EFCEC0CF04EC011F04FC054
:1006D80012F06E0E136EFF0E146E3CEC1CF00B0E37
:1006E800396E4EC03AF04FC03BF0F80E3D6E1F0E0B
:1006F8003C6E000E3F6E000E3E6E010E406E180EF0
:10070800FCEC0CF0000E1D6E280E1C6E000E1F6E09
:10071800170E1E6E000E216E020E206EFF0E236E47
:10072800E00E226E64EC09F04EC011F04FC012F0DA
:10073800F50E136EFF0E146E3CEC1CF0170E396E9E
:100748004EC03AF04FC03BF0FF0E3D6EE00E3C6EDF
:10075800000E3F6E000E3E6E020E406E2D0EFCEC3B
:100768000CF04EC011F04FC012F0EF0E136EFF0EDA
:10077800146E3CEC1CF0000E1D6E6E0E1C6E000E0E
:100788001F6E170E1E6E000E216E020E206EFF0EDB
:10079800236EE00E226E64EC09F0170E396E4EC01F
:1007A8003AF04FC03BF0FF0E3D6EE00E3C6E000E7F
:1007B8003F6E000E3E6E020E406E730EFCEC0CF0A7
:1007C8004EC011F04FC012F0B00E136EFF0E146E33
:1007D8003CEC1CF0280E396E4EC03AF04FC03BF08E
:1007E800000E3D6E1F0E3C6E000E3F6E000E3E6EFC
:1007F800010E406E320EFCEC0CF04EC011F04FC0F2
:1008080012F0DF0E136EFF0E146E3CEC1CF0470E58
:10081800396E4EC03AF04FC03BF0F80E3D6E000EF8
:100828003C6E000E3F6E000E3E6E010E406E320EA4
:10083800FCEC0CF04EC011F04FC012F0AA0E136E73
:10084800FF0E146E3CEC1CF0640E396E4EC03AF08C
:100858004FC03BF0FF0E3D6EE00E3C6E000E3F6E4B
:10086800000E3E6E010E406E040EFCEC0CF04EC005
:1008780011F04FC012F0BF0E136EFF0E146E3CEC59
:100888001CF0640E396E4EC03AF04FC03BF0FF0EBC
:100898003D6EE00E3C6E000E3F6E000E3E6E010E89
:1008A800406E4D0EFCEC0CF04EC011F04FC012F033
:1008B8007B0E136EFF0E146E3CEC1CF0780E396E36
:1008C8004EC03AF04FC03BF0000E3D6E1F0E3C6E1E
:1008D800000E3F6E000E3E6E010E406E060EFCECE2
:1008E8000CF04EC011F04FC012F0D80E136EFF0E70
:1008F800146E3CEC1CF0780E396E4EC03AF04FC0C6
:100908003BF0000E3D6E1F0E3C6E000E3F6E000E5B
:100918003E6E010E406E550EFCEC0CF04EC011F010
:100928004FC012F0F80E136EFF0E146E3CEC1CF064
:100938008C0E396E4EC03AF04FC03BF0FF0E3D6E44
:100948003C68000E3F6E000E3E6E010E406E0C0EAF
:10095800FCEC0CF04EC011F04FC012F0FB0E136E01
:10096800FF0E146E3CEC1CF08C0E396E4EC03AF043
:100978004FC03BF0FF0E3D6E3C68000E3F6E000E10
:100988003E6E010E406E210EFCEC0CF04EC011F0D4
:100998004FC012F0E40E136EFF0E146E3CEC1CF008
:1009A8008C0E396E4EC03AF04FC03BF0FF0E3D6ED4
:1009B8003C68000E3F6E000E3E6E010E406E320E19
:1009C800FCEC0CF04EC011F04FC012F0F10E136E9B
:1009D800FF0E146E3CEC1CF08C0E396E4EC03AF0D3
:1009E8004FC03BF0FF0E3D6E3C68000E3F6E000EA0
:1009F8003E6E010E406E5F0EFCEC0CF012001F0EF6
:100A0800306E000E316E99D1250E3818D8B404D046
:100A1800385089EC1EF091D1000E376E000E366EFC
:100A2800000E356E05D035841D4A1E2A01D00BD024
:100A38001DC0F6FF1EC0F7FF0800F550300AD8B4F5
:100A4800F2D701D0F5D71DC0F6FF1EC0F7FF08008A
:100A5800F5500DEC1DF0D8A03BD0000E376E000EFF
:100A6800366E00D036C011F037C012F0000E146E8A
:100A78000A0E136EAEEC1CF011C036F012C037F03F
:100A8800D00E2B6EFF0E2C6E1DC0F6FF1EC0F7FF9A
:100A98000800F5502D6E2E6A2B502D262C502E2234
:100AA8002D5036262E5037221D4A1E2A1DC0F6FF0D
:100AB8001EC0F7FF0800F5500DEC1DF0D8A008D0B7
:100AC800D1D706D048D11BD0358E19D036D117D002
:100AD8001DC0F6FF1EC0F7FF1D4A1E2A0800F5CFED
:100AE80038F03850000AD8B436D1640AD8B407D0E0
:100AF8000D0AD8B404D0110AD8B4E6D71ED135BE31
:100B080015D030C0D9FF31C0DAFFDECF33F0DDCFEA
:100B180034F0020E3026000E312234AE4ED0030ED1
:100B28003512336C341ED8B0342A47D030C0D9FFC0
:100B380031C0DAFFDECF33F0DDCF34F0020E3026DD
:100B4800000E31223AD0010E386E050E3818D8B48E
:100B58003DD001D03BD03850020DA00EF324F66EE4
:100B6800FE0EF420F76E0900F550335C0900F550CD
:100B78003458D8A02BD001D029D0382AE6D726D08F
:100B8800010E386E040E3818D8B420D001D01ED00B
:100B98003850020DAA0EF324F66EFE0EF420F76EFE
:100BA8000900F550335C0900F5503458D8A00ED030
:100BB80001D00CD0382AE6D709D03550800B000A6E
:100BC800D8B4C1D7800AD8B4DBD700D03650371094
:100BD800D8B40AD035C02BF0030E2B16D8B404D0E5
:100BE8003606D8A0370600D0800E38BE7F0E2B6E92
:100BF8003650385C3750800A2B58D8B007D0385058
:100C0800365E000E38BEFF0E375A05D0000E376E1E
:100C1800000E366E00D035A41AD035C02BF0030E66
:100C28002B16D8B404D02D0E89EC1EF000D0365007
:100C38003710D8B426D0300E89EC1EF03606D8A06E
:100C4800370636503710D8B41CD0F5D71AD03650DE
:100C58003710D8B40CD0200E89EC1EF03606D8A078
:100C6800370636503710D8B402D0F5D700D035C083
:100C78002BF0030E2B16D8B404D02D0E89EC1EF0E1
:100C880000D038C032F053D045D03250020DA00EFB
:100C9800F324F66EFE0EF420F76E0900F5CF13F07C
:100CA8000A00F5CF14F033C011F034C012F028EC6C
:100CB80019F011C018F012C019F0000E1B6E0A0EC0
:100CC8001A6E18EC1BF01850300F386E2CD033C049
:100CD80011F034C012F03250020DAA0EF324F66E51
:100CE800FE0EF420F76E0900F5CF13F00A00F5CFD9
:100CF80014F028EC19F011500F0B2F6E2F50010D26
:100D08004D0EF324F66EFF0EF420F76E0800F5CFB3
:100D180038F009D03550800B000AD8B4B6D7800A0D
:100D2800D8B4D5D700D0385089EC1EF000D03206A0
:100D38003228D8B402D0EED700D01DC0F6FF1EC0AE
:100D4800F7FF1D4A1E2A0800F5CF38F03850D8B4EE
:100D580002D05AD600D0120056EC19F043EC03F03A
:100D68002BEC1AF0F2EC1AF06F6800D0C5EC18F012
:100D780062506F18D8B4A1D062C06FF087EC1BF036
:100D880041C04CF042C04DF084EC19F02CC0E6F0A4
:100D98002DC0E7F02EC0E8F005EC1CF014C046F0BA
:100DA80015C047F046AE1DD046C060F147C061F19E
:100DB8000101601F611F604B612B800E01016027DC
:100DC800000E61237F0E01016017000E61170101FB
:100DD800601F611F604B612B60C146F061C147F025
:100DE80000D046C011F047C012F0000E146E090E74
:100DF800136EAEEC1CF011C053F112C054F1000E8A
:100E08000101566F050E556FB4EC12F0200E01016A
:100E18005325486E000E01015421496EB20E1D6E15
:100E2800FE0E1E6E5EC01FF0206A5FC021F0226AAF
:100E380062C023F0246A60C025F0266A5AC027F0F1
:100E4800286A6DC029F02A6A03EC05F0FE0E1D6EB3
:100E5800FE0E1E6E46C01FF047C020F048C021F0AD
:100E680049C022F003EC05F0D00E1D6EFE0E1E6E7A
:100E780080A804D00101606B602B02D00101606B77
:100E8800010160511F6E206A50C021F0226A03ECF4
:100E980005F0270E1D6EFF0E1E6E4CC01FF04DC0D4
:100EA80020F05CC021F0226A03EC05F0AEEC19F0EA
:100EB8008FEC0EF00EEC00F000D09DEC17F0E80679
:100EC800D8A42CD0000E0001F26F000EF16F17D0DD
:100ED800B2EC1DF01CEC13F021D0B2EC1DF0E4ECE8
:100EE80013F01CD0B2EC1DF03DEC16F017D0B2ECAC
:100EF8001DF011EC1EF012D0BEEC1DF00FD05D50AD
:100F0800000AD8B4E5D7010AD8B4E7D7030AD8B499
:100F1800E9D7070AD8B4EBD7EFD700D00001F50519
:100F2800D8A404D0000E0001F56F00D00001F6052A
:100F3800D8A41CD744504510D8A402D0010E01D023
:100F4800000E446E456A000E0001F66F0FD70CEFD5
:100F580000F02E6E240E306E1E0E2F6EC2D02F5053
:100F6800440F236E190E246E020E256E000E276E96
:100F7800000E266E3050020DF3500E0F3EEC1BF0A3
:100F8800440E236E190E246E020E256E000E276E77
:100F9800000E266E3050020DF3500E0F3EEC1BF083
:100FA800440E236E190E246E020E256E070E276E50
:100FB80026680E0E3EEC1BF0A8D0440E236E190EC8
:100FC800246E020E256E000E276E000E266E0E0E83
:100FD8003EEC1BF0440E236E190E246E020E256E95
:100FE800070E276E266830500E0F3EEC1BF08DD092
:100FF800440E236E190E246E020E256E000E276E07
:10100800000E266E30500E0F3EEC1BF0440E236E81
:10101800190E246E020E256E070E276E26683050B4
:10102800020DF3500E0F3EEC1BF06FD0440E236EF2
:10103800190E246E020E256E000E276E000E266E07
:101048003050020DF3500E0F3EEC1BF02F50440FA2
:10105800236E190E246E020E256E070E276E266863
:101068000E0E3EEC1BF051D02F50440F236E190E7C
:10107800246E020E256E000E276E000E266E0E0ED2
:101088003EEC1BF02F50440F236E190E246E020EF7
:10109800256E070E276E266830500E0F3EEC1BF0AB
:1010A80034D02F50440F236E190E246E020E256E75
:1010B800000E276E000E266E30500E0F3EEC1BF011
:1010C8002F50440F236E190E246E020E256E070E44
:1010D800276E26683050020DF3500E0F3EEC1BF0C1
:1010E80014D02E50000AD8B43AD7010AD8B465D71C
:1010F800030AD8B47DD7010AD8B498D7070AD8B458
:10110800B3D7010AD8B4CDD700D012002E6E240E62
:10111800306E1E0E2F6EBFD0440E236E190E246E35
:10112800020E256E000E276E000E266E30500E0F32
:101138003EEC1BF0440E236E190E246E020E256E33
:10114800070E276E26680E0E3EEC1BF0B8D0440E34
:10115800236E190E246E020E256E000E276E000EE9
:10116800266E3050020DF3500E0F3EEC1BF0440E6D
:10117800236E190E246E020E256E070E276E266842
:1011880030500E0F3EEC1BF09AD0440E236E190E11
:10119800246E020E256E000E276E000E266E0E0EB1
:1011A8003EEC1BF02F50440F236E190E246E020ED6
:1011B800256E000E276E000E266E0E0E3EEC1BF0FE
:1011C800440E236E190E246E020E256E070E276E2E
:1011D80026683050020DF3500E0F3EEC1BF06FD016
:1011E8002F50440F236E190E246E020E256E000E2A
:1011F800276E000E266E30500E0F3EEC1BF02F505F
:10120800440F236E190E246E020E256E070E276EEC
:1012180026680E0E3EEC1BF052D02F50440F236E62
:10122800190E246E020E256E000E276E000E266E15
:101238003050020DF3500E0F3EEC1BF02F50440FB0
:10124800236E190E246E020E256E070E276E266871
:1012580030500E0F3EEC1BF032D0440E236E190EA8
:10126800246E020E256E000E276E000E266E0E0EE0
:101278003EEC1BF02F50440F236E190E246E020E05
:10128800256E070E276E26683050020DF3500E0F9C
:101298003EEC1BF014D02E50000AD8B43DD7010AFA
:1012A800D8B455D7030AD8B470D7010AD8B498D798
:1012B800070AD8B4B2D7010AD8B4CFD700D01200E1
:1012C80020C024F021C025F0241E251E244A252AEA
:1012D800010E24242A6E000E25202B6E000E276E88
:1012E800010E266E20C024F021C025F0D8902436A7
:1012F8002536241E251E244A252A24C028F025C068
:1013080029F0000E2D6E000E2C6E20C02EF021C08C
:101318002FF01E502024186E22C019F023C01AF096
:101328001C5055EC1CF0205000081E24186E22C0DA
:1013380019F023C01AF01C5055EC1CF01EC018F010
:1013480022C019F023C01AF01C50202455EC1CF0C0
:101358001EC018F022C019F023C01AF0205000084F
:101368001C2455EC1CF078D02BBE0BD02E06D8A030
:101378002F06020E2826000E292228502A26295038
:101388002B222C4A2D2A020E2626000E2722265012
:101398002A2627502B221E502E24186E22C019F000
:1013A80023C01AF01C502C2455EC1CF01E502E247F
:1013B800186E22C019F023C01AF02C5000081C2403
:1013C80055EC1CF02E5000081E24186E22C019F08F
:1013D80023C01AF01C502C2455EC1CF02E50000889
:1013E8001E24186E22C019F023C01AF02C500008D1
:1013F8001C2455EC1CF01E502C24186E22C019F029
:1014080023C01AF01C502E2455EC1CF01E502C241E
:10141800186E22C019F023C01AF02E5000081C24A0
:1014280055EC1CF02C5000081E24186E22C019F030
:1014380023C01AF01C502E2455EC1CF02C50000828
:101448001E24186E22C019F023C01AF02E5000086E
:101458001C2455EC1CF000D02E502C5C2D50800A1A
:10146800246E2F50800A2458D8A07ED7120068C056
:1014780053F10101546B000E0101566F0A0E556FAE
:10148800B4EC12F001015351300F0001A56F68C090
:101498003BF03C6A000E3E6E0A0E3D6E5CEC17F0A7
:1014A8003B50300F0001A66F69C053F10101546B26
:1014B800000E0101566F0A0E556FB4EC12F00101CF
:1014C8005351300F0001A86F69C03BF03C6A000E11
:1014D8003E6E0A0E3D6E5CEC17F03B50300F00017B
:1014E800A96F6BC053F10101546B000E0101566FD7
:1014F8000A0E556FB4EC12F001015351300F000180
:10150800AB6F6BC03BF03C6A000E3E6E0A0E3D6E40
:101518005CEC17F03B50300F0001AC6F6AC053F120
:101528000101546B000E0101566F0A0E556FB4ECA1
:1015380012F001015351300F00019C6F6AC03BF05B
:101548003C6A000E3E6E0A0E3D6E5CEC17F03B5096
:10155800300F00019D6F66C053F10101546B000EFE
:101568000101566F0A0E556FB4EC12F00101535188
:10157800300F00019F6F66C03BF03C6A000E3E6E64
:101588000A0E3D6E5CEC17F03B50300F0001A06F67
:101598006CC053F10101546B000E0101566F0A0E25
:1015A800556FB4EC12F001015351300F0001A26FD6
:1015B8006CC03BF03C6A000E3E6E0A0E3D6E5CEC61
:1015C80017F03B50300F0001A36F340E396EA50E93
:1015D8003A6E000E3B6E070E3D6E3C68000E3F6E85
:1015E800000E3E6E020E406E0F0EFCEC0CF0520E1A
:1015F800396E9C0E3A6E000E3B6E070E3D6EE00E85
:101608003C6E000E3F6E000E3E6E020E406E0F0ED8
:10161800FCEC0CF01200F2925150D8B4A4D0CE5089
:10162800CFCF01F0026A01C002F0016A01104A6ED0
:1016380002504B6E000ECF6E000ECE6E94D0000E90
:10164800CF6E000ECE6E9E90900ECD6ECD80000EA9
:101658000001FC6F000E0001E26F000EE36F000E48
:10166800E46F000EE56F010E516E7BD08DD0350E04
:101678004A5C210E4B58D8A009D01C0E4A5C250E96
:101688004B58D8B003D0020E516E2AD0CDEC1EF0C4
:1016980027D026D079D0A10E4A5C0F0E4B58D8A07F
:1016A80009D0880E4A5C130E4B58D8B003D0030EED
:1016B800516E57D0CDEC1EF054D053D065D0910E5A
:1016C8004A5C010E4B58D8A008D0BC0E4A5C020EEA
:1016D8004B58D8B002D0040ED7D7CDEC1EF000D0AE
:1016E800F19C52D0910E4A5C010E4B58D8A036D0CE
:1016F800080E4A5C070E4B58D8B030D0D89000017D
:10170800E2350001E26F0001E3350001E36F0001FB
:10171800E4350001E46F0001E5350001E56FE90EED
:101728004A5C030E4B58D8A008D0010E0001E227EE
:10173800000EE323E423E52300D00001FC2B1F0E59
:101748000001FC65B4D7000E0001F26F010EF16FC5
:10175800E3C0FAF0F298000E516EA9D7CDEC1EF056
:1017680000D0F18C11D05150000AD8B468D7010AC2
:10177800D8B47DD7030AD8B48ED7010AD8B49FD776
:10178800070AD8B4AFD700D01200366E800E366084
:10179800A6D09F0E2E6401D0A2D03450D8A403D076
:1017A800010E346E00D01F0E2F6404D07E0E2F64FD
:1017B80003D000D03F0E2F6E000E386E040E386432
:1017C80001D08DD0530E2F6015D0E00E2F24116E4E
:1017D800126AFF0E1222000E146E050E136EAEEC86
:1017E8001CF038501126000E1222C50E1124F66E78
:1017F800FC0E14D0AD0E2F24116E126AFF0E1222A9
:10180800000E146E050E136EAEEC1CF03850112647
:10181800000E1222C40E1124F66EFD0E1220F76E71
:101828000800F5CF35F000D0000E376E060E37648D
:1018380001D053D035A023D03404D8A40CD02E50D6
:101848003724186E30C019F031C01AF036503824D9
:1018580055EC1CF03ED037503402F3502E24236E42
:1018680034C024F034C025F030C026F031C027F051
:1018780038503402F35036243EEC1BF02AD0305056
:10188800321804E131503318D8B423D03404D8A422
:101898000CD02E503724186E32C019F033C01AF00D
:1018A8003650382455EC1CF014D037503402F3501D
:1018B8002E24236E34C024F034C025F032C026F024
:1018C80033C027F038503402F35036243EEC1BF076
:1018D80000D0372AD8903532A9D7382A6FD71200C6
:1018E800010E81EC1EF0000E186E960E176E54EC69
:1018F8001AF0110E81EC1EF0010E186EF40E176E20
:1019080054EC1AF0B10E81EC1EF0010E79EC1EF0C9
:101918002C0E79EC1EF02D0E79EC1EF0B20E81EC37
:101928001EF0010E79EC1EF02C0E79EC1EF02D0E37
:1019380079EC1EF0B30E81EC1EF0010E79EC1EF06E
:101948002C0E79EC1EF02D0E79EC1EF0010E79ECC0
:101958001EF02C0E79EC1EF02D0E79EC1EF0B40E54
:1019680081EC1EF0070E79EC1EF0C00E81EC1EF023
:10197800A20E79EC1EF0020E79EC1EF0840E79ECC2
:101988001EF0C10E81EC1EF0C50E79EC1EF0C20EE1
:1019980081EC1EF00A0E79EC1EF0000E79EC1EF0B8
:1019A800C30E81EC1EF08A0E79EC1EF02A0E79EC3B
:1019B8001EF0C40E81EC1EF08A0E79EC1EF0EE0EBD
:1019C80079EC1EF0C50E81EC1EF00E0E79EC1EF0BF
:1019D800200E81EC1EF0360E81EC1EF0C80E79EC5C
:1019E8001EF03A0E81EC1EF0050E79EC1EF0120086
:1019F8000101536F53C159F139C058F13AC011F080
:101A08003BC012F0C7EC1BF011C054F112C055F1E5
:101A1800000E0101576F000E566F66D0000180510D
:101A28000001D8B434D04050050D01015951416E20
:101A3800426AF3504126F450422242BE28D0425016
:101A480004E1810E415CD8A022D0000E0101596F3B
:101A58004050070DF35001015825030F0101586F3D
:101A6800A00E0101586504D0A00E0101586F00D0E6
:101A7800010156513A24D96E010157513B20DA6EC3
:101A8800200EDE18D8B42CD002D02AD000D058C1ED
:101A98002EF0010156513A24D96E010157513B20CD
:101AA800DA6EDF502F6E3CC030F03DC031F03EC0E2
:101AB80032F03FC033F040C034F001015951C9EC55
:101AC8000BF04050060DF350010159250101596FE3
:101AD800800E0101596504D0800E0101596F00D0B4
:101AE8000101564B572B00D0010154510101565D9D
:101AF8000101555101015759D8A090D71200000E85
:101B0800256E000E246E4DEC1DF04EC011F04FC036
:101B180012F0140E136EFF0E146E3CEC1CF0010E46
:101B2800396E4EC03AF04FC03BF0FF0E3D6E3C6838
:101B3800000E3F6E000E3E6E010E406E010EFCEC74
:101B48000CF04EC011F04FC012F0880E136EFF0E4D
:101B5800146E3CEC1CF0100E396E4EC03AF04FC0BB
:101B68003BF0F80E3D6E1F0E3C6E000E3F6E000EF1
:101B78003E6E020E406E040EFCEC0CF04EC011F0EE
:101B88004FC012F0B00E136EFF0E146E3CEC1CF03A
:101B9800280E396E4EC03AF04FC03BF0000E3D6E35
:101BA8001F0E3C6E000E3F6E000E3E6E010E406E24
:101BB800320EFCEC0CF0440E236E190E246E020E4D
:101BC800256E070E276E26680E0E3EEC1BF04EC0E3
:101BD80011F04FC012F0DF0E136EFF0E146E3CECC6
:101BE8001CF0470E396E4EC03AF04FC03BF0F80E6D
:101BF8003D6E000E3C6E000E3F6E000E3E6E010EF6
:101C0800406E320EFCEC0CF01200000E256E000E39
:101C1800246E4DEC1DF04EC011F04FC012F03B0E7B
:101C2800136EFF0E146E3CEC1CF0010E396E4EC0A4
:101C38003AF04FC03BF0FF0E3D6E3C68000E3F6E21
:101C4800000E3E6E010E406E010EFCEC0CF04EC014
:101C580011F04FC012F0C80E136EFF0E146E3CEC5C
:101C68001CF00B0E396E4EC03AF04FC03BF0F80E28
:101C78003D6E1F0E3C6E000E3F6E000E3E6E020E55
:101C8800406E060EFCEC0CF04EC011F04FC012F086
:101C9800D00E136EFF0E146E3CEC1CF01A0E396E4B
:101CA8004EC03AF04FC03BF0F80E3D6E1F0E3C6E32
:101CB800000E3F6E000E3E6E020E406E060EFCECED
:101CC8000CF04EC011F04FC012F0B00E136EFF0EA4
:101CD800146E3CEC1CF0280E396E4EC03AF04FC022
:101CE8003BF0000E3D6E1F0E3C6E000E3F6E000E68
:101CF8003E6E010E406E320EFCEC0CF0440E236E6C
:101D0800190E246E020E256E070E276E26680E0E1B
:101D18003EEC1BF012000001EB510001EC11D8A4BD
:101D28000BD044504510D8B407D002EC1AF0000E7E
:101D38000001EC6F010E70D00001EB510001EC11B5
:101D4800D8B411D044504510D8A40DD02BEC1AF0BB
:101D5800000E0001EC6F000EEB6F000E6DEC1CF036
:101D6800C1EC1EF05BD00001EB050001EC11D8A41A
:101D780055D044044510D8A451D080B808D0000EDE
:101D88000001EA6F010EE96F1AEC1EF000D00001A5
:101D9800E9050001EA11D8A441D00001ED516DEC2C
:101DA8001CF00001ED4BEE2B0001EEBF0ED0000140
:101DB800EE5105E1080E0001ED5DD8A006D0000E39
:101DC8000001EE6F000EED6F00D0000E116E400E98
:101DD800126E400E136EE6C014F0E7C015F0E8C0AE
:101DE80016F0F2EC15F0D8B019D0000E0001EA6F29
:101DF800000EE96F000E0001EE6F000EED6F00019E
:101E0800ED516DEC1CF0C1EC1EF05C509FEC14F031
:101E1800000E0001EC6F000EEB6F00D012001FC027
:101E280023F0246A256A1E34233601E324802350D4
:101E3800266E2650D8A402D00ED06CD022C023F033
:101E4800246A256A2134233601E3248023502B6E2B
:101E58002B50D8A407D0000E1D6E000E1E6E000E6B
:101E68001F6E58D02B507B0F26261FC02BF02250F8
:101E78002B1A800E2B161E8E218EFF0E2016FF0E9B
:101E88002116000E2216000E276E000E286E000E78
:101E9800296E070E2A6E00D01DA007D020502726D5
:101EA800215028222250292200D0D8901F321E32D9
:101EB8001D32D8902036213622362A2EEDD700D072
:101EC800090E2A6E00D01DA007D0205027262150C9
:101ED80028222250292200D0D8901F321E321D32CB
:101EE800D8902932283227322A2EEDD700D027C0A1
:101EF80011F028C012F029C013F026C014F02BC02E
:101F080015F081EC13F011C01DF012C01EF013C0C3
:101F18001FF000D01200000E256E000E246E4DEC4E
:101F28001DF04EC011F04FC012F0140E136EFF0ECC
:101F3800146E3CEC1CF0010E396E4EC03AF04FC0E6
:101F48003BF0FF0E3D6E3C68000E3F6E000E3E6E8D
:101F5800010E406E010EFCEC0CF04EC011F04FC0AB
:101F680012F0940E136EFF0E146E3CEC1CF01A0E59
:101F7800396E4EC03AF04FC03BF0FF0E3D6EE00E9A
:101F88003C6E000E3F6E000E3E6E020E406E010E5D
:101F9800FCEC0CF04EC011F04FC012F0B50E136EF1
:101FA800FF0E146E3CEC1CF0290E396E4EC03AF050
:101FB8004FC03BF0FF0E3D6EE00E3C6E000E3F6ED4
:101FC800000E3E6E020E406E010EFCEC0CF04EC090
:101FD80011F04FC012F05E0E136EFF0E146E3CEC43
:101FE8001CF03C0E396E4EC03AF04FC03BF0070E65
:101FF8003D6E3C68000E3F6E000E3E6E010E406E58
:102008000F0EFCEC0CF01200E00E81EC1EF0020E3C
:1020180079EC1EF01C0E79EC1EF0070E79EC1EF020
:10202800120E79EC1EF0370E79EC1EF0320E79ECB8
:102038001EF0290E79EC1EF02D0E79EC1EF0290EFB
:1020480079EC1EF0250E79EC1EF02B0E79EC1EF0C3
:10205800390E79EC1EF0000E79EC1EF0010E79ECC9
:102068001EF0030E79EC1EF0100E79EC1EF0E10E56
:1020780081EC1EF0030E79EC1EF01D0E79EC1EF0BB
:10208800070E79EC1EF0060E79EC1EF02E0E79EC98
:102098001EF02C0E79EC1EF0290E79EC1EF02D0E98
:1020A80079EC1EF02E0E79EC1EF02E0E79EC1EF057
:1020B800370E79EC1EF03F0E79EC1EF0000E79EC2D
:1020C8001EF0000E79EC1EF0020E79EC1EF0100ED8
:1020D80079EC1EF0130E81EC1EF0000E186E0A0E3D
:1020E800176E54EC1AF0290E81EC1EF0000E186ED3
:1020F800640E176E54EC1AF012009F0E1D6EFF0E40
:102108001E6E63C01FF0206A64C021F0226A65C099
:1021180023F0246A03EC05F063C053F10101546B0A
:10212800000E0101566F0A0E556FB4EC12F0010152
:102138005351300F0001936F63C03BF03C6A000EAF
:102148003E6E0A0E3D6E5CEC17F03B50300F0001FE
:10215800946F64C053F10101546B000E0101566F76
:102168000A0E556FB4EC12F001015351300F000103
:10217800966F64C03BF03C6A000E3E6E0A0E3D6EE0
:102188005CEC17F03B50300F0001976F65C053F1BE
:102198000101546B000E0101566F0A0E556FB4EC25
:1021A80012F001015351300F0001996F65C03BF0E7
:1021B8003C6A000E3E6E0A0E3D6E5CEC17F03B501A
:1021C800300F00019A6F340E396E930E3A6E000E7E
:1021D8003B6E070E3D6E3C68000E3F6E000E3E6E75
:1021E800020E406E0F0EFCEC0CF012002EC030F008
:1021F800316A326A2D34303601E3318030503A6E1C
:102208003A50D8A402D039D063D0170E306E2CC003
:1022180031F02DC032F02EC033F03028346E04D0A7
:10222800D890333232323132342EFAD73150356EBB
:102238002D8EFF0E2C16FF0E2D16000E2E162C506E
:10224800366E2D50376E2E50386E396A8E0E3A5EC5
:102258003AAE10D03A50800A8F0FD8B003D00DD0C4
:1022680037D000D0D89039323832373236323A3E09
:10227800F9D719D0170E3A6411D0000E2C6E000E43
:102288002D6E000E2E6E000E2F6E22D007D0D89025
:1022980036363736383639363A0600D03A50D8B45A
:1022A80002D0F5D700D03550D8B409D0391E381E21
:1022B800371E366C000E37223822392200D036C03D
:1022C8002CF037C02DF038C02EF039C02FF000D0D8
:1022D80012002EC032F0336A346A2D34323601E3EC
:1022E80033803250396E3950D8A402D00ED061D024
:1022F80031C032F0336A346A3034323601E3338025
:1023080032503A6E3A50D8A407D0000E2C6E000E08
:102318002D6E000E2E6E4DD0000E366E000E376EEE
:10232800000E386E3A50890F395E2EC03AF031509F
:102338003A1A800E3A162D8EFF0E2C16FF0E2D1609
:10234800000E2E16308EFF0E2F16FF0E3016000EC2
:102358003116180E356E00D0D890363637363836E6
:102368002F502C5C30502D5831502E58D8A007D003
:102378002F502C5E30502D5A31502E5A3680D8901E
:102388002C362D362E36352EE7D700D036C011F034
:1023980037C012F038C013F039C014F03AC015F045
:1023A80081EC13F011C02CF012C02DF013C02EF0E8
:1023B80000D01200236E800E236069D09F0E18642F
:1023C80001D065D0FF0E1D6EFF0E1E6E195023C082
:1023D8001FF0206A1F26000E20221D501F261E50A7
:1023E800202220BE0AD0205004E1800E1F5CD8A015
:1023F80004D023500008800F196EFF0E1D6EFF0ECB
:102408001E6E1A5018C01FF0206A1F26000E2022C8
:102418001D501F261E50202220BE0BD0205004E144
:10242800A00E1F5CD8A005D018500008A00F1A6E87
:1024380000D018C014F0235019241D6E1D04156E09
:1024480018501A241E6E1E04166E2350CBEC1AF078
:102458001C50216E1BC022F0838083921AC018F092
:102468001850D8B413D001D011D019C023F023507C
:10247800D8B40AD001D008D02150FDEC1DF022506C
:10248800FDEC1DF02306F3D71806EAD78382120065
:102498001350115C1250800A156E1450800A15589A
:1024A800D8A002D0000E34D01350115C1250800A0C
:1024B800156E1450800A1558D8B04ED011C015F0BA
:1024C80012C016F0151E161E154A162A135015248A
:1024D800176E14501620186E18BE08D0185004E154
:1024E800330E175CD8A002D0640E12D018BE12D0DA
:1024F800185004E1190E175CD8A00CD018BE06D0ED
:10250800185008E1320E175CD8B004D017501724C1
:102518005C6E22D018BE13D0185004E10A0E175C66
:10252800D8A00DD018BE06D0185009E1190E175CB6
:10253800D8B005D01750010DF3CF5CF00DD018BE00
:102548000BD018BE06D0185007E10A0E175CD8B099
:1025580003D017C05CF000D05CC011F0126A120002
:10256800000E0101586F010156AF09D00101556DE8
:10257800561FD8B0562B010E0101586F00D001012B
:1025880054AF09D00101536D541FD8B0542B010E1C
:102598000101581B00D0000E01015A6F000E596F3F
:1025A8000101555101015611D8B431D0010E010174
:1025B800576F07D00101D890553756370101572B6F
:1025C80000D0010156BF02D0F5D700D00101D89044
:1025D80059375A37010155510101535D01015651CF
:1025E80001015459D8A00BD0010155510101535F85
:1025F800010156510101545B0101598100D00101CB
:10260800D890563355330101572FE0D700D0010138
:1026180058510101D8B406D00101596D5A1FD8B0DC
:102628005A2B00D059C153F15AC154F100D01200AD
:10263800000E536EC5EC18F0625084EC1CF06B6E03
:102648005F5084EC1CF0696E5E5084EC1CF0686E80
:102658005A5084EC1CF0666E605084EC1CF06A6E74
:102668006D5084EC1CF06C6E83EC0DF03BEC0AF0C2
:10267800010E0001F96F3CD09DEC17F0E806D8A4D4
:1026880037D0020E5D6431D0090E5D602ED0B2ECF9
:102698001DF0030E5D18D8A403D076EC1DF000D011
:1026A800040E5D18D8A403D082EC1DF000D0050EEE
:1026B8005D18D8A403D0D5EC1DF000D0060E5D1827
:1026C800D8A403D050EC15F000D0070E5D18D8A49C
:1026D80003D0A5EC15F000D0080E5D18D8A403D0DF
:1026E80061EC1EF000D05D6803D0BEEC1DF000D098
:1026F8000001F905D8B4C0D712001450D8B405D0D9
:10270800115012101310D8A40ED0000E116E000E26
:10271800126E000E136E53D006D0142AD8901332BE
:102728001232113200D0000E1114166E000E12145F
:10273800176EFE0E1314186E165017101810D8B412
:102748000ED0EBD70CD0142A010E1126000E12223F
:10275800000E1322D89013321232113200D0000E1C
:102768001114166E000E1214176EFF0E1314186E45
:10277800165017101810D8B408D0E5D706D014068C
:10278800D89011361236133600D012BE04D0020E7D
:102798001460F5D700D014B002D0129E00D0D890A3
:1027A8001432145013121550D8B402D0138E00D01E
:1027B80011C011F012C012F013C013F000D01200B3
:1027C800000E526E010E0001F76FF2EC1AF058502D
:1027D80084EC1CF0586E575084EC1CF0576E565021
:1027E80084EC1CF0566E58C065F057C064F056C0B3
:1027F80063F009EC0EF081EC10F03CD09DEC17F082
:10280800E806D8A437D0020E5D6431D0090E5D60A9
:102818002ED0B2EC1DF0030E5D18D8A403D08EECB8
:102828001DF023D0040E5D18D8A403D09AEC1DF037
:102838001CD0050E5D18D8A403D0A6EC1DF015D049
:10284800060E5D18D8A403D0A4EC1AF00ED0070E1B
:102858005D18D8A403D07DEC1AF007D0080E5D18D7
:10286800D8A403D071EC1EF000D05D6803D0BEEC94
:102878001DF000D00001F705D8B4C0D71200680ECB
:102888001A6E070E176E0E0E186E18C014F01A5036
:1028980023EC1CF0196E1950010B196E19502509FB
:1028A800196E18C013F019C014F01A501EEC1DF060
:1028B80047EC1EF01A501A24E6EC1BF01750E6EC11
:1028C8001BF0CAEC1DF0D8801A34E6EC1BF0010EA0
:1028D80063EC1BF0586E010E63EC1BF0576E010E93
:1028E80063EC1BF0566E000E63EC1BF0556E5850EF
:1028F8007F0B586E57507F0B576E56507F0B566E96
:1029080055508009556E47EC1EF01A501A24E6EC13
:102918001BF01750E6EC1BF05850E6EC1BF0575034
:10292800E6EC1BF05650E6EC1BF05550E6EC1BF0BD
:102938003EEC1EF01200416E040ECB6E070ECA6EFE
:10294800000E206E800E216E400E226E4150E8EC83
:102958001CF019C01DF01AC01EF01BC01FF013ECAC
:102968000FF01DC02CF01EC02DF01FC02EF0000E61
:102978002F6EA00E306E410E316E6DEC11F02CC032
:102988003EF02DC03FF02EC040F03EC02CF03FC0BE
:102998002DF040C02EF0FAEC10F02CC042F02DC003
:1029A80043F041503B6E3C6A42503B5C3C50800ACD
:1029B8003D6E4350800A3D58D8B003D0424A432A5E
:1029C80000D042C03BF0030E3B163B38F00B0C091D
:1029D800BD6E42C03BF043C03CF03C343C323B321D
:1029E8003C343C323B323B50BE6E120067C053F160
:1029F8000101546B000E0101566F640E556FB4EC63
:102A080012F0010153510001FD6F000E3E6E640E7D
:102A18003D6E67C03BF03C6A5CEC17F03BC053F17D
:102A28003CC054F1000E0101566F0A0E556FB4EC0C
:102A380012F0010153510001FE6F67C03BF03C6A80
:102A4800000E3E6E0A0E3D6E5CEC17F03B50000126
:102A5800FF6F0001FD51300F0001C76F0001FE51EB
:102A6800300F0001C86F0001FF51300F0001C96F1E
:102A78004A0E396EC70E3A6E000E3B6EF80E3D6E6A
:102A8800000E3C6E000E3F6E000E3E6E020E406E53
:102A9800280EFCEC0CF012003DD06850D8A403D0EE
:102AA800170E686E4BD0680649D0692A3C0E691823
:102AB800D8A403D0000E696E41D069063FD06B2AB6
:102AC8003C0E6B18D8A403D0000E6B6E37D06B0683
:102AD80035D06A04D8A403D00C0E6A6E2FD06A06CB
:102AE8002DD06AB007D06650D8A40AD01E0E06D0E2
:102AF80007D024D06650D8A403D01F0E666E1ED00F
:102B080066061CD06C50D8A403D0630E6C6E16D029
:102B18006C0614D05350000AD8B4BFD7010AD8B4F1
:102B2800C4D7030AD8B4CBD7010AD8B4D2D7070A76
:102B3800D8B4D7D7010AD8B4E5D700D03BEC0AF00F
:102B4800120035D0682A180E6818D8A444D0000E90
:102B5800686E41D0692A3C0E6918D8A43CD0000E92
:102B6800696E39D06B2A3C0E6B18D8A434D0000E8D
:102B78006B6E31D06A2A0D0E6A18D8A42CD0010EBB
:102B88006A6E29D0662A6AB007D01F0E6618D8A4C4
:102B980022D0010E666E1FD0200EF8D71CD06C2AEA
:102BA800640E6C18D8A417D0000E6C6E14D0535055
:102BB800000AD8B4C7D7010AD8B4CCD7030AD8B406
:102BC800D1D7010AD8B4D6D7070AD8B4DBD7010AB7
:102BD800D8B4E5D700D03BEC0AF0120013AE17D0FA
:102BE80011C017F012C018F013C019F0171E181EE4
:102BF800191E172A000E18221922000E1724116E0A
:102C0800000E1820126E800E1920136E00D016AE1A
:102C180017D014C017F015C018F016C019F0171EF9
:102C2800181E191E172A000E18221922000E172422
:102C3800146E000E1820156E800E1920166E00D026
:102C4800000E111A000E121A800E131A000E141A12
:102C5800000E151A800E161A1450115C15501258D1
:102C680016501358D8B002D0D89002D0D88000D0CF
:102C78001200010E0001F86F6EC067F08FEC0FF0C4
:102C8800FAEC14F03BD0010E01015B6F000E01015C
:102C98005C6F9DEC17F001015B195C11D8A42ED074
:102CA800000E0001F26F000EF16F040E5D6423D078
:102CB800090E5D6020D0B2EC1DF0050E5D18D8A499
:102CC80003D0E9EC1DF015D0060E5D18D8A403D08A
:102CD800F3EC1DF00ED0070E5D18D8A403D0DFEC7E
:102CE8001DF007D0080E5D18D8A403D069EC1EF0BB
:102CF80000D05D6803D0BEEC1DF000D00001F805DF
:102D0800D8B4C1D71200680E01015E6F000E010130
:102D18005F6F6B5091EC18F04150626E695091EC06
:102D280018F041505F6E685091EC18F041505E6E9B
:102D3800010E5B6E665091EC18F041505A6E6A5065
:102D480091EC18F04150606E6C5091EC18F04150C5
:102D58006D6E47EC1EF001015E515E25E6EC1BF03E
:102D680001015F51E6EC1BF06250E6EC1BF05F508E
:102D7800E6EC1BF05E50E6EC1BF05B50E6EC1BF05B
:102D88005A50E6EC1BF06050E6EC1BF06D50E6EC98
:102D98001BF03EEC1EF012000600EACF06F0E1CF71
:102DA80007F0E2CF08F0D9CF09F0DACF0AF0F3CF75
:102DB8000BF0F4CF0CF0F6CF0DF0F7CF0EF0F8CF04
:102DC8000FF0F5CF10F09EA003D09DEC1EF000D0C0
:102DD800F2A203D00FEC0BF000D0F0A003D0BCECB3
:102DE8001EF000D0F0A203D0B7EC1EF000D010C047
:102DF800F5FF0FC0F8FF0EC0F7FF0DC0F6FF0CC0BF
:102E0800F4FF0BC0F3FF0AC0DAFF09C0D9FF08C0FE
:102E1800E2FF07C0E1FF06C0EAFF05C0E9FF04C002
:102E2800FBFF03C0FAFF1100226E800E22603FD024
:102E38009F0E186401D03BD0FF0E1C6EFF0E1D6E56
:102E4800195018C01EF01F6A1E26000E1F221C50A3
:102E58001E261D501F221FBE0BD01F5004E1A00EBE
:102E68001E5CD8A005D018500008A00F196E00D01D
:102E78001B50206E1AC021F018C014F022C015F0A3
:102E8800185019241C6E1C04166E2250CBEC1AF034
:102E98008380839207D02050FDEC1DF02150FDEC7B
:102EA8001DF000D019061928D8A4F5D7838212007E
:102EB800000E406E3CAE07D03B6C3C1ED8B03C2A9E
:102EC800010E406E00D03EAE05D03D6C3E1ED8B01F
:102ED8003E2A00D03D503E10D8B41DD0010E3F6EA2
:102EE80005D0D8903D363E363F2A00D03EBE02D0AF
:102EF800F8D700D03D503B5C3E503C58D8A005D098
:102F08003D503B5E3E503C5A00D0D8903E323D3258
:102F18003F2EF0D700D04050D8B405D03B6C3C1EB3
:102F2800D8B03C2A00D03BC03BF03CC03CF000D0BD
:102F380012000001F1050001F211D8A439D0000EE9
:102F48000001F26F000EF16FF288F19C5D68000ECF
:102F58003B6E000E3A6E3BBE08D03B501CE1150E8E
:102F68003A5CD8B018D001D016D01F0E3A24D96ECA
:102F7800010E3B20DA6E0001FA51DE18D8A407D002
:102F88003AC05DF0000E3B6E150E3A6E00D03A4A1C
:102F98003B2AE1D700D05D28D8A408D0E80E1D6EE2
:102FA800FE0E1E6E03EC05F0000E02D0010E00D0DE
:102FB8001200C5EC18F05AC055F0680E01015E6F9A
:102FC800070E01015F6F635091EC18F04150566E87
:102FD800645091EC18F04150576E655091EC18F020
:102FE8004150586E58507F0B586E57507F0B576E94
:102FF80056507F0B566E55508009556E47EC1EF0A3
:1030080001015E515E25E6EC1BF001015F51E6EC23
:103018001BF05850E6EC1BF05750E6EC1BF05650EE
:10302800E6EC1BF05550E6EC1BF03EEC1EF01200EF
:1030380000EEE2F01B0EEE6AE806FDE100EE44F059
:103048002A0EEE6AE806FDE1B00EF66E330EF76E54
:10305800000EF86E01EE00F010EE53F00900F5CF07
:10306800EEFFE550E150FAE1EE0EF66E310EF76E26
:10307800000EF86E00EE80F010EE62F00900F5CF59
:10308800EEFFE550E150FAE1A20EF66E3D0EF76E46
:10309800000EF86E0900F5CF6EF00900F5CF6FF05D
:1030A800000EF86E0001B0EF06F0136E000EAC6E65
:1030B800000EAB6E13A002D0AC8800D013A203D0D0
:1030C800AC8CAB8C00D013A402D0AC8E00D013A66D
:1030D80002D0AB8802D0AB8A00D013B8AC849E98DB
:1030E80013AA02D0AB8600D013AC02D09D8A01D0BF
:1030F8009D9A9E9A13AE02D09D8801D09D9811C0CA
:10310800AFFF1250B06EAC8AAB8E949C948EACB864
:10311800ACBE02D0948C00D0120001015D6F5DC17D
:1031280053F10101546B000E0101566F0A0E556FE1
:10313800B4EC12F053C1FDF054C1FEF00001FD3BA8
:10314800FE3BF00EFE17FD510F0BFE13F00EFD17A0
:103158005DC13BF03C6A000E3E6E0A0E3D6E5CECB3
:1031680017F03B500001FD2501015B6F3C50000149
:10317800FE2101015C6F5BC141F05CC142F000D0EF
:103188001200680E156E000E146E47EC1EF01550F6
:103198001524E6EC1BF01450E6EC1BF0CAEC1DF00D
:1031A800D8801534E6EC1BF0010E63EC1BF0626E60
:1031B800010E63EC1BF05F6E010E63EC1BF05E6E9C
:1031C800010E63EC1BF05B6E010E63EC1BF05A6E94
:1031D800010E63EC1BF0606E000E63EC1BF06D6E6D
:1031E8003EEC1EF012000130303A30303A303000F8
:1031F80030302F30302F30300030303A30303A30E5
:10320800300030312F30312F30300030303A30300C
:103218003A30300030303A30303A303000302E30EA
:1032280030560030373546003030303000303735D2
:1032380046004F464600303030004F4646002B329D
:1032480035002B3737003000000E166E000E156E55
:1032580013501410D8B421D0010E176E05D0D89091
:1032680013361436172A00D014BE02D0F8D700D06F
:10327800D890153616361350115C14501258D8A031
:1032880006D01350115E1450125A158000D0D890F1
:1032980014321332172EECD700D015C011F016C017
:1032A80012F0120007EC1EF090EC1EF0700ED36EB8
:1032B8000E0EC16E110E926E070E936E010E946E75
:1032C800000E956E000E966E000E846E000E506E07
:1032D800F19E000EB26E030EB16EA00E116E860E38
:1032E800126E010E136E000E146EA8EC1EF03EEC6A
:1032F8001DF0FBEC1CF0A3EC1EF04B0E6E6E1200E2
:10330800C2EC1CF011C019F012C01AF0D5EC1CF078
:1033180019C02FF01AC030F01BC031F02FC01DF0BB
:1033280030C01EF031C01FF0E80E206E9F0E216ED7
:103338003B0E226E13EC0FF01DC032F01EC033F0AE
:103348001FC034F032C02CF033C02DF034C02EF042
:1033580000D0120048C011F049C012F06EC013F03E
:10336800146A4CEC12F011505C6E5C509FEC14F037
:103378005004D8A418D06E500001FD6FFE6B0001F8
:10338800FD51485C4950800A0001FF6F0001FE5161
:10339800800A0001FF59D8B003D059EC1EF003D0C1
:1033A800A3EC1EF000D012002045434533333031E2
:1033B8004C20537027323220533320000000000085
:1033C80000000000000000A262E22202C2E0A89011
:1033D8006898B030187A10385A424A5200000100F2
:1033E80002000300040005000600070000010203B4
:1033F800040506070103020405060700680E1F6E90
:103408000E0E1B6E0F0E1C6E1BC014F01F5023EC0B
:103418001CF01D6E1D5001091D6E1BC013F01DC050
:1034280014F01F501EEC1DF01CC014F01F5023ECAC
:103438001CF01E6E1E50FE0B1E6E1CC013F01EC02C
:1034480014F01F501EEC1DF043EC14F01200680E2F
:103458001F6E0E0E1B6E0F0E1C6E1BC014F01F503D
:1034680023EC1CF01D6E1D50FE0B1D6E1BC013F0CF
:103478001DC014F01F501EEC1DF01CC014F01F508E
:1034880023EC1CF01E6E1E50FE0B1E6E1CC013F0AB
:103498001EC014F01F501EEC1DF043EC14F0120077
:1034A80017C011F018C012F0000E146E7D0E136EC6
:1034B800AEEC1CF011C01BF012C01CF01BC019F0C0
:1034C8001CC01AF0191E1A1E194A1A2AFF0E1924AE
:1034D8001B6EFF0E1A201C6E030ED56E1BC0D6FF86
:1034E8001C50D76EF294D58E00D0F2A4FED7D59E8C
:1034F800120018D0632A180E6318D8A41ED0000E24
:10350800636E1BD0642A3C0E6418D8A416D0000E33
:10351800646E13D0652A3C0E6518D8A40ED0000E30
:10352800656E0BD05250000AD8B4E4D7010AD8B45B
:10353800E9D7030AD8B4EED700D081EC10F0120016
:1035480018D06350D8A403D0170E636E1DD063063D
:103558001BD06450D8A403D03B0E646E15D064060B
:1035680013D06550D8A403D03B0E656E0DD0650608
:103578000BD05250000AD8B4E4D7010AD8B4E9D71E
:10358800030AD8B4EED700D081EC10F01200176E01
:103598002A0E81EC1EF0000E79EC1EF0175059240B
:1035A80079EC1EF0000E79EC1EF01550592479ECD8
:1035B8001EF02B0E81EC1EF0000E79EC1EF014505C
:1035C800612479EC1EF0000E79EC1EF0165061248F
:1035D80079EC1EF02C0E81EC1EF01200680E156EB0
:1035E800070E146E47EC1EF015501524E6EC1BF080
:1035F8001450E6EC1BF0CAEC1DF0D8801534E6EC4C
:103608001BF0010E63EC1BF0586E010E63EC1BF00F
:10361800576E010E63EC1BF0566E000E63EC1BF048
:10362800556E3EEC1EF012001A501B10D8B41DD077
:10363800010E1C6E05D0D8901A361B361C2A00D0F5
:103648001BBE02D0F8D700D01A50185C1B5019586E
:10365800D8A005D01A50185E1B50195A00D0D8901F
:103668001B321A321C2EF0D700D018C018F019C01F
:1036780019F012002B6E2BC02CF02D6A0ED023C02F
:1036880018F025C019F026C01AF027C01BF02C50DE
:1036980018EC17F02C4A2D2A00D024502BC028F003
:1036A800296A2826000E292228502C5C2D50800AD1
:1036B8002A6E2950800A2A58D8A0E1D71200116E24
:1036C800C9EC1EF0000E126E070E126401D00FD066
:1036D80097EC1EF083AC03D0D880133604D0135077
:1036E8001324136E00D0C5EC1EF0122AEDD711502A
:1036F800D8B403D050EC1EF003D0ADEC1EF000D0CF
:10370800135000D01200B2CF53F10101546B000ED8
:103718000101566F020E556FB4EC12F053C1FDF063
:1037280054C1FEF0000EB26EFDC011F0FEC012F0E2
:10373800000E146E3C0E136EAEEC1CF011C041F07E
:1037480012C042F000D012002A0E81EC1EF0000ECA
:1037580079EC1EF0000E79EC1EF0000E79EC1EF0EC
:103768007F0E79EC1EF02B0E81EC1EF0000E79EC2A
:103778001EF0000E79EC1EF0000E79EC1EF09F0E84
:1037880079EC1EF0120011C015F012C016F003D02B
:10379800154A162A00D015C0D9FF16C0DAFFDF5027
:1037A800D8A4F6D711C013F012C014F0131E141EBB
:1037B800134A142A15501324116E16501420126E31
:1037C80000D01200116E000E126E070E126401D0A6
:1037D80011D011AE03D0C9EC1EF003D0B2EC1EF02C
:1037E80000D097EC1EF0C5EC1EF011501124116E9C
:1037F800122AEBD7C9EC1EF097EC1EF0C5EC1EF0B0
:103808001200480E186EAA0E166E47EC1EF01850DD
:103818001824E6EC1BF01650E6EC1BF0CAEC1DF081
:10382800D8801834E6EC1BF0000E63EC1BF0176E22
:103838003EEC1EF017C014F0156A00D01200166E88
:1038480047EC1EF016501624E6EC1BF01450E6EC7C
:103858001BF0CAEC1DF0D8801634E6EC1BF0000E05
:1038680063EC1BF0156E3EEC1EF0155000D01200F4
:1038780011C015F012C016F005D0154A162A134AC1
:10388800142A00D013C0F6FF14C0F7FF15C0D9FFE3
:1038980016C0DAFF0800F5CFDFFFDF50D8A4EDD758
:1038A80012001B6E800E1B6013D09F0E186401D08F
:1038B8000FD018C014F01B28156E1828166E1B5050
:1038C800CBEC1AF01A5079EC1EF0195079EC1EF076
:1038D8001200236E21EE34F010EE13F00F0EDBCF42
:1038E800E3FFE806FCE22350020D130EF324D96E21
:1038F800000EF420DA6EDF50846E5BEC1DF01200CF
:10390800156E15C011F00F0E111615C012F0123AEF
:103918000F0E121612500A0D1150F324136E000EDA
:10392800F420146E135000D0120083828390800E0E
:10393800C76E300EC66E74EC0CF0A8EC1BF008ECE9
:1039480010F0360E81EC1EF0C00E79EC1EF0010E60
:10395800546E120011501302F3CF15F0F4CF16F085
:1039680011501402F350162612501302F350162663
:1039780015C011F016C012F000D01200C28200D09B
:10398800C2B2FED7C450146E136AC3501324156E06
:10399800000E1420166E15C011F016C012F000D0DB
:1039A800120019C011F01AC012F0136A8E0E146EAC
:1039B800000E156E81EC13F011C019F012C01AF048
:1039C80013C01BF000D012001C6E1C50116E126A3E
:1039D800136A8E0E146E000E156E81EC13F011C072
:1039E80019F012C01AF013C01BF000D01200F292A6
:1039F800F090F092F288F086F088F19CF19AF198B4
:103A0800000ECF6E000ECE6E9E909D80F28CF28ED0
:103A18001200136E000E126E3A0E136006D02F0EAF
:103A2800136403D0010E126E00D012C011F01130D1
:103A380000D01200156E47EC1EF015501524E6EC68
:103A48001BF01350E6EC1BF01450E6EC1BF03EECB8
:103A58001EF01200156E47EC1EF015501524E6EC0A
:103A68001BF01350E6EC1BF01450E6EC1BF03EEC98
:103A78001EF01200480E166EAC0E136E020E146E77
:103A880016502EEC1DF0EE0E136E165069EC1DF05C
:103A98001200000E186E800E196EA00E1A6E24C049
:103AA8001BF025C01CF0000EDEEC11F01200000E19
:103AB800126E000E116E800E125CD8B005D001D0C7
:103AC80003D0114A122AF7D71200146E47EC1EF0E1
:103AD80014501424E6EC1BF01350E6EC1BF03EECFB
:103AE8001EF012005350D8A403D0050E536E02D016
:103AF800530600D053508AEC08F01200532A060EE1
:103B08005318D8A403D0000E536E00D05350ADEC18
:103B180007F012005250D8A403D0020E526E02D001
:103B2800520600D052508AEC08F01200522A030EB6
:103B38005218D8A403D0000E526E00D05250ADECEB
:103B480007F01200DDEC17F0F2EC1AF0C5EC18F0F3
:103B580043EC03F0000E0001F76F1200818E2CEC8D
:103B68001EF05BEC1DF0819EC1EC1EF05C509FECDA
:103B780014F01200818E35EC1EF05BEC1DF0819E76
:103B8800C1EC1EF05C509FEC14F01200C5EC1EF066
:103B9800C9EC1EF097EC1EF0B2EC1EF0C5EC1EF05E
:103BA800120087EC16F0C5EC18F043EC03F0000E99
:103BB8000001F96F1200672A780E676403D0780E47
:103BC800676E00D0FAEC14F0120067C06EF0C5EC16
:103BD80018F043EC03F0000E0001F86F12006706BE
:103BE800320E676003D0320E676E00D0FAEC14F024
:103BF8001200126E9E96C9CF11F012C0C9FF00D0F4
:103C0800C7A0FED71200000E126E190E116E3C0EE0
:103C180059EC18F0700ED36E120081BA03D059EC2B
:103C28001EF003D0A3EC1EF000D01200F90ECB6EEC
:103C3800050ECA6E4A0EBB6E3C0EBA6E1200839415
:103C4800000E186E640E176E54EC1AF0838412007E
:103C5800F90ECB6E050ECA6E7C0EBB6E3C0EBA6EAC
:103C68001200F90ECB6E070ECA6E7C0EBB6E3C0EB0
:103C7800BA6E1200C5EC1EF0B2EC1EF097EC1EF006
:103C8800C9EC1EF01200C9EC1EF097EC1EF0B2EC65
:103C98001EF0C5EC1EF01200B2EC1EF097EC1EF000
:103CA800C5EC1EF0C9EC1EF01200010E506E838E9A
:103CB8005C509FEC14F0818A1200C5EC18F043ECBC
:103CC80003F0000E0001F96F1200C5EC18F043EC88
:103CD80003F0000E0001F86F1200C5EC18F043EC79
:103CE80003F0000E0001F76F1200136E83928380B9
:103CF8001350FDEC1DF083821200136E83928390A3
:103D08001350FDEC1DF083821200116E00D0ACA29E
:103D1800FED711C0ADFF1200010EC26E0E0EC16EAD
:103D2800A90EC06E12009388060EE82EFED700D0AA
:103D38001200000E516EF19CCD909E901200000E64
:103D4800506E839E819A120097EC1EF0C9EC1EF00B
:103D5800120097EC1EF0C5EC1EF01200839C959C97
:103D680000D000D01200F092010E0001F66F120090
:103D7800F090010E0001F56F1200000EBA6E8196E8
:103D880012008198939800D01200958C00D000D032
:0C3D98001200000E516ECD9012004BFF87
:10FCC40000000000000000005F00000007000700C3
:10FCD400147F147F14242A7F2A12231308646236A3
:10FCE400495620500008070300001C22410000412F
:10FCF400221C002A1C7F1C2A08083E080800807069
:10FD0400300008080808080000606000201008049B
:10FD1400023E5149453E00427F40007249494946EE
:10FD24002141494D331814127F1027454545393C6C
:10FD34004A49493141211109073649494936464959
:10FD440049291E000014000000403400000008147B
:10FD540022411414141414004122140802015909F4
:10FD6400063E415D594E7C1211127C7F4949493649
:10FD74003E414141227F4141413E7F494949417FC2
:10FD8400090909013E414151737F0808087F004178
:10FD94007F41002040413F017F081422417F4040C1
:10FDA40040407F021C027F7F0408107F3E41414196
:10FDB4003E7F090909063E4151215E7F0919294602
:10FDC400264949493203017F01033F4040403F1F18
:10FDD4002040201F3F4038403F631408146303044D
:10FDE4007804036159494D43007F414141020408AD
:10FDF4001020004141417F04020102044040404080
:10FE040040000307080020545478407F28444438B5
:10FE14003844444428384444287F385454541800FF
:10FE2400087E090218A4A49C787F0804047800447E
:10FE34007D40002040403D007F1028440000417F69
:10FE440040007C047804787C0804047838444444F2
:10FE540038FC1824241818242418FC7C08040408EA
:10FE6400485454542404043F44243C4040207C1C03
:10FE74002040201C3C4030403C44281028444C90F6
:10FE840090907C4464544C44000836410000007750
:10FE940000000041360800020102040201000A00C9
:10FEA4006400E80310270100100000010010253051
:10FEB40032783A253032783A25303278202530327B
:10FEC400782F253032782F2530327800616C6172BA
:10FED4006D203D20256420486561746572203D20B5
:10FEE4002564200043616E6E6F742066696E642021
:10FEF400627574746F6E200D0A002054656D702055
:10FF04003D2025642043203D2025642046200020F8
:10FF1400454345333330314C20537027323220531C
:10FF240033000052504D203D20256420206463207E
:10FF34003D2025640D0A00454345333330314C20C0
:10FF44005370273232205333003031323334353654
:10FF540037383961626364656600536574204865A7
:10FF6400617465722054656D700054656D706572BE
:10FF740061747572653A0048545220536574205474
:10FF8400656D700054696D6520536574757000006B
:10FF9400202048656174657200200025783A257830
:10FFA4003A25780D0A00416C61726D2054696D65C3
:10FFB4000020205365747570002000416C61726DDF
:10FFC400205357002020416C61726D00202053653E
:10FFD400747570004854522053570044617465008E
:10FFE400566F6C74004F4E20004F46460052504DE1
:0CFFF40000432F00444300524D00000069
:020000040020DA
:08000000FFFFFFFFFFFFFFFF00
:020000040030CA
:0E000000FF08191EFF8281FF0FC00FE00F40A6
:00000001FF
