:04000000CAEF7FF0D4
:10FF94000001DFEF7FF0000E026E000E016E02BE64
:10FFA40008D0680E015C420E0258D8B005D001D0CA
:10FFB40003D0014A022AF3D712009268000E946E0D
:10FFC400000E956E0F0EC16E000E056E070E0564D1
:10FFD40001D0FAD705C004F005500008070F036EDE
:10FFE40004500F0B046E04C083FF03C082FFCDECEA
:0CFFF4007FF0052AEBD7E8D700EF00F003
:020000040020DA
:08000000FFFFFFFFFFFFFFFF00
:020000040030CA
:0E000000FF08191EFF8281FF0FC00FE00F40A6
:00000001FF
