:0400000094EF7CF00D
:10F82600000EBA6E819612000E0EC16EA90EC06E43
:10F836001200FF792430191202780010016E01506F
:10F84600040DF328C26E1200839E57EC7CF0838E63
:10F8560057EC7CF01200F90ECB6E050ECA6E4A0EFE
:10F86600BB6E3C0EBA6E1200000E026E190E016ED1
:10F876003C0E7AEC7DF0600ED36E1200838E2EEC79
:10F886007CF057EC7CF0839E13EC7CF057EC7CF01C
:10F8960012001F0E926E000E936E000E946E000EF6
:10F8A600956E000E966E1200020ED56EDB0ED66EAB
:10F8B6000B0ED76EF294D58E00D0F2A4FED7D59E4D
:10F8C6001200016E000E026E04D027EC7CF0022AB4
:10F8D60000D00150025CD8A0F8D71200026E025088
:10F8E600010D260EF324D96E000EF420DA6EDF50D9
:10F8F600016E8350800B0110836E1200C28200D00D
:10F90600C2B2FED7C450046E036AC3500324056E08
:10F91600000E0420066E05C001F006C002F000D0FD
:10F926001200380EF66EF80EF76E000EF86E00EE48
:10F9360026F010EE0AF00900F5CFEEFFE550E15093
:10F94600FAE1000EF86E0001B2EF7DF0016E015093
:10F95600010D260EF324D96E000EF420DA6EDF5068
:10F966003F0B826E0150010D260EF324D96E000E58
:10F97600F420DA6EDFBC02D0849202D0848200D0FA
:10F986001200016E0AD0819801D08188819A13D025
:10F99600819801D08188818A0ED00150000AD8B49E
:10F9A600F2D7010AD8B4F1D7030AD8B4F1D7010ABD
:10F9B600D8B4F0D700D01200016E0AD0849001D0DE
:10F9C6008480849413D0849001D0848084840ED063
:10F9D6000150000AD8B4F2D7010AD8B4F1D7030A05
:10F9E600D8B4F1D7010AD8B4F0D700D01200016E0E
:10F9F6000AD0809A01D0808A819013D0809A01D053
:10FA0600808A81800ED00150000AD8B4F2D7010A4C
:10FA1600D8B4F1D7030AD8B4F1D7010AD8B4F0D7CD
:10FA260000D01200016E0AD0819201D081828194A9
:10FA360013D0819201D0818281840ED00150000AB8
:10FA4600D8B4F2D7010AD8B4F1D7030AD8B4F1D79B
:10FA5600010AD8B4F0D700D01200000E0C6E0AAE20
:10FA660007D0096C0A1ED8B00A2A010E0C6E00D007
:10FA760009C001F00AC002F0036A8E0E046E0CC0C3
:10FA860005F0AEEC7EF001C009F002C00AF003C03A
:10FA96000BF000D01200046E000E71EC7CF0000E2C
:10FAA600A9EC7CF00304056E0550D8B417D00AD033
:10FAB60015D008D00550A9EC7CF00CD0055071EC9F
:10FAC6007CF008D00450000AD8B4F4D7010AD8B4A0
:10FAD600F5D700D041EC7CF00506E6D7000E71ECB8
:10FAE6007CF0000EA9EC7CF041EC7CF01200036E79
:10FAF600000EAC6E000EAB6E03A002D0AC8800D038
:10FB060003A203D0AC8CAB8C00D003A402D0AC8E85
:10FB160000D003A602D0AB8802D0AB8A00D003B8CF
:10FB2600AC849E9803AA02D0AB8600D003AC02D068
:10FB36009D8A01D09D9A9E9A03AE02D09D8801D0DF
:10FB46009D9801C0AFFF0250B06EAC8AAB8E949CFC
:10FB5600948EACB8ACBE02D0948C00D0120017ECD8
:10FB66007CF037EC7CF04CEC7CF000D0000E21EC05
:10FB76007CF081EC7CF001C022F002C023F022C0B0
:10FB860009F023C00AF030EC7DF009C00DF00AC080
:10FB96000EF00BC00FF0000E106E800E116E400EB0
:10FBA600126E84EC7FF00DC01CF00EC01DF00FC06D
:10FBB6001EF01CC01FF01DC020F01EC021F01FC08B
:10FBC60001F020C002F021C003F011EC7FF001C06B
:10FBD60024F002C025F025BE06D0B80E245C0B0E1C
:10FBE6002558D8B004D0818E51EC7EF0BFD7819EC7
:10FBF60000EC7EF0BBD700EF00F0010E15EC7DF0B7
:10FC0600010EC4EC7CF0010EDFEC7CF0020EFAEC87
:10FC16007CF0080E64EC7CF0030EFAEC7CF0030E2C
:10FC260064EC7CF0010EFAEC7CF080A810D0020E99
:10FC3600DFEC7CF0060E64EC7CF0030EDFEC7CF06F
:10FC4600030E64EC7CF0010EDFEC7CF010D0020EAB
:10FC5600C4EC7CF0060E64EC7CF0030EC4EC7CF085
:10FC6600030E64EC7CF0010EC4EC7CF000D080A4A2
:10FC760010D0020E15EC7DF0080E64EC7CF0030E3D
:10FC860015EC7DF0030E64EC7CF0010E15EC7DF0B6
:10FC960004D0010E15EC7DF000D01200010E15EC1B
:10FCA6007DF0010EC4EC7CF0010EDFEC7CF0020E60
:10FCB600FAEC7CF080A206D0080E036E000E4EEC25
:10FCC6007DF000D0070E64EC7CF0030EFAEC7CF0BD
:10FCD600030E64EC7CF0010EFAEC7CF080A80FD0E9
:10FCE600020EDFEC7CF0080E64EC7CF0030EDFEC19
:10FCF6007CF0030E64EC7CF0010EDFEC7CF0020E6F
:10FD0600C4EC7CF080A606D0090E036E010E4EEC04
:10FD16007DF000D0020EC4EC7CF0090E64EC7CF0A1
:10FD2600030EC4EC7CF0030E64EC7CF0010EC4EC14
:10FD36007CF080A40CD0020E15EC7DF0080E64EC6D
:10FD46007CF0030E15EC7DF0030E64EC7CF0010EE6
:10FD560015EC7DF012000450D8B405D00150021005
:10FD66000310D8A40ED0000E016E000E026E000E17
:10FD7600036E53D006D0042AD890033202320132E1
:10FD860000D0000E0114066E000E0214076EFE0E61
:10FD96000314086E065007100810D8B40ED0EBD71F
:10FDA6000CD0042A010E0126000E0222000E0322A8
:10FDB600D89003320232013200D0000E0114066ED2
:10FDC600000E0214076EFF0E0314086E065007108D
:10FDD6000810D8B408D0E5D706D00406D890013666
:10FDE6000236033600D002BE04D0020E0460F5D7F8
:10FDF60000D004B002D0029E00D0D8900432045045
:10FE060003120550D8B402D0038E00D001C001F011
:10FE160002C002F003C003F000D0120003C005F0D8
:10FE2600066A076A0234053601E3068005500F6E3E
:10FE36000F50D8A402D039D063D0170E056E01C07A
:10FE460006F002C007F003C008F00528096E04D0CA
:10FE5600D890083207320632092EFAD706500A6EB3
:10FE6600028EFF0E0116FF0E0216000E031601503B
:10FE76000B6E02500C6E03500D6E0E6A8E0E0F5EE8
:10FE86000FAE10D00F50800A8F0FD8B003D00DD010
:10FE960037D000D0D8900E320D320C320B320F3ED6
:10FEA600F9D719D0170E0F6411D0000E016E000E8F
:10FEB600026E000E036E000E046E22D007D0D8909C
:10FEC6000B360C360D360E360F0600D00F50D8B452
:10FED60002D0F5D700D00A50D8B409D00E1E0D1E98
:10FEE6000C1E0B6C000E0C220D220E2200D00BC035
:10FEF60001F00CC002F00DC003F00EC004F000D0FB
:10FF060012000FC013F0146A156A0E34133601E39B
:10FF160014801350166E1650D8A402D00ED06CD092
:10FF260012C013F0146A156A1134133601E31480F3
:10FF360013501B6E1B50D8A407D0000E0D6E000E7A
:10FF46000E6E000E0F6E58D01B507B0F16260FC07C
:10FF56001BF012501B1A800E1B160E8E118EFF0EF2
:10FF66001016FF0E1116000E1216000E176E000E5A
:10FF7600186E000E196E070E1A6E00D00DA007D06F
:10FF860010501726115018221250192200D0D8905E
:10FF96000F320E320D32D8901036113612361A2E16
:10FFA600EDD700D0090E1A6E00D00DA007D0105064
:10FFB6001726115018221250192200D0D8900F324D
:10FFC6000E320D32D8901932183217321A2EEDD75A
:10FFD60000D017C001F018C002F019C003F016C017
:10FFE60004F01BC005F0AEEC7EF001C00DF002C0BF
:0AFFF6000EF003C00FF000D012005F
:020000040020DA
:08000000FFFFFFFFFFFFFFFF00
:020000040030CA
:0E000000FF08191EFF8281FF0FC00FE00F40A6
:00000001FF
