:040000000CEF00F011
:10000800FACF03F0FBCF04F0E9CF05F046ED10F08E
:1000180006EF10F01F0E0101806F000E0101816FC5
:10002800AAEF04F0250E01018719D8B406D0010102
:1000380087510CEC15F0AAEF04F0000E0101866F51
:10004800000E856F000E0101896F000E886F0FD0BA
:100058000101888708D00101888105D001018987BD
:1000680002D0010188851D4A1E2A01D014D01DC066
:10007800F6FF1EC0F7FF0800F550200AD8B4EBD7EA
:10008800030AD8B4EBD70E0AD8B4E2D71D0AD8B4FD
:10009800E8D701D0ECD7010188A703D001018895E2
:1000A80000D01DC0F6FF1EC0F7FF0800F5503CEC5D
:1000B80014F0D8A038D0000E0101866F000E856FAD
:1000C80000D085C111F086C112F0000E146E0A0E20
:1000D800136E15EC14F011C085F112C086F1D00E24
:1000E8002B6EFF0E2C6E1DC0F6FF1EC0F7FF08001A
:1000F800F5502D6E2E6A2B502D262C502E222D5069
:10010800010185272E50010186231D4A1E2A1DC084
:10011800F6FF1EC0F7FF0800F5503CEC14F0D8A01D
:100128001BD0CFD719D01DC0F6FF1EC0F7FF08009F
:10013800F5502A0AD8A410D080C1D9FF81C1DAFFAE
:10014800DECF85F1DDCF86F1020E01018027000E9A
:1001580081231D4A1E2A00D01DC0F6FF1EC0F7FFCE
:100168000800F5502E0AD8A43ED00101898D1D4AF9
:100178001E2A1DC0F6FF1EC0F7FF0800F5502A0A08
:10018800D8A40FD080C1D9FF81C1DAFFDF500101A7
:10019800846F020E01018027000E81231D4A1E2A4A
:1001A800C1D0000E0101846F12D01DC0F6FF1EC021
:1001B800F7FF0800F5CF2BF0010184510A0DF35029
:1001C8002B24D00F0101846F1D4A1E2A00D01DC0A8
:1001D800F6FF1EC0F7FF0800F5503CEC14F0D8A05D
:1001E800A1D0E3D79FD0000E0101846F9BD0BED36E
:1001F8000101888DBBD00101888B0101888FB6D0A1
:10020800010184510101D8B415D084C12BF02C6AA6
:100218002BBE2C0601017E512B5C01017F512C580D
:10022800D8B008D00101845101017E6F7F6B7EBF79
:100238007F0700D00101855101017E5D01018651D2
:1002480001017F59D8B009D001017E510101855FB4
:1002580001017F510101865B06D0000E0101866F06
:10026800000E856F00D0010188A706D01DD004D0EC
:10027800200E0CEC15F000D001018507D8A08607E8
:1002880001018529F5E101018629D8B40DD0F0D7FF
:100298000BD076C1D9FF77C1DAFFDF500CEC15F02F
:1002A8000101764B772B00D001017E07D8A07F078C
:1002B80001017E29EEE101017F29D8A4EAD70101D5
:1002C80088B706D043D304D0200E0CEC15F000D02C
:1002D80001018507D8A0860701018529F5E10101FB
:1002E8008629D8B433D3F0D731D380C1D9FF81C19F
:1002F800DAFFDF500101876F020E01018027000E2F
:10030800812300D0870E0101766F010E0101776FFE
:10031800000E01017F6F010E7E6F72D7C00E0101C2
:10032800881324D01DC0F6FF1EC0F7FF1D4A1E2AE1
:100338000800F5CF87F101018751000AD8B416D318
:10034800580AD8B458D73B0AD8B4CFD7070AD8B474
:100358000DD00D0AD8B40AD0060AD8B449D71A0A5B
:10036800D8B4DCD70D0AD8B448D7CCD7C00E010111
:1003780088152B6E000E010189152C6E2B502C1040
:10038800D8A419D080C1D9FF81C1DAFFDECF82F1AC
:10039800DDCF83F1020E01018027000E81230101C8
:1003A80083AF17D0030E010188130101826D831FEB
:1003B800D8B0832B0ED080C1D9FF81C1DAFFDECF40
:1003C80082F1DDCF83F1020E01018027000E812327
:1003D80000D0010184510101D8A473D001018251D8
:1003E80001018311D8A46DD00101842B6AD000D0FB
:1003F800010E0101876F050E01018719D8B471D06C
:1004080001D06FD001018751020DD40EF324F66E8E
:10041800FE0EF420F76E0900F5500101825D090017
:10042800F55001018359D8A05CD001D05AD0010100
:10043800872BE1D756D0010E0101876F040E010109
:100448008719D8B44ED001D04CD001018751020D84
:10045800DE0EF324F66EFE0EF420F76E0900F5505A
:100468000101825D0900F55001018359D8A039D0F6
:1004780001D037D00101872BE1D733D0010E01011C
:10048800876F060E01018719D8B42BD001D029D067
:1004980001018751020DC80EF324F66EFE0EF420FA
:1004A800F76E0900F5500101825D0900F550010160
:1004B8008359D8A016D001D014D00101872BE1D7D9
:1004C80010D001018851C00B000AD8B491D7400A56
:1004D800D8B4D4D7C00AD8B4AED7400AD8B488D7CD
:1004E80000D001018751800A2B6E01018451800AD6
:1004F8002B5CD8B003D084C187F10DD001018451A1
:10050800800A2B6E01018751800A2B5CD8B003D07A
:1005180087C184F100D00101855101018611D8B449
:1005280011D0030E010188152B6E000E01018915EB
:100538002C6E2B502C10D8B405D001018507D8A0FB
:10054800860700D0010189AD20D0800E010184BF4B
:100558007F0E2B6E010185510101845D01018651D9
:10056800800A2B58D8B00BD0010184510101855F56
:10057800000E010184BFFF0E0101865B06D0000E4C
:100588000101866F000E856F00D0C40E2B6E080E19
:100598002C6E88C12DF089C12EF02B502D162C50B1
:1005A8002E16400E2D180FE1080E2E18D8A40BD0C9
:1005B8000101855101018611D8B42FD001018507A9
:1005C800D8A086072AD0C00E2B6E080E2C6E88C1C4
:1005D8002DF089C12EF02B502D162C502E16800E82
:1005E8002D181BE1080E2E18D8A417D0010186BFBC
:1005F8000ED00101865105E1030E0101855DD8A0E9
:1006080006D00101FE0E8527FF0E862306D0000EB8
:100618000101866F000E856F00D0800E010187BF33
:100628007F0E2B6E010185510101875D0101865105
:10063800800A2B58D8B00BD0010187510101855F82
:10064800000E010187BFFF0E0101865B06D0000E78
:100658000101866F000E856F00D0010188A555D075
:10066800030E010188152B6E000E010189152C6EF1
:100678002B502C10D8B404D02D0E0CEC15F030D023
:10068800010188A104D0200E0CEC15F029D0C00E71
:100698002B6E080E2C6E88C12DF089C12EF02B50C0
:1006A8002D162C502E16800E2D181AE1080E2E1815
:1006B800D8A416D0300E0CEC15F0010188BB05D07B
:1006C800000E0101796F780E04D0000E0101796FD8
:1006D800580E786F00D0010178510CEC15F000D05D
:1006E8000101855101018611D8B40CD1300E0CECF2
:1006F80015F001018507D8A0860701018551010180
:100708008611D8B4FFD0F2D7FDD00101855101017F
:100718008611D8B412D0010188B70FD0200E0CEC86
:1007280015F001018507D8A086070101855101014F
:100738008611D8B402D0F2D700D0030E0101881573
:100748002B6E000E010189152C6E2B502C10D8B47D
:1007580004D02D0E0CEC15F007D0010188A104D0AF
:10076800200E0CEC15F000D0C00E2B6E080E2C6E6F
:1007780088C12DF089C12EF02B502D162C502E1625
:10078800400E2D1808E1080E2E18D8A404D0300EFB
:100798000CEC15F0B7D0C00E2B6E080E2C6E88C16D
:1007A8002DF089C12EF02B502D162C502E16800EB0
:1007B8002D1803E1080E2E18D8A4A4D0300E0CEC86
:1007C80015F0010188BB05D0000E01017B6F780E82
:1007D80004D0000E01017B6F580E7A6F00D0010122
:1007E8007A510CEC15F08ED078D000D001018451EC
:1007F800020DD40EF324F66EFE0EF420F76E0900F7
:10080800F5CF13F00A00F5CF14F082C111F083C1BF
:1008180012F0BEEC11F011C018F012C019F0000E61
:100828001B6E0A0E1A6E62EC12F0185052D082C17A
:1008380011F083C112F001018451020DDE0EF32480
:10084800F66EFE0EF420F76E0900F5CF13F00A00DD
:10085800F5CF14F0BEEC11F011500F0B0101756FBC
:10086800010188BB05D09F0E01017C6FFF0E04D0EB
:100878008E0E01017C6FFF0E01017D6F00D001011A
:100888007551010D7CC12BF07DC12CF0F3502B2646
:10089800F4502C222BC0F6FF2CC0F7FF0800F5CF30
:1008A80087F12BD082C111F083C112F0010184516C
:1008B800020DC80EF324F66EFE0EF420F76E090042
:1008C800F5CF13F00A00F5CF14F0BEEC11F011507B
:1008D800070B300F0101876F10D001018851C00B41
:1008E800000AD8B483D7400AD8B4DCD7C00AD8B431
:1008F8009ED7400AD8B47AD700D0010187510CECB2
:1009080015F000D00101840701018429D8A4E5D796
:10091800010188A71BD0010186BF18D001018651AB
:1009280006E101018505D8B002D010D000D0200E14
:100938000CEC15F001018507D8A086070101855147
:1009480001018611D8B402D0F2D700D01DC0F6FF3D
:100958001EC0F7FF1D4A1E2A0800F5CF87F10101C6
:100968008751D8B403D016EF00F000D0120041AE82
:100978001CD02D0E0001DD6F7F0E4114176E186A12
:10098800000E1A6E0A0E196E36EC0FF01750300F63
:100998000001DE6F7F0E41141F6E206A000E226E6A
:1009A8000A0E216EC5EC0FF01BD02B0E0001DD6F77
:1009B80041C017F042C018F0000E1A6E0A0E196EE8
:1009C80036EC0FF01750300F0001DE6F41C01FF0FA
:1009D80042C020F0000E226E0A0E216EC5EC0FF008
:1009E8001F50300F0001DF6F00D044AE29D02D0E0C
:1009F8000001E16F43C0EEF044C0EFF00001EE1FCC
:100A0800EF1FEE4BEF2BEEC0F0F0EFC0F1F0F0C0AF
:100A180017F0F1C018F0000E1A6E0A0E196E36ECB7
:100A28000FF01750300F0001E26FF0C01FF0F1C057
:100A380020F0000E226E0A0E216EC5EC0FF01BD0BE
:100A48002B0E0001E16F43C017F044C018F0000EF0
:100A58001A6E0A0E196E36EC0FF01750300F00019F
:100A6800E26F43C01FF044C020F0000E226E0A0E51
:100A7800216EC5EC0FF01F50300F0001E36F00D05E
:100A88005D380F0B300F0001C76F5D500F0B300F33
:100A98000001C86F5F380F0B300F0001CA6F5F503D
:100AA8000F0B300F0001CB6F62380F0B300F0001B6
:100AB800CD6F62500F0B300F0001CE6F60380F0BF7
:100AC800300F0001BE6F60500F0B300F0001BF6F79
:100AD80059380F0B300F0001C16F59500F0B300FF1
:100AE8000001C26F6C380F0B300F0001C46F6C50DF
:100AF8000F0B300F0001C56F4F04D8A40BD0D90ECF
:100B0800116E000E126EEC0E136EFF0E146E87EC53
:100B180013F00BD0D90E116E000E126EF00E136E7C
:100B2800FF0E146E87EC13F000D0000E1A6E640EE0
:100B3800196E5BC017F0186A36EC0FF017C01FF07B
:100B480018C020F0000E226E0A0E216EC5EC0FF0C0
:100B58001F50300F0001D56F000E1A6E0A0E196E65
:100B68005BC017F0186A36EC0FF017C01FF018C0FA
:100B780020F0000E226E0A0E216EC5EC0FF01F50F9
:100B8800300F0001D66F5BC01FF0206A000E226E86
:100B98000A0E216EC5EC0FF01F50300F0001D76F01
:100BA80049C017F04AC018F0030E1A6EE80E196E05
:100BB80036EC0FF01750300F0001D06F000E1A6E90
:100BC800640E196E49C017F04AC018F036EC0FF0E1
:100BD80017C01FF018C020F0000E226E0A0E216EFA
:100BE800C5EC0FF01F50300F0001D16F000E1A6EC8
:100BF8000A0E196E49C017F04AC018F036EC0FF00B
:100C080017C01FF018C020F0000E226E0A0E216EC9
:100C1800C5EC0FF01F50300F0001D26F49C01FF014
:100C28004AC020F0000E226E0A0E216EC5EC0FF0AD
:100C38001F50300F0001D36F170E396EDD0E3A6E5C
:100C4800000E3B6EFF0E3D6EE00E3C6E000E3F6EDA
:100C5800000E3E6E020E406E010E18EC0BF0170EE1
:100C6800396EE10E3A6E000E3B6EFF0E3D6EE00EE1
:100C78003C6E000E3F6E000E3E6E020E406E460E3B
:100C880018EC0BF0340E396EC70E3A6E000E3B6E40
:100C9800070E3D6E3C68000E3F6E000E3E6E020E63
:100CA800406E0F0E18EC0BF0520E396EBE0E3A6EF7
:100CB800000E3B6E070E3D6EE00E3C6E000E3F6E62
:100CC800000E3E6E020E406E0F0E18EC0BF0820EF8
:100CD800396ED90E3A6E000E3B6EF80E3D6E000E60
:100CE8003C6E000E3F6E000E3E6E010E406E5F0EB3
:100CF80018EC0BF0960E396ED50E3A6E000E3B6E60
:100D0800070E3D6EE00E3C6E000E3F6E000E3E6E0E
:100D1800010E406E0A0E18EC0BF0960E396ED00ECE
:100D28003A6E000E3B6E070E3D6EE00E3C6E000EF6
:100D38003F6E000E3E6E010E406E5D0E18EC0BF01D
:100D48001200C8EC14F000EC14F0000E256E000E32
:100D5800246E6CEC14F0540E4D6E010E4E6E4DC0A8
:100D680011F04EC012F0370E136EFF0E146E87ECA2
:100D780013F0010E396E4DC03AF04EC03BF0FF0E35
:100D88003D6E3C68000E3F6E000E3E6E010E406EDA
:100D9800010E18EC0BF04DC011F04EC012F0CF0E42
:100DA800136EFF0E146E87EC13F00B0E396E4DC0E8
:100DB8003AF04EC03BF0F80E3D6E1F0E3C6E000E32
:100DC8003F6E000E3E6E010E406E180E18EC0BF0D2
:100DD800000E1D6E280E1C6E000E1F6E170E1E6E66
:100DE800000E216E020E206EFF0E236EE00E226EA4
:100DF800E0EC08F04DC011F04EC012F0F80E136E82
:100E0800FF0E146E87EC13F0170E396E4DC03AF0D2
:100E18004EC03BF0FF0E3D6EE00E3C6E000E3F6E86
:100E2800000E3E6E020E406E2D0E18EC0BF04DC0FB
:100E380011F04EC012F09D0E136EFF0E146E87EC6B
:100E480013F0000E1D6E6E0E1C6E000E1F6E170E38
:100E58001E6E000E216E020E206EFF0E236EE00E37
:100E6800226EE0EC08F0170E396E4DC03AF04EC015
:100E78003BF0FF0E3D6EE00E3C6E000E3F6E000E26
:100E88003E6E020E406E730E18EC0BF04DC011F062
:100E98004EC012F0E20E136EFF0E146E87EC13F0C4
:100EA800280E396E4DC03AF04EC03BF0000E3D6E34
:100EB8001F0E3C6E000E3F6E000E3E6E010E406E21
:100EC800320E18EC0BF04DC011F04EC012F0E70EC8
:100ED800136EFF0E146E87EC13F0470E396E4DC07B
:100EE8003AF04EC03BF0F80E3D6E000E3C6E000E20
:100EF8003F6E000E3E6E010E406E320E18EC0BF087
:100F08004DC011F04EC012F0DC0E136EFF0E146EC1
:100F180087EC13F0780E396E4DC03AF04EC03BF0B6
:100F2800000E3D6E1F0E3C6E000E3F6E000E3E6EB4
:100F3800010E406E550E18EC0BF04DC011F04EC06E
:100F480012F0FB0E136EFF0E146E87EC13F08C0E6E
:100F5800396E4DC03AF04EC03BF0FF0E3D6E3C6816
:100F6800000E3F6E000E3E6E010E406E0C0E18EC29
:100F78000BF04DC011F04EC012F0F40E136EFF0EC0
:100F8800146E87EC13F08C0E396E4DC03AF04EC0DB
:100F98003BF0FF0E3D6E3C68000E3F6E000E3E6E4D
:100FA800010E406E5F0E18EC0BF012003CEC12F0D4
:100FB800B180A5EC06F0320E5B6E5B50D5EC0EF0FE
:100FC80000D05DEC11F062506E18D8B469D062C0E0
:100FD8006EF0D1EC12F014C041F015C042F041C0DF
:100FE80011F042C012F0000E146E090E136E15ECCB
:100FF80014F011C017F012C018F0000E1A6E050E8A
:10100800196E36EC0FF0200E1724436E000E1820D0
:10101800446EF1EC12F01FC049F020C04AF0E60E11
:101028001D6EFE0E1E6E5DC01FF0206A5FC021F0AF
:10103800226A62C023F0246A60C025F0266A59C07B
:1010480027F0286A6CC029F02A6A0EEC00F0790EA5
:101058001D6EFF0E1E6E41C01FF042C020F043C03F
:1010680021F044C022F00EEC00F0040E1D6EFF0EBD
:101078001E6E49C01FF04AC020F05BC021F0226AF2
:101088000EEC00F05BC01FF0206A6DEC13F049C055
:101098001FF04AC020F08FEC11F0BBEC04F000D038
:1010A80047044810D8A48DD7000E486E000E476E2E
:1010B800B00E1D6EFF0E1E6E50C01FF0206A0EECA3
:1010C80000F0F288F19C5C68000E0001F46F000EDD
:1010D800F36F0001F4BF0AD00001F45125E1150EA9
:1010E8000001F35DD8B020D001D01ED03F0E000122
:1010F800F325D96E010E0001F421DA6E5050DE1886
:10110800D8A408D0F3C05CF0000E0001F46F150EEF
:10111800F36F00D00001F34BF42B0001F4BFE6D7C6
:101128000001F45101E1DBD7819ED1EC14F05C5051
:10113800010D2A0EF324D96E010EF420DA6EDF5069
:10114800846E87EC14F0818E32EC15F05C28D8A4FC
:101158000AD04D0E1D6EFF0E1E6E5CC01FF0206A79
:101168000EEC00F02ED794EC14F0C00E1D6EFF0E9E
:101178001E6E5CC01FF0206A0EEC00F0050E5C18B5
:10118800D8A403D0AAEC14F01CD7060E5C18D8A477
:1011980003D0E9EC13F015D7070E5C18D8A403D0D8
:1011A800D1EC13F00ED7080E5C18D8A40AD7F7ECC8
:1011B80010F007D70CEF00F020C024F021C025F074
:1011C800241E251E244A252A010E24242A6E000ED8
:1011D80025202B6E000E276E010E266E20C024F0EF
:1011E80021C025F0D89024362536241E251E244AF1
:1011F800252A24C028F025C029F0000E2D6E000EE7
:101208002C6E20C02EF021C02FF01E502024186E06
:1012180022C019F023C01AF01C50B9EC13F020506A
:1012280000081E24186E22C019F023C01AF01C50A2
:10123800B9EC13F01EC018F022C019F023C01AF040
:101248001C502024B9EC13F01EC018F022C019F06D
:1012580023C01AF0205000081C24B9EC13F078D0F1
:101268002BBE0BD02E06D8A02F06020E2826000E65
:10127800292228502A2629502B222C4A2D2A020EB0
:101288002626000E272226502A2627502B221E50BB
:101298002E24186E22C019F023C01AF01C502C24DA
:1012A800B9EC13F01E502E24186E22C019F023C07A
:1012B8001AF02C5000081C24B9EC13F02E5000082A
:1012C8001E24186E22C019F023C01AF01C502C24BA
:1012D800B9EC13F02E5000081E24186E22C019F025
:1012E80023C01AF02C5000081C24B9EC13F01E502F
:1012F8002C24186E22C019F023C01AF01C502E247A
:10130800B9EC13F01E502C24186E22C019F023C01B
:101318001AF02E5000081C24B9EC13F02C500008C9
:101328001E24186E22C019F023C01AF01C502E2457
:10133800B9EC13F02C5000081E24186E22C019F0C6
:1013480023C01AF02E5000081C24B9EC13F000D06A
:101358002E502C5C2D50800A246E2F50800A245861
:10136800D8A07ED71200F2925150D8B4A0D0CE5057
:10137800CFCF01F0026A01C002F0016A0110456E88
:101388000250466E000ECF6E000ECE6E90D0000E4C
:10139800CF6E000ECE6E9E90900ECD6ECD80000E5C
:1013A800576E000E0001F56F000EF66F000EF76F16
:1013B800000EF86F010E516E78D08AD0350E455C5C
:1013C800210E4658D8A009D01C0E455C250E46585B
:1013D800D8B003D0020E516E2AD03EEC15F027D0BB
:1013E80026D076D0A10E455C0F0E4658D8A009D05D
:1013F800880E455C130E4658D8B003D0030E516EC4
:1014080054D03EEC15F051D050D062D0910E455CCE
:10141800010E4658D8A008D0BC0E455C020E4658AE
:10142800D8B002D0040ED7D73EEC15F000D0F19C0E
:101438004FD0910E455C010E4658D8A033D0080E07
:10144800455C070E4658D8B02DD0D8900001F53528
:101458000001F56F0001F6350001F66F0001F73560
:101468000001F76F0001F8350001F86FE90E455CDF
:10147800030E4658D8A008D0010E0001F527000E2B
:10148800F623F723F82300D0572A1F0E5764B6D740
:10149800000E486E010E476EF6C050F0F298000E2E
:1014A800516EACD73EEC15F000D0F18C11D05150F4
:1014B800000AD8B46CD7010AD8B480D7030AD8B4C4
:1014C80091D7010AD8B4A2D7070AD8B4B2D700D0A6
:1014D8001200366E800E3660A6D09F0E2E6401D0A4
:1014E800A2D03450D8A403D0010E346E00D01F0E01
:1014F8002F6404D07E0E2F6403D000D03F0E2F6ED1
:10150800000E386E040E386401D08DD0530E2F6053
:1015180015D0E00E2F24116E126AFF0E1222000E53
:10152800146E050E136E15EC14F038501126000ECB
:101538001222ED0E1124F66EFC0E14D0AD0E2F24DF
:10154800116E126AFF0E1222000E146E050E136E33
:1015580015EC14F038501126000E1222EC0E11244E
:10156800F66EFD0E1220F76E0800F5CF35F000D0AC
:10157800000E376E060E376401D053D035A023D045
:101588003404D8A40CD02E503724186E30C019F06B
:1015980031C01AF036503824B9EC13F03ED0375029
:1015A8003402F3502E24236E34C024F034C025F0C6
:1015B80030C026F031C027F038503402F3503624BA
:1015C80088EC12F02AD03050321804E13150331828
:1015D800D8B423D03404D8A40CD02E503724186E95
:1015E80032C019F033C01AF036503824B9EC13F071
:1015F80014D037503402F3502E24236E34C024F014
:1016080034C025F032C026F033C027F038503402F9
:10161800F350362488EC12F000D0372AD8903532AF
:10162800A9D7382A6FD712000001E76FE7C0EDF09D
:1016380039C0ECF03AC011F03BC012F010EC13F0D6
:1016480011C0E8F012C0E9F0000E0001EB6F000EC7
:10165800EA6F6AD06F50D8B43AD04050050D0001F7
:10166800ED510001E56FE66BF3500001E527F450FA
:101678000001E6230001E6BF2AD00001E65105E19A
:10168800810E0001E55DD8A022D0000E0001ED6FAB
:101698004050070DF3500001EC25030F0001EC6FDB
:1016A800A00E0001EC6504D0A00E0001EC6F00D084
:1016B8000001EA513A24D96E0001EB513B20DA6E61
:1016C800200EDE18D8B42CD002D02AD000D0ECC01E
:1016D8002EF00001EA513A24D96E0001EB513B206B
:1016E800DA6EDF502F6E3CC030F03DC031F03EC0A6
:1016F80032F03FC033F040C034F00001ED516DECE2
:101708000AF04050060DF3500001ED250001ED6F81
:10171800800E0001ED6504D0800E0001ED6F00D051
:101728000001EA4BEB2B00D00001E8510001EA5D13
:101738000001E9510001EB59D8A08CD71200010E25
:10174800FDEC14F0000E186E960E176EECEC11F00E
:10175800110EFDEC14F0010E186EF40E176EECEC81
:1017680011F0B10EFDEC14F0010EF5EC14F02C0E96
:10177800F5EC14F02D0EF5EC14F0B20EFDEC14F0AF
:10178800010EF5EC14F02C0EF5EC14F02D0EF5EC22
:1017980014F0B30EFDEC14F0010EF5EC14F02C0E61
:1017A800F5EC14F02D0EF5EC14F0010EF5EC14F038
:1017B8002C0EF5EC14F02D0EF5EC14F0B40EFDEC37
:1017C80014F0070EF5EC14F0C00EFDEC14F0A20EA8
:1017D800F5EC14F0020EF5EC14F0840EF5EC14F0B0
:1017E800C10EFDEC14F0C50EF5EC14F0C20EFDECC4
:1017F80014F00A0EF5EC14F0000EF5EC14F0C30E1C
:10180800FDEC14F08A0EF5EC14F02A0EF5EC14F049
:10181800C40EFDEC14F08A0EF5EC14F0EE0EF5ECA7
:1018280014F0C50EFDEC14F00E0EF5EC14F0200EBD
:10183800FDEC14F0360EFDEC14F0C80EF5EC14F0C7
:101848003A0EFDEC14F0050EF5EC14F012001FC072
:1018580023F0246A256A1E34233601E324802350AA
:10186800266E2650D8A402D00ED06CD022C023F009
:10187800246A256A2134233601E3248023502B6E01
:101888002B50D8A407D0000E1D6E000E1E6E000E41
:101898001F6E58D02B507B0F26261FC02BF02250CE
:1018A8002B1A800E2B161E8E218EFF0E2016FF0E71
:1018B8002116000E2216000E276E000E286E000E4E
:1018C800296E070E2A6E00D01DA007D020502726AB
:1018D800215028222250292200D0D8901F321E32AF
:1018E8001D32D8902036213622362A2EEDD700D048
:1018F800090E2A6E00D01DA007D02050272621509F
:1019080028222250292200D0D8901F321E321D32A0
:10191800D8902932283227322A2EEDD700D027C076
:1019280011F028C012F029C013F026C014F02BC003
:1019380015F072EC0EF011C01DF012C01EF013C0AD
:101948001FF000D01200E00EFDEC14F0020EF5ECD2
:1019580014F01C0EF5EC14F0070EF5EC14F0120E52
:10196800F5EC14F0370EF5EC14F0320EF5EC14F03B
:10197800290EF5EC14F02D0EF5EC14F0290EF5EC0B
:1019880014F0250EF5EC14F02B0EF5EC14F0390ECE
:10199800F5EC14F0000EF5EC14F0010EF5EC14F073
:1019A800030EF5EC14F0100EF5EC14F0E10EFDEC5E
:1019B80014F0030EF5EC14F01D0EF5EC14F0070E00
:1019C800F5EC14F0060EF5EC14F02E0EF5EC14F010
:1019D8002C0EF5EC14F0290EF5EC14F02D0EF5ECA8
:1019E80014F02E0EF5EC14F02E0EF5EC14F0370E64
:1019F800F5EC14F03F0EF5EC14F0000EF5EC14F0D5
:101A0800000EF5EC14F0020EF5EC14F0100EF5ECE7
:101A180014F0130EFDEC14F0000E186E0A0E176E7B
:101A2800ECEC11F0290EFDEC14F0000E186E640EAB
:101A3800176EECEC11F0120013C015F0166A176A55
:101A48001234153601E3168015501F6E1F50D8A4A6
:101A580002D039D063D0170E156E11C016F012C01F
:101A680017F013C018F01528196E04D0D890183242
:101A780017321632192EFAD716501A6E128EFF0E1A
:101A88001116FF0E1216000E131611501B6E12506F
:101A98001C6E13501D6E1E6A8E0E1F5E1FAE10D078
:101AA8001F50800A8F0FD8B003D00DD037D000D088
:101AB800D8901E321D321C321B321F3EF9D719D066
:101AC800170E1F6411D0000E116E000E126E000E5C
:101AD800136E000E146E22D007D0D8901B361C3619
:101AE8001D361E361F0600D01F50D8B402D0F5D7B9
:101AF80000D01A50D8B409D01E1E1D1E1C1E1B6C07
:101B0800000E1C221D221E2200D01BC011F01CC07A
:101B180012F01DC013F01EC014F000D012002EC029
:101B280032F0336A346A2D34323601E3338032506E
:101B3800396E3950D8A402D00ED061D031C032F0FD
:101B4800336A346A3034323601E3338032503A6EC5
:101B58003A50D8A407D0000E2C6E000E2D6E000E41
:101B68002E6E4DD0000E366E000E376E000E386E9B
:101B78003A50890F395E2EC03AF031503A1A800E29
:101B88003A162D8EFF0E2C16FF0E2D16000E2E1651
:101B9800308EFF0E2F16FF0E3016000E3116180E5F
:101BA800356E00D0D8903636373638362F502C5C04
:101BB80030502D5831502E58D8A007D02F502C5EB9
:101BC80030502D5A31502E5A3680D8902C362D361A
:101BD8002E36352EE7D700D036C011F037C012F0B8
:101BE80038C013F039C014F03AC015F072EC0EF09A
:101BF80011C02CF012C02DF013C02EF000D012002E
:101C0800236E800E236069D09F0E186401D065D0C2
:101C1800FF0E1D6EFF0E1E6E195023C01FF0206AA6
:101C28001F26000E20221D501F261E50202220BED7
:101C38000AD0205004E1800E1F5CD8A004D02350A5
:101C48000008800F196EFF0E1D6EFF0E1E6E1A50D3
:101C580018C01FF0206A1F26000E20221D501F26C4
:101C68001E50202220BE0BD0205004E1A00E1F5C85
:101C7800D8A005D018500008A00F1A6E00D018C0C0
:101C880014F0235019241D6E1D04156E18501A24C3
:101C98001E6E1E04166E235015EC12F01C50216E99
:101CA8001BC022F0838083921AC018F01850D8B451
:101CB80013D001D011D019C023F02350D8B40AD0C2
:101CC80001D008D02150B4EC14F02250B4EC14F038
:101CD8002306F3D71806EAD7838212001450D8B423
:101CE80005D0115012101310D8A40ED0000E116E8A
:101CF800000E126E000E136E53D006D0142AD89020
:101D080013321232113200D0000E1114166E000E6A
:101D18001214176EFE0E1314186E165017101810A2
:101D2800D8B40ED0EBD70CD0142A010E1126000E11
:101D38001222000E1322D89013321232113200D020
:101D4800000E1114166E000E1214176EFF0E1314E7
:101D5800186E165017101810D8B408D0E5D706D04A
:101D68001406D89011361236133600D012BE04D09D
:101D7800020E1460F5D700D014B002D0129E00D025
:101D8800D8901432145013121550D8B402D0138EB0
:101D980000D011C011F012C012F013C013F000D01F
:101DA80012000001E86F040ECB6E070ECA6E000E1B
:101DB800206E800E216E400E226E0001E85129EC43
:101DC80014F019C01DF01AC01EF01BC01FF02BEC38
:101DD8000CF01DC02CF01EC02DF01FC02EF0000E00
:101DE8002F6EA00E306E410E316E93EC0DF02CC0AC
:101DF800E5F02DC0E6F02EC0E7F0E5C011F0E6C032
:101E080012F0E7C013F020EC0DF011C0E9F012C099
:101E1800EAF00001E8513B6E3C6A0001E9513B5C85
:101E28003C50800A3D6E0001EA51800A3D58D8B006
:101E380004D00001E94BEA2B00D0E9C03BF0030EC7
:101E48003B163B38F00B0C09BD6EE9C03BF0EAC00D
:101E58003CF03C343C323B323C343C323B323B502D
:101E6800BE6E1200000E1C6E1AAE07D0196C1A1E38
:101E7800D8B01A2A010E1C6E00D018AE07D0176C05
:101E8800181ED8B0182A010E1C1A00D0000E1E6E9B
:101E9800000E1D6E19501A10D8B421D0010E1B6EF9
:101EA80005D0D89019361A361B2A00D01ABE02D08F
:101EB800F8D700D0D8901D361E361950175C1A5026
:101EC8001858D8A006D01950175E1A50185A1D80F5
:101ED80000D0D8901A3219321B2EECD700D01C50E3
:101EE800D8B405D01D6C1E1ED8B01E2A00D01DC047
:101EF80017F01EC018F000D01200226E800E22606B
:101F08003FD09F0E186401D03BD0FF0E1C6EFF0E11
:101F18001D6E195018C01EF01F6A1E26000E1F22C3
:101F28001C501E261D501F221FBE0BD01F5004E13F
:101F3800A00E1E5CD8A005D018500008A00F196E7E
:101F480000D01B50206E1AC021F018C014F022C017
:101F580015F0185019241C6E1C04166E225015EC2E
:101F680012F08380839207D02050B4EC14F02150F3
:101F7800B4EC14F000D019061928D8A4F5D7838238
:101F88001200000E246E20AE07D01F6C201ED8B0A1
:101F9800202A010E246E00D022AE05D0216C221E0C
:101FA800D8B0222A00D021502210D8B41DD0010E5A
:101FB800236E05D0D89021362236232A00D022BE9F
:101FC80002D0F8D700D021501F5C22502058D8A04A
:101FD80005D021501F5E2250205A00D0D8902232BE
:101FE8002132232EF0D700D02450D8B405D01F6C4E
:101FF800201ED8B0202A00D01FC01FF020C020F01B
:1020080000D0120000EEF5F0080EEE6AE806FDE1D9
:1020180000EE41F02C0EEE6AE806FDE1080EF66EC1
:10202800210EF76E000EF86E01EE00F010EE75F05E
:102038000900F5CFEEFFE550E150FAE1540EF66ED7
:10204800220EF76E000EF86E00EE80F010EE65F0CE
:102058000900F5CFEEFFE550E150FAE1840EF66E87
:102068002A0EF76E000EF86E0900F5CF6DF0090024
:10207800F5CF6EF00900F5CF6FF0000EF86E000195
:10208800DAEF07F00600EACF06F0E1CF07F0E2CF7B
:1020980008F0D9CF09F0DACF0AF0F3CF0BF0F4CF7C
:1020A8000CF0F6CF0DF0F7CF0EF0F8CF0FF0F5CF1C
:1020B80010F09EA003D019EC15F000D0F2A203D0C6
:1020C800B7EC09F000D010C0F5FF0FC0F8FF0EC044
:1020D800F7FF0DC0F6FF0CC0F4FF0BC0F3FF0AC0FA
:1020E800DAFF09C0D9FF08C0E2FF07C0E1FF06C058
:1020F800EAFF05C0E9FF04C0FBFF03C0FAFF1100B7
:1021080000F800F800F81F001F00E0071FF81FF88C
:102118001FF80000000000000000000000000000A0
:10212800000000000000000000000101010404029A
:10213800050505070707070707070707070707A292
:1021480062E22202C2E0A8906898B030187A10388B
:102158005A424A5220454345333330314C2053705C
:10216800273232204C31320000000000000000000D
:10217800000000000000136E000EAC6E000EAB6E87
:1021880013A002D0AC8800D013A203D0AC8CAB8CC7
:1021980000D013A402D0AC8E00D013A602D0AB8816
:1021A80002D0AB8A00D013B8AC849E9813AA02D090
:1021B800AB8600D013AC02D09D8A01D09D9A9E9A1E
:1021C80013AE02D09D8801D09D9811C0AFFF125068
:1021D800B06EAC8AAB8E949C948EACB8ACBE02D078
:1021E800948C00D01200680E136E000E146E000E50
:1021F800626E000E5F6E000E5D6E000E5A6E000E6F
:10220800596E000E606E000E6C6EE3EC14F0135005
:1022180013244EEC13F014504EEC13F062504EECB5
:1022280013F05F504EEC13F05D504EEC13F05A5023
:102238004EEC13F059504EEC13F060504EEC13F086
:102248006C504EEC13F0DAEC14F0120030303A30E7
:10225800303A30300030303A30303A3030003031B7
:102268002F30312F30300030303A30303A303000B3
:1022780000010203040506070103020405060730EE
:10228800373546004F464600300030302F30302F6B
:1022980030300030303A30303A3030003030303082
:1022A80000303030004F4646002B3235002B373790
:1022B8000000680E156E000E146EE3EC14F0155055
:1022C80015244EEC13F014504EEC13F09FEC14F060
:1022D800D88015344EEC13F0010EADEC12F0626E9E
:1022E800010EADEC12F05F6E010EADEC12F05D6EFA
:1022F800010EADEC12F05A6E010EADEC12F0596EF3
:10230800010EADEC12F0606E000EADEC12F06C6ECA
:10231800DAEC14F01200C70E246E83502414256ED4
:102328001FC017F020C018F0010E1A6EF40E196EB7
:1023380036EC0FF017C022F018C023F020BE05D0ED
:10234800205006E11F04D8B003D025C083FF11D068
:10235800AC0E2224D96E000E2320DA6EDF50216ED7
:10236800D8902136D8902136D89021342510836E04
:1023780000D01200000E176E000E166E13501410C7
:10238800D8B421D0010E156E05D0D8901336143666
:10239800152A00D014BE02D0F8D700D0D89016362F
:1023A80017361350115C14501258D8A006D0135089
:1023B800115E1450125A168000D0D890143213327D
:1023C800152EECD700D016C011F017C012F012006D
:1023D80017C011F018C012F0000E146E7D0E136EA7
:1023E80015EC14F011C01BF012C01CF01BC019F042
:1023F8001CC01AF0191E1A1E194A1A2AFF0E19248F
:102408001B6EFF0E1A201C6E030ED56E1BC0D6FF66
:102418001C50D76EF294D58E00D0F2A4FED7D59E6C
:102428001200176E2A0EFDEC14F0000EF5EC14F0F5
:1024380017505824F5EC14F0000EF5EC14F0155074
:102448005824F5EC14F02B0EFDEC14F0000EF5EC0E
:1024580014F014506124F5EC14F0000EF5EC14F0AF
:1024680016506124F5EC14F02C0EFDEC14F012005B
:10247800BEEC14F0700ED36E0F0EC16E000E926E8D
:10248800110E936E010E946E400E956E000E966EB0
:10249800F19E000EB26E030EB16EA00E116E860E86
:1024A800126E010E136E000E146E1FEC15F05DEC2B
:1024B80014F0A0EC13F0000E4F6E12001A501B100F
:1024C800D8B41DD0010E1C6E05D0D8901A361B3614
:1024D8001C2A00D01BBE02D0F8D700D01A50185CB6
:1024E8001B501958D8A005D01A50185E1B50195AFD
:1024F80000D0D8901B321A321C2EF0D700D018C04A
:1025080018F019C019F012002B6E2BC02CF02D6A90
:102518000ED023C018F025C019F026C01AF027C025
:102528001BF02C5081EC0FF02C4A2D2A00D024509F
:102538002BC028F0296A2826000E292228502C5C56
:102548002D50800A2A6E2950800A2A58D8A0E1D72F
:102558001200116E3AEC15F0000E126E070E12649E
:1025680001D00FD013EC15F083AC03D0D88013360C
:1025780004D013501324136E00D036EC15F0122A31
:10258800EDD71150D8B403D0ECEC14F003D024EC00
:1025980015F000D0135000D01200480E186EAA0E85
:1025A800166EE3EC14F0185018244EEC13F0165085
:1025B8004EEC13F09FEC14F0D88018344EEC13F066
:1025C800000EADEC12F0176EDAEC14F01750146E22
:1025D800156A14BE150600D01200B2CF17F0186A9B
:1025E800000E1A6E020E196E36EC0FF017C021F0AD
:1025F80018C022F0000EB26E21C011F022C012F0F5
:10260800000E146E3C0E136E15EC14F011C01FF082
:1026180012C020F000D0120011C015F012C016F040
:1026280003D0154A162A00D015C0D9FF16C0DAFF04
:10263800DF50D8A4F6D711C013F012C014F0131E3F
:10264800141E134A142A15501324116E1650142000
:10265800126E00D012002A0EFDEC14F0000EF5ECFC
:1026680014F0000EF5EC14F0000EF5EC14F07F0EEB
:10267800F5EC14F02B0EFDEC14F0000EF5EC14F054
:10268800000EF5EC14F0000EF5EC14F09F0EF5ECCE
:1026980014F01200116E000E126E070E126401D0B3
:1026A80011D011AE03D03AEC15F003D029EC15F097
:1026B80000D013EC15F036EC15F011501124116E02
:1026C800122AEBD73AEC15F013EC15F036EC15F0AE
:1026D8001200000E216E1FC017F020C018F0000E67
:1026E8001A6E0A0E196E36EC0FF01750226E070E8E
:1026F800226403D0070E226E00D022C021F02150A0
:102708002124806E120011C015F012C016F005D0F9
:10271800154A162A134A142A00D013C0F6FF14C00B
:10272800F7FF15C0D9FF16C0DAFF0800F5CFDFFFA5
:10273800DF50D8A4EDD71200F292F19CF288000E77
:10274800CF6E000ECE6E9E909D80F28CF28E000EA3
:10275800486E000E476E000E0001F56F000EF66F12
:10276800000EF76F000EF86F12001B6E800E1B60D4
:1027780013D09F0E186401D00FD018C014F01B2876
:10278800156E1828166E1B5015EC12F01A50F5EC41
:1027980014F01950F5EC14F01200640E5B18D8A46C
:1027A8000CD094EC14F01F0E1D6EFF0E1E6E0EEC76
:1027B80000F05B50D5EC0EF007D05B50050F5B6E58
:1027C8005B50D5EC0EF000D012005B50D8A40CD0B2
:1027D80094EC14F0630E1D6EFF0E1E6E0EEC00F0EE
:1027E8005B50D5EC0EF007D05B50FB0F5B6E5B5077
:1027F800D5EC0EF000D0120083828390800EC76E55
:10280800300EC66EA3EC0BF02FEC13F0A7EC0CF017
:10281800360EFDEC14F0C00EF5EC14F0010E526EFD
:10282800120011501302F3CF15F0F4CF16F0115027
:102838001402F350162612501302F350162615C030
:1028480011F016C012F000D012001C6E1C50116E50
:10285800126A136A8E0E146E000E156E72EC0EF06C
:1028680011C019F012C01AF013C01BF000D01200EA
:10287800136E000E126E3A0E136006D02F0E1364FC
:1028880003D0010E126E00D012C011F0113000D02A
:102898001200156EE3EC14F0155015244EEC13F0ED
:1028A80013504EEC13F014504EEC13F0DAEC14F015
:1028B8001200480E166EAC0E136E020E146E1650F1
:1028C8004DEC14F0EE0E136E16507AEC14F0120064
:1028D800000E186E800E196EA00E1A6E24C01BF022
:1028E80025C01CF0000E04EC0EF01200146EE3EC90
:1028F80014F0145014244EEC13F013504EEC13F053
:10290800DAEC14F01200020ED56EDB0ED66E0B0E4A
:10291800D76EF294D58E00D0F2A4FED7D59E1200C1
:10292800D1EC14F087EC14F0D1EC14F087EC14F02F
:1029380032EC15F0120036EC15F03AEC15F013EC09
:1029480015F029EC15F036EC15F012004F50D8A40C
:1029580003D005EC15F003D02EEC15F000D01200D2
:10296800126E9E96C9CF11F012C0C9FF00D0C7A041
:10297800FED71200000E126E190E116E3C0EBFEC3F
:1029880010F0700ED36E12008394000E186E640E51
:10299800176EECEC11F083841200F90ECB6E050E65
:1029A800CA6E4A0EBB6E3C0EBA6E120036EC15F0BB
:1029B80029EC15F013EC15F03AEC15F012003AEC8E
:1029C80015F013EC15F029EC15F036EC15F01200A3
:1029D80029EC15F013EC15F036EC15F03AEC15F07F
:1029E8001200136E839283801350B4EC14F0838228
:1029F8001200136E839283901350B4EC14F0838208
:102A08001200010E4F6E5B50D5EC0EF0818812005B
:102A1800116E00D0ACA2FED711C0ADFF1200938892
:102A2800060EE82EFED700D01200000E516EF19C63
:102A3800CD909E90120013EC15F03AEC15F01200B0
:102A480013EC15F036EC15F01200839C959C00D021
:102A580000D01200000E4F6E81981200000EBA6E60
:102A6800819612008198939800D01200958C00D01E
:102A780000D01200000E516ECD9012004BFF0100E5
:10FCEC0000000000000000005F000000070007009B
:10FCFC00147F147F14242A7F2A122313086462367B
:10FD0C00495620500008070300001C224100004106
:10FD1C00221C002A1C7F1C2A08083E080800807040
:10FD2C003000080808080800006060002010080473
:10FD3C00023E5149453E00427F40007249494946C6
:10FD4C002141494D331814127F1027454545393C44
:10FD5C004A49493141211109073649494936464931
:10FD6C0049291E0000140000004034000000081453
:10FD7C0022411414141414004122140802015909CC
:10FD8C00063E415D594E7C1211127C7F4949493621
:10FD9C003E414141227F4141413E7F494949417F9A
:10FDAC00090909013E414151737F0808087F004150
:10FDBC007F41002040413F017F081422417F404099
:10FDCC0040407F021C027F7F0408107F3E4141416E
:10FDDC003E7F090909063E4151215E7F09192946DA
:10FDEC00264949493203017F01033F4040403F1FF0
:10FDFC002040201F3F4038403F6314081463030425
:10FE0C007804036159494D43007F41414102040884
:10FE1C001020004141417F04020102044040404057
:10FE2C0040000307080020545478407F284444388D
:10FE3C003844444428384444287F385454541800D7
:10FE4C00087E090218A4A49C787F08040478004456
:10FE5C007D40002040403D007F1028440000417F41
:10FE6C0040007C047804787C0804047838444444CA
:10FE7C0038FC1824241818242418FC7C08040408C2
:10FE8C00485454542404043F44243C4040207C1CDB
:10FE9C002040201C3C4030403C44281028444C90CE
:10FEAC0090907C4464544C44000836410000007728
:10FEBC0000000041360800020102040201000800A3
:10FECC00400000020010008001000A006400E803FA
:10FEDC0010270100100000010010253032783A255F
:10FEEC003032783A2530327820253032782F253050
:10FEFC0032782F253032780052504D203D20256429
:10FF0C0020647574795F6379636C65203D2025648A
:10FF1C000D0A0044757479204379636C652069730C
:10FF2C0020617420313030200D0A004543453333B5
:10FF3C0030314C20537072696E672032322D53333E
:10FF4C000043616E6E6F742066696E642062757416
:10FF5C00746F6E200D0A0044757479204379636CBC
:10FF6C00652069732061742030200D0A00205465CF
:10FF7C006D70203D2025642043203D2025642046C3
:10FF8C00200030313233343536373839414243442E
:10FF9C004546003031323334353637383961626397
:10FFAC00646566004E45435F436F6465203D2025C4
:10FFBC00780D0A00627574746F6E203D20256420E4
:10FFCC000D0A0054656D70657261747572653A0046
:10FFDC00202046414E0054696D65004461746500F3
:10FFEC004F4E20004F46460052504D00432F0044C8
:04FFFC0043000000BE
:020000040020DA
:08000000FFFFFFFFFFFFFFFF00
:020000040030CA
:0E000000FF08191EFF8281FF0FC00FE00F40A6
:00000001FF
