:040000000CEF00F011
:10000800FACF01F0FBCF02F0E9CF03F096ED18F03C
:100018005CEF1AF06BEC1DF0B5EC1CF0000E236ED3
:10002800000E226E17EC1DF08D0E5F6E000E606ED6
:100038005FC00FF060C010F0860E116EFF0E126EDA
:100048006EEC1CF0020E376E5FC038F060C039F0FD
:10005800FF0E3B6E3A68000E3D6E000E3C6E010EC0
:100068003E6E020E1DEC14F05FC00FF060C010F081
:10007800E50E116EFF0E126E6EEC1CF00A0E376E56
:100088005FC038F060C039F0FF0E3B6E3A68000E72
:100098003D6E000E3C6E010E3E6E020E1DEC14F01D
:1000A8000A0E376EC80E386E000E396EFF0E3B6EA4
:1000B8003A68000E3D6E000E3C6E010E3E6E230E39
:1000C8001DEC14F05FC00FF060C010F0EB0E116E65
:1000D800FF0E126E6EEC1CF00A0E376E5FC038F021
:1000E80060C039F0FF0E3B6E3A68000E3D6E000EA0
:1000F8003C6E010E3E6E320E1DEC14F00A0E376E89
:10010800CA0E386E000E396EFF0E3B6E3A68000E4E
:100118003D6E000E3C6E010E3E6E460E1DEC14F058
:100128005FC00FF060C010F0EF0E116EFF0E126E80
:100138006EEC1CF00A0E376E5FC038F060C039F004
:10014800FF0E3B6E3A68000E3D6E000E3C6E010ECF
:100158003E6E500E1DEC14F00A0E376ECA0E386E45
:10016800000E396EFF0E3B6E3A68000E3D6E000EB3
:100178003C6E010E3E6E640E1DEC14F05FC00FF075
:1001880060C010F0FD0E116EFF0E126E6EEC1CF0CA
:100198000A0E376E5FC038F060C039F0FF0E3B6E54
:1001A8003A68000E3D6E000E3C6E010E3E6E780EF3
:1001B8001DEC14F05FC00FF060C010F0C10E116E9E
:1001C800FF0E126E6EEC1CF0140E376E5FC038F026
:1001D80060C039F0000E3B6E1F0E3A6E000E3D6E89
:1001E800000E3C6E010E3E6E1E0E1DEC14F0000E4D
:1001F800226E1E0E216E000E246E1B0E236E000E44
:10020800266E3C0E256E000E286E120E276E000E0E
:100218002A6E1F0E296ECBEC19F0000E1B6E280EED
:100228001A6E000E1D6E230E1C6E000E1F6E070E3A
:100238001E6EF80E216E000E206ECAEC0DF0000E38
:100248001B6E3C0E1A6E000E1D6E230E1C6E000EE9
:100258001F6E070E1E6EFF0E216EE00E206ECAEC9A
:100268000DF0000E3A6E500E396E000E3C6E230EE5
:100278003B6E000E3E6E070E3D6E070E406EE00EA2
:100288003F6EAFEC1AF01E0E376EBF0E386E000EC2
:10029800396E000E3B6E1F0E3A6E000E3D6E000E5C
:1002A8003C6E020E3E6E640E1DEC14F05FC00FF043
:1002B80060C010F0D70E116EFF0E126E6EEC1CF0BF
:1002C800320E376E5FC038F060C039F0F80E3B6E02
:1002D8001F0E3A6E000E3D6E000E3C6E010E3E6E15
:1002E8001E0E1DEC14F0000E226E1E0E216E000E66
:1002F800246E390E236E000E266E3C0E256E000EFF
:10030800286E120E276EF80E2A6E1F0E296ECBEC81
:1003180019F0000E3A6E280E396E000E3C6E410E32
:100328003B6E000E3E6E070E3D6EF80E406E000EE0
:100338003F6EAFEC1AF0000E1B6E3C0E1A6E000EEC
:100348001D6E410E1C6E000E1F6E070E1E6EFF0EF8
:10035800216EE00E206ECAEC0DF0000E1B6E500EE2
:100368001A6E000E1D6E410E1C6E000E1F6E070EDB
:100378001E6E070E216EE00E206ECAEC0DF03C0ECC
:10038800376EBC0E386E000E396EF80E3B6E1F0EBF
:100398003A6E000E3D6E000E3C6E020E3E6E640E0E
:1003A8001DEC14F05FC00FF060C010F0CD0E116EA0
:1003B800FF0E126E6EEC1CF0500E376E5FC038F0F8
:1003C80060C039F0070E3B6E3A68000E3D6E000EB5
:1003D8003C6E010E3E6E1E0E1DEC14F0000E226ED9
:1003E8001E0E216E000E246E570E236E000E266E12
:1003F8003C0E256E000E286E120E276E070E2A6E12
:100408002968CBEC19F0000E3A6E280E396E000EF2
:100418003C6E5F0E3B6E000E3E6E070E3D6EF80E94
:10042800406E000E3F6EAFEC1AF0000E1B6E3C0ED5
:100438001A6E000E1D6E5F0E1C6E000E1F6E070EEC
:100448001E6EFF0E216EE00E206ECAEC0DF0000E3F
:100458001B6E500E1A6E000E1D6E5F0E1C6E000E87
:100468001F6E070E1E6E070E216EE00E206ECAEC80
:100478000DF05A0E376EB90E386E000E396E070E33
:100488003B6E3A68000E3D6E000E3C6E020E3E6EEC
:10049800640E1DEC14F05FC00FF060C010F0DE0EAB
:1004A800116EFF0E126E6EEC1CF06E0E376E5FC092
:1004B80038F060C039F0FF0E3B6E3A68000E3D6EB2
:1004C800000E3C6E010E3E6E1E0E1DEC14F0000E6A
:1004D800226E1E0E216E000E246E750E236E000E07
:1004E800266E3C0E256E000E286E120E276EFF0E2D
:1004F8002A6E2968CBEC19F0000E3A6E280E396E78
:10050800000E3C6E7D0E3B6E000E3E6E070E3D6E7D
:10051800F80E406E000E3F6EAFEC1AF0000E1B6E28
:100528003C0E1A6E000E1D6E7D0E1C6E000E1F6EA8
:10053800070E1E6EFF0E216EE00E206ECAEC0DF047
:10054800000E1B6E500E1A6E000E1D6E7D0E1C6E78
:10055800000E1F6E070E1E6E070E216EE00E206E37
:10056800CAEC0DF0780E376EB60E386E000E396E86
:10057800FF0E3B6E3A68000E3D6E000E3C6E020E9A
:100588003E6E640E1DEC14F05FC00FF060C010F0FA
:10059800F30E116EFF0E126E6EEC1CF0140E376E19
:1005A8005FC038F060C039F0000E3B6E1F0E3A6E27
:1005B800000E3D6E000E3C6E010E3E6E030E1DECED
:1005C80014F01E0E376EC50E386E000E396E000E12
:1005D8003B6E1F0E3A6E000E3D6E000E3C6E020E14
:1005E8003E6E020E1DEC14F05A0E376EC20E386EB7
:1005F800000E396E070E3B6E3A68000E3D6E000E17
:100608003C6E020E3E6E020E1DEC14F05FC00FF041
:1006180060C010F0F70E116EFF0E126E6EEC1CF03B
:10062800500E376E5FC038F060C039F0070E3B6E71
:100638003A68000E3D6E000E3C6E010E3E6E030ED3
:100648001DEC14F05FC00FF060C010F09C0E116E2E
:10065800FF0E126E6EEC1CF08C0E376E5FC038F019
:1006680060C039F0FF0E3B6E3A68000E3D6E000E1A
:100678003C6E010E3E6E010E1DEC14F0950E376EA9
:10068800D60E386E000E396EFF0E3B6E3A68000EBD
:100698003D6E000E3C6E010E3E6E060E1DEC14F013
:1006A800950E376ED40E386E000E396EFF0E3B6E07
:1006B8003A68000E3D6E000E3C6E010E3E6E200E36
:1006C8001DEC14F0950E376ED00E386E000E396E94
:1006D800FF0E3B6E3A68000E3D6E000E3C6E010E3A
:1006E8003E6E3A0E1DEC14F0950E376ECE0E386E37
:1006F800000E396EFF0E3B6E3A68000E3D6E000E1E
:100708003C6E010E3E6E570E1DEC14F0950E376EC2
:10071800D20E386E000E396EFF0E3B6E3A68000E30
:100728003D6E000E3C6E010E3E6E700E1DEC14F018
:100738001200540E0001DB6F000E0001DC6F51D374
:10074800250E0001EE19D8B405D00001EE518DEC4C
:100758001DF047D3000E0001DE6F000EDD6F06D0DE
:100768004FD30001DE8514D03CD312D052C0F6FF1F
:1007780053C0F7FF524A532A0800F5CFEEF00001A4
:10078800EE51000AD8B43CD3660AD8B4EAD729D3C4
:10079800070E0001DE15D8B414D3000E0001E06F77
:1007A800060EDF6FDBC0D9FFDCC0DAFFDECFEBF06F
:1007B800DECFECF0DDCFEDF0030E0001DB27000EFD
:1007C800DC230001EDAF12D0EBC00FF0ECC010F04D
:1007D800EDC011F005EC1DF00FC0EBF010C0ECF00F
:1007E80011C0EDF0030E0001DD1300D0000E000172
:1007F800E66F000EE56F0001EB510001EC110001FE
:10080800ED11D8B48DD0820E576EFF0E586EEBC026
:1008180059F0ECC05AF0EDC05BF0EEC05CF0100E81
:1008280005D0D8905C325B325A325932E82EF9D76B
:10083800595057240001E56F000E58200001E66F5B
:100848000001E507D8A0E607E5C01DF0E6C01EF0E8
:10085800000E206E030E1F6EDEEC1CF01DC0E5F0CE
:100868001EC0E6F0E5C015F0E6C016F0000E186EE2
:100878000A0E176EEDEC16F015C0E5F016C0E6F09E
:100888000001E6AF05D00001E507D8A0E60700D0D3
:100898000001E551000805EC07F036C0E7F037C065
:1008A800E8F038C0E9F0E7C027F0E8C028F0E9C070
:1008B80029F0EBC02AF0ECC02BF0EDC02CF044EC92
:1008C80012F027C0E7F028C0E8F029C0E9F0E7C037
:1008D8000FF0E8C010F0E9C011F0000E126E800EA3
:1008E800136E3F0E146E38EC17F0D8B005D0000127
:1008F800E507D8A0E60714D0E7C00FF0E8C010F06D
:10090800E9C011F0000E126E200E136E410E146E27
:1009180038EC17F0D8A004D00001E54BE62B00D046
:100928000001E0BF08D00001E0511EE10D0E0001FA
:10093800DF5DD8B019D0EBC040F0ECC041F0EDC09D
:1009480042F00001DF51A6EC0AF036C043F037C090
:1009580044F038C045F0E8EC0CF040C0EBF041C082
:10096800ECF042C0EDF000D00001E6BF08D0000175
:10097800E65128E10A0E0001E55DD8B023D0000158
:10098800EB510001EC110001ED11D8B477D0EBC0A8
:100998003DF0ECC03EF0EDC03FF039EC13F03D50B7
:1009A8003E103F104010D8A469D00001E6BF66D0C1
:1009B8000001E65107E1020E0001E55DD8B002D062
:1009C8005DD000D0E7C00FF0E8C010F0E9C011F02A
:1009D800700E126E890E136E400E146E38EC17F0FE
:1009E800D8B003D00001F70E02D00001F80EE527B9
:1009F800FF0EE62300D00001E55105EC07F036C0F4
:100A0800E7F037C0E8F038C0E9F017D0EBC00FF0D6
:100A1800ECC010F0EDC011F0E7C012F0E8C013F020
:100A2800E9C014F0BFEC11F00FC0E1F010C0E2F023
:100A380011C0E3F012C0E4F017D0EBC00FF0ECC027
:100A480010F0EDC011F0E7C012F0E8C013F0E9C0F3
:100A580014F037EC11F00FC0E1F010C0E2F011C053
:100A6800E3F012C0E4F000D0000E0001EB6F000EBE
:100A78000001EC6F000E0001ED6F34D0EBC03DF0CB
:100A8800ECC03EF0EDC03FF039EC13F03DC0E1F0B2
:100A98003EC0E2F03FC0E3F040C0E4F0EBC04CF0F1
:100AA800ECC04DF0EDC04EF0E1C017F0E2C018F018
:100AB800E3C019F0E4C01AF0FEEC19F017C04FF0CB
:100AC80018C050F019C051F0D5EC1BF04CC0EBF039
:100AD8004DC0ECF04EC0EDF0000E0001E66F000EC8
:100AE800E56F00D0010E0001EE6F0A0E0001EE194D
:100AF800D8B422D001D020D00001EE51040D100E40
:100B0800F324F66EFF0EF420F76E0900F55000018D
:100B1800E15D0900F5500001E2590900F5500001B6
:100B2800E3590900F5500001E459D8A005D001D0D7
:100B380003D00001EE2BD9D7030E0001DD15576E47
:100B4800000E0001DE15586E57505810D8B44BD01F
:100B58002D0E8DEC1DF047D0E1C00FF0E2C010F073
:100B6800E3C011F0E4C012F00001EE51040D100EC4
:100B7800F324F66EFF0EF420F76E0900F5CF13F09C
:100B88000900F5CF14F00900F5CF15F00A00F5CFEC
:100B980016F083EC17F00FC0E7F010C0E8F011C0B2
:100BA800E9F012C0EAF0E7C00FF0E8C010F0E9C0C1
:100BB80011F0EAC012F00A0E136E000E146E000E49
:100BC800156E000E166E93EC19F00FC0E7F010C00A
:100BD800E8F011C0E9F012C0EAF00001E751300F67
:100BE8008DEC1DF000D00001EE070001EE29D8B40D
:100BF8000AD0B2D708D0300E8DEC1DF00001E50701
:100C0800D8A0E60700D00001E6BF07D00001E651F2
:100C1800F2E10001E505D8B0EED70001E0BF0CD045
:100C28000001E05105E1090E0001DF5DD8A004D004
:100C3800080E0001EE6F03D0DFC0EEF000D0000117
:100C4800EE510001DF5F000E0001EEBFFF0E000154
:100C5800E05B0001EE510001D8B404D02E0E8DECFB
:100C68001DF000D00001EE5105EC07F036C0D8F0B9
:100C780037C0D9F038C0DAF0EBC02AF0ECC02BF05E
:100C8800EDC02CF0D8C027F0D9C028F0DAC029F080
:100C980044EC12F027C03DF028C03EF029C03FF0D8
:100CA80039EC13F03DC0E1F03EC0E2F03FC0E3F0A4
:100CB80040C0E4F06ED0E1C00FF0E2C010F0E3C035
:100CC80011F0E4C012F00001EE51040D100EF324EF
:100CD800F66EFF0EF420F76E0900F5CF13F0090049
:100CE800F5CF14F00900F5CF15F00A00F5CF16F08E
:100CF80083EC17F00FC0E7F010C0E8F011C0E9F07E
:100D080012C0EAF0E7C00FF0E8C010F0E9C011F037
:100D1800EAC012F00A0E136E000E146E000E156E65
:100D2800000E166E93EC19F00FC0E7F010C0E8F053
:100D380011C0E9F012C0EAF00001E751300F8DEC64
:100D48001DF0E1C00FF0E2C010F0E3C011F0E4C004
:100D580012F00001EE51040D100EF324F66EFF0E92
:100D6800F420F76E0900F5CF13F00900F5CF14F061
:100D78000900F5CF15F00A00F5CF16F093EC19F03D
:100D88000FC0E1F010C0E2F011C0E3F012C0E4F0CF
:100D980000D00001EE070001EE29D8B40AD08BD7A5
:100DA80008D0300E8DEC1DF00001DF07D8A0E00759
:100DB80000D00001DF510001E011D8B412D0F1D702
:100DC80010D0030E0001DD15576E000E0001DE1570
:100DD800586E57505810D8B404D02D0E8DEC1DF015
:100DE80000D052C0F6FF53C0F7FF524A532A0800FA
:100DF800F5CFEEF00001EE51D8B402D0A1D400D066
:100E080012003C6E3CAEEFD03C6C3C50800A120F96
:100E1800D8A08DD0000E206E030E1F6E000E186E27
:100E28000A0E176E000E126E640E116E3C500F6E95
:100E3800106A0FBE10061AEC19F00FC015F010C09A
:100E480016F0EDEC16F0090E15241D6E000E162096
:100E58001E6EDEEC1CF0380E1D24F66EFF0E1E20F2
:100E6800F76E0900F5CF2AF00900F5CF2BF00A003C
:100E7800F5CF2CF0000E186E640E176E3C50156EF0
:100E8800166A15BE1606EDEC16F0120E15241D6E28
:100E9800000E16201E6E000E206E030E1F6EDEEC76
:100EA8001CF0380E1D24F66EFF0E1E20F76E09008A
:100EB800F5CF27F00900F5CF28F00A00F5CF29F083
:100EC80044EC12F027C039F028C03AF029C03BF0B2
:100ED80039C027F03AC028F03BC029F0000E206E38
:100EE800030E1F6E000E126E0A0E116E3C500F6E2E
:100EF800106A0FBE10061AEC19F00FC01DF010C0D2
:100F08001EF0DEEC1CF0380E1D24F66EFF0E1E20BF
:100F1800F76E0900F5CF2AF00900F5CF2BF00A008B
:100F2800F5CF2CF044EC12F041D15AD154D03C50BA
:100F3800800A750FD8A04FD0000E186E0A0E176ED3
:100F48003C50156E166A15BE1606EDEC16F0090E25
:100F580015241D6E000E16201E6E000E206E030E48
:100F68001F6EDEEC1CF0380E1D24F66EFF0E1E20E0
:100F7800F76E0900F5CF27F00900F5CF28F00A0031
:100F8800F5CF29F0000E206E030E1F6E000E126EB4
:100F98000A0E116E3C500F6E106A0FBE10061AEC46
:100FA80019F00FC01DF010C01EF0DEEC1CF0380E5A
:100FB8001D24F66EFF0E1E20F76E0900F5CF2AF0ED
:100FC8000900F5CF2BF00A00F5CF2CF044EC12F015
:100FD800EDD006D100D03C50030D380EF324F66E48
:100FE800FF0EF2D0FDD03C50800A120FD8A08DD051
:100FF800000E206E030E1F6E000E186E0A0E176E7E
:10100800000E126E640E116E3C500F6E106A0FBE09
:1010180010061AEC19F00FC015F010C016F0EDEC20
:1010280016F0090E15241D6E000E16201E6EDEEC3D
:101038001CF05F0E1D24F66EFF0E1E20F76E0900D1
:10104800F5CF2AF00900F5CF2BF00A00F5CF2CF0E8
:10105800000E186E640E176E3C50156E166A15BE9B
:101068001606EDEC16F0120E15241D6E000E162055
:101078001E6E000E206E030E1F6EDEEC1CF05F0E5F
:101088001D24F66EFF0E1E20F76E0900F5CF27F01F
:101098000900F5CF28F00A00F5CF29F044EC12F04A
:1010A80027C039F028C03AF029C03BF039C027F0F2
:1010B8003AC028F03BC029F0000E206E030E1F6EC8
:1010C800000E126E0A0E116E3C500F6E106A0FBEA3
:1010D80010061AEC19F00FC01DF010C01EF0DEEC5F
:1010E8001CF05F0E1D24F66EFF0E1E20F76E090021
:1010F800F5CF2AF00900F5CF2BF00A00F5CF2CF038
:1011080044EC12F053D06CD059D03C50800A750F83
:10111800D8A054D0000E186E0A0E176E3C50156EEB
:10112800166A15BE1606EDEC16F0090E15241D6E8E
:10113800000E16201E6E000E206E030E1F6EDEECD3
:101148001CF05F0E1D24F66EFF0E1E20F76E0900C0
:10115800F5CF27F00900F5CF28F00A00F5CF29F0E0
:10116800000E206E030E1F6E000E126E0A0E116E18
:101178003C500F6E106A0FBE10061AEC19F00FC023
:101188001DF010C01EF0DEEC1CF05F0E1D24F66E84
:10119800FF0E1E20F76E0900F5CF2AF00900F5CFE3
:1011A8002BF00A00F5CF2CF044EC12F027C036F0F3
:1011B80028C037F029C038F013D000D03C50030DB8
:1011C8005F0EF324F66EFF0EF420F76E0900F5CFDC
:1011D80036F00900F5CF37F00A00F5CF38F000D027
:1011E8001200426E42501E0DF350230F436E4150C1
:1011F800D8A467D0000E3A6E280E396E43C03BF073
:101208003C6A000E3E6E070E3D6E000E406E000EEC
:101218003F6EAFEC1AF0000E3A6E3C0E396E43C0CA
:101228003BF03C6A000E3E6E070E3D6E000E406EAF
:10123800000E3F6EAFEC1AF0000E3A6E500E396E8B
:1012480043C03BF03C6A000E3E6E070E3D6E000E3A
:10125800406E000E3F6EAFEC1AF0000E1B6E280EAB
:101268001A6E43C01CF01D6A000E1F6E070E1E6E1C
:10127800F80E216E000E206ECAEC0DF0000E1B6EEB
:101288003C0E1A6E43C01CF01D6A000E1F6E070E3E
:101298001E6EFF0E216EE00E206ECAEC0DF0000EE1
:1012A8001B6E500E1A6E43C01CF01D6A000E1F6E96
:1012B800070E1E6E070E216EE00E206ECAEC0DF0B2
:1012C80000D04104D8A467D0000E3A6E280E396EBB
:1012D80043C03BF03C6A000E3E6E070E3D6EF80EB2
:1012E800406E000E3F6EAFEC1AF0000E3A6E3C0EE8
:1012F800396E43C03BF03C6A000E3E6E070E3D6EF1
:10130800000E406E000E3F6EAFEC1AF0000E3A6E03
:10131800500E396E43C03BF03C6A000E3E6E070E1D
:101328003D6E000E406E000E3F6EAFEC1AF0000EE0
:101338001B6E280E1A6E43C01CF01D6A000E1F6E2D
:10134800070E1E6EF80E216E000E206ECAEC0DF010
:10135800000E1B6E3C0E1A6E43C01CF01D6A000E78
:101368001F6E070E1E6EFF0E216EE00E206ECAEC79
:101378000DF0000E1B6E500E1A6E43C01CF01D6A55
:10138800000E1F6E070E1E6E070E216EE00E206EF9
:10139800CAEC0DF000D0030E4118D8A467D0000E97
:1013A8003A6E280E396E43C03BF03C6A000E3E6E22
:1013B800070E3D6E000E406E000E3F6EAFEC1AF049
:1013C800000E3A6E3C0E396E43C03BF03C6A000E8C
:1013D8003E6E070E3D6EFF0E406EE00E3F6EAFECA8
:1013E8001AF0000E3A6E500E396E43C03BF03C6A5C
:1013F800000E3E6E070E3D6E000E406E000E3F6EF4
:10140800AFEC1AF0000E1B6E280E1A6E43C01CF0CB
:101418001D6A000E1F6E070E1E6EF80E216E000E5E
:10142800206ECAEC0DF0000E1B6E3C0E1A6E43C007
:101438001CF01D6A000E1F6E070E1E6EFF0E216E39
:10144800E00E206ECAEC0DF0000E1B6E500E1A6EE8
:1014580043C01CF01D6A000E1F6E070E1E6E070E9D
:10146800216EE00E206ECAEC0DF000D0020E41187D
:10147800D8A467D0000E3A6E280E396E43C03BF0F0
:101488003C6A000E3E6E070E3D6E000E406E000E6A
:101498003F6EAFEC1AF0000E3A6E3C0E396E43C048
:1014A8003BF03C6A000E3E6E070E3D6E000E406E2D
:1014B800000E3F6EAFEC1AF0000E3A6E500E396E09
:1014C80043C03BF03C6A000E3E6E070E3D6E070EB1
:1014D800406EE00E3F6EAFEC1AF0000E1B6E280E49
:1014E8001A6E43C01CF01D6A000E1F6E070E1E6E9A
:1014F800F80E216E000E206ECAEC0DF0000E1B6E69
:101508003C0E1A6E43C01CF01D6A000E1F6E070EBB
:101518001E6EFF0E216EE00E206ECAEC0DF0000E5E
:101528001B6E500E1A6E43C01CF01D6A000E1F6E13
:10153800070E1E6E070E216EE00E206ECAEC0DF02F
:1015480000D012003F6E6D0E3F649BD0000E206EDF
:10155800030E1F6E000E186E0A0E176E000E126E26
:10156800640E116E3FC00FF0106A1AEC19F00FC02C
:1015780015F010C016F0EDEC16F0090E15241D6ECE
:10158800000E16201E6EDEEC1CF0380E1D24F66EC2
:10159800FF0E1E20F76E0900F5CF2AF00900F5CFDF
:1015A8002BF00A00F5CF2CF0000E186E640E176EA3
:1015B8003FC015F0166AEDEC16F0120E15241D6EDC
:1015C800000E16201E6E000E206E030E1F6EDEEC3F
:1015D8001CF0380E1D24F66EFF0E1E20F76E090053
:1015E800F5CF27F00900F5CF28F00A00F5CF29F04C
:1015F80044EC12F027C03CF028C03DF029C03EF072
:10160800000E206E030E1F6E000E126E0A0E116E73
:101618003FC00FF0106A1AEC19F00FC01DF010C08F
:101628001EF0DEEC1CF0380E1D24F66EFF0E1E2098
:10163800F76E0900F5CF2AF00900F5CF2BF00A0064
:10164800F5CF2CF03CC027F03DC028F03EC029F073
:1016580044EC12F027C039F028C03AF029C03BF01A
:1016680039C027F03AC028F03BC029F0000E2A6E96
:10167800000E2B6E3F0E2C6E44EC12F07DD083D002
:1016880062D00A0E3F645FD0000E206E030E1F6EFC
:10169800000E126E0A0E116E3FC00FF0106A1AEC9F
:1016A80019F00FC01DF010C01EF0DEEC1CF0380E53
:1016B8001D24F66EFF0E1E20F76E0900F5CF2AF0E6
:1016C8000900F5CF2BF00A00F5CF2CF0000E186EAC
:1016D8000A0E176E3FC015F0166AEDEC16F0090EEB
:1016E80015241D6E000E16201E6E000E206E030EB1
:1016F8001F6EDEEC1CF0380E1D24F66EFF0E1E2049
:10170800F76E0900F5CF27F00900F5CF28F00A0099
:10171800F5CF29F044EC12F027C03CF028C03DF08A
:1017280029C03EF03CC027F03DC028F03EC029F05B
:10173800000E2A6E000E2B6E3F0E2C6E44EC12F03B
:101748001BD021D000D03F50030D380EF324F66E85
:10175800FF0EF420F76E0900F5CF27F00900F5CF4A
:1017680028F00A00F5CF29F0000E2A6E000E2B6E25
:101778003F0E2C6E44EC12F027C036F028C037F02C
:1017880029C038F000D01200F2EC1CF00FC05DF058
:1017980010C05EF05DC01DF05EC01EF0000E206E31
:1017A800050E1F6EDEEC1CF01DC023F01EC024F0D9
:1017B80035EC1CF023C027F024C028F025C029F000
:1017C800000E2A6E800E2B6E440E2C6EACEC13F0BD
:1017D80027C080F028C081F029C082F080C00FF0B7
:1017E80081C010F082C011F0000E126E100E136E40
:1017F800400E146E38EC17F0D8B002D0010E01D0AC
:10180800000E696EB10E526EFF0E536E80C054F01A
:1018180081C055F082C056F09DEC03F062C068F0BC
:10182800000E80B4010E676E65C06BF0000E80B2CA
:10183800010E6A6E6950D8A402D04E0E01D0440E33
:101848000001D26F6850D8A402D0300E01D0310EFA
:101858000001D06F6750D8A402D0300E01D0310EED
:101868000001CE6F6B50D8A402D0300E01D0310EDB
:101878000001D66F6A50D8A402D0300E01D0310EC4
:101888000001D46F6450D8A402D0300E01D0310EBC
:101898000001CA6F6350D8A402D0300E01D0310EB7
:1018A8000001CC6F00D00A0E376ECA0E386E000EDB
:1018B800396EFF0E3B6E3A68000E3D6E000E3C6EB0
:1018C800010E3E6E460E1DEC14F00A0E376ECC0E5D
:1018D800386E000E396EFF0E3B6E3A68000E3D6E94
:1018E800000E3C6E010E3E6E640E1DEC14F00A0EE6
:1018F800376EC80E386E000E396EFF0E3B6E3A68B2
:10190800000E3D6E000E3C6E010E3E6E230E1DEC69
:1019180014F0950E376ED00E386E000E396EFF0E2D
:101928003B6E3A68000E3D6E000E3C6E010E3E6E38
:10193800060E1DEC14F0950E376ECE0E386E000EA6
:10194800396EFF0E3B6E3A68000E3D6E000E3C6E1F
:10195800010E3E6E200E1DEC14F0950E376ED60E5D
:10196800386E000E396EFF0E3B6E3A68000E3D6E03
:10197800000E3C6E010E3E6E3A0E1DEC14F0950EF4
:10198800376ED40E386E000E396EFF0E3B6E3A6815
:10199800000E3D6E000E3C6E010E3E6E570E1DECA5
:1019A80014F0950E376ED20E386E000E396EFF0E9B
:1019B8003B6E3A68000E3D6E000E3C6E010E3E6EA8
:1019C800700E1DEC14F0120042C046F0476A486AD7
:1019D8004134463601E3478046504B6E45C046F0D9
:1019E800476A486A4434463601E3478046504A6E9F
:1019F8004B50D8B40BD04A504B5CD8B00ED04B509B
:101A080000084A24466E180E466407D043C040F0CA
:101A180044C041F045C042F0B8D04A50D8B40BD0C9
:101A28004B504A5CD8B00ED04A5000084B24466E42
:101A3800180E466407D040C040F041C041F042C093
:101A480042F0A3D0060E496E42AE02D0498E00D0B5
:101A580045BE498C418EFF0E4016FF0E4116000E02
:101A68004216448EFF0E4316FF0E4416000E45160E
:101A78004A504B5CD8B01ED0D890433644364536D1
:101A88004A064B504A18D8B40FD0490649C046F008
:101A9800070E4616D8B408D0EFD706D0D8904232F1
:101AA800413240324B2A00D04A504B18D8B424D087
:101AB800F5D722D04B504A5CD8B01ED0D8904036CB
:101AC800413642364B064B504A18D8B40FD0490617
:101AD80049C046F0070E4616D8B408D0EFD706D04E
:101AE800D8904532443243324A2A00D04A504B18E3
:101AF800D8B402D0F5D700D049AE0CD0FF0E401AAA
:101B0800FF0E411AFF0E421A010E4026000E412216
:101B1800000E422249AC0DD0FF0E431AFF0E441AA4
:101B2800FF0E451A010E4326000E4422000E4522E0
:101B380000D0000E496E4050432641504422425086
:101B4800452245AE0FD0FF0E431AFF0E441AFF0E72
:101B5800451A010E4326000E4422000E4522010EAE
:101B6800496E00D043C00FF044C010F045C011F0DA
:101B78004BC012F049C013F0CBEC15F00FC040F089
:101B880010C041F011C042F000D012001EC022F077
:101B98001FC023F0221E231E224A232A010E2224BC
:101BA800286E000E2320296E000E256E010E246E6D
:101BB8001EC022F01FC023F0D89022362336221EE2
:101BC800231E224A232A22C026F023C027F0000E13
:101BD8002B6E000E2A6E1EC02CF01FC02DF01C505C
:101BE8001E24166E20C017F021C018F01A5087EC7A
:101BF8001CF01E5000081C24166E20C017F021C0CF
:101C080018F01A5087EC1CF01CC016F020C017F012
:101C180021C018F01A501E2487EC1CF01CC016F0C6
:101C280020C017F021C018F01E5000081A2487ECB5
:101C38001CF078D029BE0BD02C06D8A02D06020E99
:101C48002626000E272226502826275029222A4AEF
:101C58002B2A020E2426000E252224502826255041
:101C680029221C502C24166E20C017F021C018F011
:101C78001A502A2487EC1CF01C502C24166E20C005
:101C880017F021C018F02A5000081A2487EC1CF01D
:101C98002C5000081C24166E20C017F021C018F024
:101CA8001A502A2487EC1CF02C5000081C24166EAD
:101CB80020C017F021C018F02A5000081A2487EC19
:101CC8001CF01C502A24166E20C017F021C018F0F2
:101CD8001A502C2487EC1CF01C502A24166E20C0A5
:101CE80017F021C018F02C5000081A2487EC1CF0BB
:101CF8002A5000081C24166E20C017F021C018F0C6
:101D08001A502C2487EC1CF02A5000081C24166E4C
:101D180020C017F021C018F02C5000081A2487ECB6
:101D28001CF000D02C502A5C2B50800A226E2D50BB
:101D3800800A2258D8A07ED71200496EB6D048C073
:101D480015F0166A000E186E0A0E176EEDEC16F0F6
:101D58001550300F0001BF6F48C00FF0106A000E19
:101D6800126E0A0E116E1AEC19F00F50300F0001A6
:101D7800C06F1E0E376EBF0E386E000E396E000E25
:101D88003B6E1F0E3A6E000E3D6E000E3C6E020E4C
:101D98003E6E640E1DEC14F096D048C015F0166A1D
:101DA800000E186E0A0E176EEDEC16F01550300F77
:101DB8000001BC6F48C00FF0106A000E126E0A0EC8
:101DC800116E1AEC19F00F50300F0001BD6F3C0E68
:101DD800376EBC0E386E000E396EF80E3B6E1F0E55
:101DE8003A6E000E3D6E000E3C6E020E3E6E640EA4
:101DF8001DEC14F068D048C015F0166A000E186E75
:101E08000A0E176EEDEC16F01550300F0001B96F81
:101E180048C00FF0106A000E126E0A0E116E1AEC0E
:101E280019F00F50300F0001BA6F5A0E376EB90E05
:101E3800386E000E396E070E3B6E3A68000E3D6E26
:101E4800000E3C6E020E3E6E640E1DEC14F03BD08C
:101E580048C015F0166A000E186E0A0E176EEDECE3
:101E680016F01550300F0001B66F48C00FF0106A19
:101E7800000E126E0A0E116E1AEC19F00F50300F88
:101E88000001B76F780E376EB60E386E000E396ED9
:101E9800FF0E3B6E3A68000E3D6E000E3C6E020E61
:101EA8003E6E640E1DEC14F00ED04950000AD8B4F2
:101EB80046D7010AD8B471D7030AD8B49CD7010A07
:101EC800D8B4C6D700D01200346E800E3460A6D0C5
:101ED8009F0E2C6401D0A2D03250D8A403D0010E9A
:101EE800326E00D01F0E2D6404D07E0E2D6403D0F8
:101EF80000D03F0E2D6E000E366E040E366401D0F3
:101F08008DD0530E2D6015D0E00E2D241D6E1E6A47
:101F1800FF0E1E22000E206E050E1F6EDEEC1CF05A
:101F280036501D26000E1E22350E1D24F66EFD0E9F
:101F380014D0AD0E2D241D6E1E6AFF0E1E22000E3B
:101F4800206E050E1F6EDEEC1CF036501D26000EAE
:101F58001E22340E1D24F66EFE0E1E20F76E08009B
:101F6800F5CF33F000D0000E356E060E356401D083
:101F780053D033A023D03204D8A40CD02C5035240D
:101F8800166E2EC017F02FC018F03450362487EC88
:101F98001CF03ED035503202F3502C24216E32C052
:101FA80022F032C023F02EC024F02FC025F0365086
:101FB8003202F350342428EC1BF02AD02E5030186B
:101FC80004E12F503118D8B423D03204D8A40CD04F
:101FD8002C503524166E30C017F031C018F034502C
:101FE800362487EC1CF014D035503202F3502C24E0
:101FF800216E32C022F032C023F030C024F031C04C
:1020080025F036503202F350342428EC1BF000D06F
:10201800352AD8903332A9D7362A6FD7120025C06F
:102028002DF026C02EF02D1E2E1E2D4A2E2A010E12
:102038002D24336E000E2E20346E000E306E010EED
:102048002F6E25C02DF026C02EF0D8902D362E36B6
:102058002D1E2E1E2D4A2E2A2DC031F02EC032F0F4
:10206800000E366E000E356E25C037F026C038F0EB
:1020780067D034BE0BD03706D8A03806020E3126FA
:10208800000E32223150332632503422354A362A55
:10209800020E2F26000E30222F50332630503422C5
:1020A80027A025D0375000082324166E3750372430
:1020B80029242D6E2D28176E2BC018F02CC019F06E
:1020C8002150352452EC18F0355000082324166EA0
:1020D8003550352429242D6E2D28176E2BC018F065
:1020E8002CC019F02150372452EC18F000D027A248
:1020F80027D0375000082324166E37503724292458
:102108002D6E2D28176E2BC018F02CC019F03550E5
:102118000008212452EC18F0355000082324166ECC
:102128003550352429242D6E2D28176E2BC018F014
:102138002CC019F037500008212452EC18F000D0B8
:102148003750355C3650800A2D6E3850800A2D582D
:10215800D8A08FD71200010E85EC1DF0000E246E5A
:10216800960E236E86EC1AF0110E85EC1DF0010E0A
:10217800246EF40E236E86EC1AF0B10E85EC1DF079
:10218800010E7DEC1DF02C0E7DEC1DF02D0E7DEC6E
:102198001DF0B20E85EC1DF0010E7DEC1DF02C0E2D
:1021A8007DEC1DF02D0E7DEC1DF0B30E85EC1DF0C1
:1021B800010E7DEC1DF02C0E7DEC1DF02D0E7DEC3E
:1021C8001DF0010E7DEC1DF02C0E7DEC1DF02D0E8A
:1021D8007DEC1DF0B40E85EC1DF0070E7DEC1DF0B6
:1021E800C00E85EC1DF0A20E7DEC1DF0020E7DECFC
:1021F8001DF0840E7DEC1DF0C10E85EC1DF0C50EA2
:102208007DEC1DF0C20E85EC1DF00A0E7DEC1DF074
:10221800000E7DEC1DF0C30E85EC1DF08A0E7DECE2
:102228001DF02A0E7DEC1DF0C40E85EC1DF08A0E03
:102238007DEC1DF0EE0E7DEC1DF0C50E85EC1DF05D
:102248000E0E7DEC1DF0200E85EC1DF0360E85EC93
:102258001DF0C80E7DEC1DF03A0E85EC1DF0050E44
:102268007DEC1DF0120011C015F0166A176A1034C3
:10227800153601E3168015501D6E1D50D8A402D0E6
:102288005DD078D014C015F0166A176A1334153665
:1022980001E3168015501C6E1C50D8A402D04ED0F5
:1022A80069D0108EFF0E0F16FF0E1016000E1116B5
:1022B800138EFF0E1216FF0E1316000E1416000EC4
:1022C800186E000E196E000E1A6E000E1B6E7F0E31
:1022D8001D5E1C50980F1D5E180E1C6ED890183687
:1022E80019361A361B3612500F5C135010581450FA
:1022F8001158D8A007D012500F5E1350105A14501E
:10230800115A1880D8900F36103611361C2EE6D781
:1023180000D01DAE10D01D50800A970FD8B003D042
:102328000DD028D000D0D8901B321A32193218326A
:102338001D3EF9D717D0170E1D6411D0000E0F6E71
:10234800000E106E000E116E000E126E13D007D024
:10235800D890183619361A361B361D0600D01D506F
:10236800D8A4F6D718C00FF019C010F01AC011F091
:102378001BC012F01200113412341A6E1A50D8A46D
:1023880002D061D07CD014341534196E1950D8A4F9
:1023980002D059D074D0118EFF0E0F16FF0E1016F2
:1023A800FF0E1116000E1216148EFF0E1216FF0ED7
:1023B8001316FF0E1416000E1516000E156E000EDD
:1023C800166E000E176E000E186E7F0E1A5E1950EC
:1023D800A00F1A5E200E196E00D0D890153616364A
:1023E8001736183612500F5C1350105814501158E5
:1023F80015501258D8A00AD012500F5E1350105A18
:102408001450115A1550125A158000D0D8900F3612
:10241800103611361236192EE0D700D01AAE10D069
:102428001A50800A9F0FD8B003D00DD028D000D002
:10243800D89018321732163215321A3EF9D717D0FB
:102448001F0E1A6411D0000E0F6E000E106E000ED3
:10245800116E000E126E13D007D0D89015361636AE
:10246800173618361A0600D01A50D8A4F6D715C051
:102478000FF016C010F017C011F018C012F01200BB
:1024880029C02DF02E6A2F6A28342D3601E32E80BC
:102498002D50306E3050D8A402D00ED06CD02CC045
:1024A8002DF02E6A2F6A2B342D3601E32E802D5005
:1024B800356E3550D8A407D0000E276E000E286E52
:1024C800000E296E58D035507B0F302629C035F0C4
:1024D8002C50351A800E3516288E2B8EFF0E2A1694
:1024E800FF0E2B16000E2C16000E316E000E326EEB
:1024F800000E336E070E346E00D027A007D02A5086
:1025080031262B5032222C50332200D0D890293239
:1025180028322732D8902A362B362C36342EEDD74F
:1025280000D0090E346E00D027A007D02A503126DB
:102538002B5032222C50332200D0D8902932283206
:102548002732D890333232323132342EEDD700D0A0
:1025580031C00FF032C010F033C011F030C012F0AB
:1025680035C013F0CBEC15F00FC027F010C028F0E1
:1025780011C029F000D01200E00E85EC1DF0020E0B
:102588007DEC1DF01C0E7DEC1DF0070E7DEC1DF0A2
:10259800120E7DEC1DF0370E7DEC1DF0320E7DEC39
:1025A8001DF0290E7DEC1DF02D0E7DEC1DF0290E81
:1025B8007DEC1DF0250E7DEC1DF02B0E7DEC1DF045
:1025C800390E7DEC1DF0000E7DEC1DF0010E7DEC4A
:1025D8001DF0030E7DEC1DF0100E7DEC1DF0E10EDC
:1025E80085EC1DF0030E7DEC1DF01D0E7DEC1DF03D
:1025F800070E7DEC1DF0060E7DEC1DF02E0E7DEC19
:102608001DF02C0E7DEC1DF0290E7DEC1DF02D0E1D
:102618007DEC1DF02E0E7DEC1DF02E0E7DEC1DF0D8
:10262800370E7DEC1DF03F0E7DEC1DF0000E7DECAD
:102638001DF0000E7DEC1DF0020E7DEC1DF0100E5D
:102648007DEC1DF0130E85EC1DF0000E246E0A0EB5
:10265800236E86EC1AF0290E85EC1DF0000E246E10
:10266800640E236E86EC1AF012003FC041F0426AF5
:10267800436A3E34413601E3428041504B6E4B5031
:10268800D8A402D039D063D0170E416E3DC042F0B5
:102698003EC043F03FC044F04128456E04D0D89076
:1026A800443243324232452EFAD74250466E3E8E6D
:1026B800FF0E3D16FF0E3E16000E3F163D50476EAC
:1026C8003E50486E3F50496E4A6A8E0E4B5E4BAE86
:1026D80010D04B50800A8F0FD8B003D00DD037D010
:1026E80000D0D8904A324932483247324B3EF9D767
:1026F80019D0170E4B6411D0000E3D6E000E3E6EC1
:10270800000E3F6E000E406E22D007D0D89047369C
:10271800483649364A364B0600D04B50D8B402D01A
:10272800F5D700D04650D8B409D04A1E491E481ED5
:10273800476C000E482249224A2200D047C03DF08B
:1027480048C03EF049C03FF04AC040F000D01200F7
:1027580029C02DF02E6A2F6A28342D3601E32E80E9
:102768002D50346E3450D8A402D00ED061D02CC075
:102778002DF02E6A2F6A2B342D3601E32E802D5032
:10278800356E3550D8A407D0000E276E000E286E7F
:10279800000E296E4DD0000E316E000E326E000E06
:1027A800336E3550890F345E29C035F02C50351AF8
:1027B800800E3516288EFF0E2716FF0E2816000EDF
:1027C80029162B8EFF0E2A16FF0E2B16000E2C161E
:1027D800180E306E00D0D8903136323633362A5043
:1027E800275C2B5028582C502958D8A007D02A509D
:1027F800275E2B50285A2C50295A3180D8902736DA
:1028080028362936302EE7D700D031C00FF032C035
:1028180010F033C011F034C012F035C013F0CBEC17
:1028280015F00FC027F010C028F011C029F000D013
:102838001200416E41C047F037C046F038C00FF073
:1028480039C010F016EC1CF00FC042F010C043F075
:10285800000E456E000E446E54D07150D8B42CD082
:102868003E50050D47503F6E406AF3503F26F450E6
:10287800402240BE21D0405004E1810E3F5CD8A0E8
:102888001BD0000E476E3E50070DF3504624030F31
:10289800466EA00E466403D0A00E466E00D044508B
:1028A8003824D96E45503920DA6E200EDE18D8B497
:1028B80025D002D023D000D046C02CF04450382474
:1028C800D96E45503920DA6EDF502D6E3AC02EF0A1
:1028D8003BC02FF03CC030F03DC031F03EC032F07C
:1028E800475068EC0FF03E50060DF3504724476EF2
:1028F800800E476403D0800E476E00D0444A452AB4
:1029080000D04250445C43504558D8A0A6D7120086
:10291800216E800E216069D09F0E166401D065D0AB
:10292800FF0E1B6EFF0E1C6E175021C01DF01E6A95
:102938001D26000E1E221B501D261C501E221EBEC8
:102948000AD01E5004E1800E1D5CD8A004D021508E
:102958000008800F176EFF0E1B6EFF0E1C6E1850BE
:1029680016C01DF01E6A1D26000E1E221B501D26B5
:102978001C501E221EBE0BD01E5004E1A00E1D5C72
:10298800D8A005D016500008A00F186E00D016C0A9
:1029980012F0215017241B6E1B04136E16501824B6
:1029A8001C6E1C04146E215001EC1BF01A501F6E93
:1029B80019C020F08280829418C016F01650D8B43E
:1029C80013D001D011D017C021F02150D8B40AD0AB
:1029D80001D008D01F5061EC1DF0205061EC1DF0B3
:1029E8002106F3D71606EAD782841200000E0001EA
:1029F8008A6F010E896F818E440E0001C86F010E27
:102A08004DEC1BF0010EB3EC1BF0010E91EC1BF02A
:102A1800020E6FEC1BF06550D8B406D0080E00010A
:102A2800EF6F000ED8EC1AF0070E53EC1CF0030EF3
:102A38006FEC1BF0030E53EC1CF0010E6FEC1BF057
:102A480080A410D0020E91EC1BF0080E53EC1CF081
:102A5800030E91EC1BF0030E53EC1CF0010E91ECED
:102A68001BF000D0020EB3EC1BF06250D8B407D0B4
:102A7800090E0001EF6F010ED8EC1AF000D0020E1B
:102A8800B3EC1BF0090E53EC1CF0030EB3EC1BF077
:102A9800030E53EC1CF0010EB3EC1BF080A20DD01A
:102AA800020E4DEC1BF0080E53EC1CF0030E4DEC1F
:102AB8001BF0030E53EC1CF000D0010E4DEC1BF084
:102AC8001200496E5BD048C015F0166A000E186EE9
:102AD8000A0E176EEDEC16F01550300F0001C26F9C
:102AE80048C00FF0106A000E126E0A0E116E1AEC32
:102AF80019F00F50300F0001C36F5A0E376EC20E17
:102B0800386E000E396E070E3B6E3A68000E3D6E49
:102B1800000E3C6E020E3E6E020E1DEC14F036D016
:102B280048C015F0166A000E186E0A0E176EEDEC06
:102B380016F01550300F0001C56F48C00FF0106A2D
:102B4800000E126E0A0E116E1AEC19F00F50300FAB
:102B58000001C66F1E0E376EC50E386E000E396E38
:102B6800000E3B6E1F0E3A6E000E3D6E000E3C6E60
:102B7800020E3E6E020E1DEC14F008D04950000AF9
:102B8800D8B4CED7010AD8B49ED700D012001250BC
:102B9800D8B405D00F5010101110D8A40ED0000EC4
:102BA8000F6E000E106E000E116E53D006D0122A52
:102BB800D890113210320F3200D0000E0F14146E5C
:102BC800000E1014156EFE0E1114166E145015100A
:102BD8001610D8B40ED0EBD70CD0122A010E0F263F
:102BE800000E1022000E1122D890113210320F322E
:102BF80000D0000E0F14146E000E1014156EFF0E88
:102C08001114166E145015101610D8B408D0E5D744
:102C180006D01206D8900F361036113600D010BEE6
:102C280004D0020E1260F5D700D012B002D0109E68
:102C380000D0D8901232125011121350D8B402D0CA
:102C4800118E00D00FC00FF010C010F011C011F09D
:102C580000D01200CAEC1CF00EEC00F000D0000E00
:102C680094EC1DF0F2EC1CF00FC0F8F010C0F9F075
:102C7800F8C023F0F9C024F035EC1CF023C027F08D
:102C880024C028F025C029F0000E2A6E800E2B6E75
:102C9800400E2C6E44EC12F027C0F2F028C0F3F07E
:102CA80029C0F4F0F2C0F5F0F3C0F6F0F4C0F7F084
:102CB800F5C03DF0F6C03EF0F7C03FF039EC13F038
:102CC8003DC0FAF03EC0FBF00001FBBF08D0CA0EC1
:102CD8000001FA5D080E0001FB59D8B009D0818EB9
:102CE800000E00018A6F010E896FFAEC14F009D00A
:102CF800819E000E00018A6F000E896F8FEC16F01E
:102D080000D06404D8A4ABD7000E646E2EEC1AF081
:102D1800A6D70CEF00F0000E00018A6F000E896F35
:102D2800000E656E000E626E819E4E0E0001C86F29
:102D3800010E4DEC1BF0010EB3EC1BF0010E91ECF3
:102D48001BF0020E6FEC1BF0080E53EC1CF0030E88
:102D58006FEC1BF0030E53EC1CF0010E6FEC1BF034
:102D680080A410D0020E91EC1BF0060E53EC1CF060
:102D7800030E91EC1BF0030E53EC1CF0010E91ECCA
:102D88001BF010D0020EB3EC1BF0060E53EC1CF037
:102D9800030EB3EC1BF0030E53EC1CF0010EB3EC66
:102DA8001BF000D080A210D0020E4DEC1BF0080ED4
:102DB80053EC1CF0030E4DEC1BF0030E53EC1CF00F
:102DC800010E4DEC1BF004D0010E4DEC1BF000D0B1
:102DD8001200000E1A6E18AE07D0176C181ED8B065
:102DE800182A010E1A6E00D016AE07D0156C161EE2
:102DF800D8B0162A010E1A1A00D0000E1C6E000E4A
:102E08001B6E17501810D8B421D0010E196E05D0BA
:102E1800D89017361836192A00D018BE02D0F8D71D
:102E280000D0D8901B361C361750155C1850165811
:102E3800D8A006D01750155E1850165A1B8000D01F
:102E4800D89018321732192EECD700D01A50D8B4AF
:102E580005D01B6C1C1ED8B01C2A00D01BC015F056
:102E68001CC016F000D0120011AE17D00FC015F01C
:102E780010C016F011C017F0151E161E171E152AC1
:102E8800000E16221722000E15240F6E000E1620B3
:102E9800106E800E1720116E00D014AE17D012C01D
:102EA80015F013C016F014C017F0151E161E171EC5
:102EB800152A000E16221722000E1524126E000E77
:102EC8001620136E800E1720146E00D0000E0F1AF5
:102ED800000E101A800E111A000E121A000E131A84
:102EE800800E141A12500F5C1350105814501158B9
:102EF800D8B002D0D89002D0D88000D01200000EEE
:102F0800176E000E186E000E196E000E1A6E135012
:102F1800141015101610D8B42FD0010E1B6E07D040
:102F2800D89013361436153616361B2A00D016BE1E
:102F380002D0F6D700D0D8901736183619361A3678
:102F480013500F5C14501058155011581650125841
:102F5800D8A00AD013500F5E1450105A1550115AA9
:102F68001650125A178000D0D890163215321432E3
:102F780013321B2EE0D700D017C00FF018C010F086
:102F880019C011F01AC012F01200838E5FC00FF042
:102F980060C010F0FD0E116EFF0E126E6EEC1CF08C
:102FA8000A0E376E5FC038F060C039F0FF0E3B6E16
:102FB8003A68000E3D6E000E3C6E010E3E6E780EB5
:102FC8001DEC14F074EC1DF025EC1DF0839E5FC021
:102FD8000FF060C010F0FB0E116EFF0E126E6EEC5B
:102FE8001CF00A0E376E5FC038F060C039F0FF0E73
:102FF8003B6E3A68000E3D6E000E3C6E010E3E6E52
:10300800780E1DEC14F09FEC1DF025EC1DF0C8ECBB
:103018000BF01200206E800E20603FD09F0E1664C9
:1030280001D03BD0FF0E1A6EFF0E1B6E175020C04A
:103038001CF01D6A1C26000E1D221A501C261B504F
:103048001D221DBE0BD01D5004E1800E1C5CD8A0B3
:1030580005D020500008800F176E00D019501E6E42
:1030680018C01FF016C012F0205017241A6E1A0448
:10307800136E16C014F0205001EC1BF0828082946D
:1030880007D01E5061EC1DF01F5061EC1DF000D000
:1030980017061728D8A4F5D782841200206E800E50
:1030A80020603FD09F0E166401D03BD0FF0E1A6EF1
:1030B800FF0E1B6E175016C01CF01D6A1C26000E52
:1030C8001D221A501C261B501D221DBE0BD01D5040
:1030D80004E1A00E1C5CD8A005D016500008A00F73
:1030E800176E00D019501E6E18C01FF016C012F0CF
:1030F80020C013F0165017241A6E1A04146E2050AC
:1031080001EC1BF08280829407D01E5061EC1DF008
:103118001F5061EC1DF000D017061728D8A4F5D76A
:10312800828412000600EACF04F0E1CF05F0E2CF76
:1031380006F0D9CF07F0DACF08F0F3CF09F0F4CFD3
:103148000AF0F6CF0BF0F7CF0CF0F8CF0DF0F5CF73
:103158000EF0F2A203D03FEC1DF000D0F0A003D097
:1031680032EC1DF000D0F0A203D0A3EC1DF000D08B
:103178000EC0F5FF0DC0F8FF0CC0F7FF0BC0F6FF3F
:103188000AC0F4FF09C0F3FF08C0DAFF07C0D9FF7F
:1031980006C0E2FF05C0E1FF04C0EAFF03C0E9FF83
:1031A80002C0FBFF01C0FAFF1100838E5FC00FF061
:1031B80060C010F0FD0E116EFF0E126E6EEC1CF06A
:1031C8000A0E376E5FC038F060C039F0FF0E3B6EF4
:1031D8003A68000E3D6E000E3C6E010E3E6E780E93
:1031E8001DEC14F025EC1DF0839E5FC00FF060C04D
:1031F80010F0FB0E116EFF0E126E6EEC1CF00A0E34
:10320800376E5FC038F060C039F0FF0E3B6E3A6829
:10321800000E3D6E000E3C6E010E3E6E780E1DECEB
:1032280014F025EC1DF0C8EC0BF01200000E146E23
:1032380010AE07D00F6C101ED8B0102A010E146EF5
:1032480000D012AE05D0116C121ED8B0122A00D0D0
:1032580011501210D8B41DD0010E136E05D0D8909D
:1032680011361236132A00D012BE02D0F8D700D079
:1032780011500F5C12501058D8A005D011500F5E95
:103288001250105A00D0D89012321132132EF0D7A3
:1032980000D01450D8B405D00F6C101ED8B0102A26
:1032A80000D00FC00FF010C010F000D01200116E47
:1032B800000EAC6E000EAB6E11A002D0AC8800D030
:1032C80011A203D0AC8CAB8C00D011A402D0AC8E70
:1032D80000D011A602D0AB8802D0AB8A00D011B8BA
:1032E800AC849E9811AA02D0AB8600D011AC02D053
:1032F8009D8A01D09D9A9E9A11AE02D09D8801D0D8
:103308009D980FC0AFFF1050B06EAC8AAB8E949CE6
:10331800948EACB8ACBE02D0948C00D0120013507E
:10332800141015101610D8B429D0010E176E07D036
:10333800D8901336143615361636172A00D016BE0E
:1033480002D0F6D700D013500F5C14501058155007
:10335800115816501258D8A009D013500F5E1450A7
:10336800105A1550115A1650125A00D0D8901632C9
:10337800153214321332172EE6D700D00FC00FF0D3
:1033880010C010F011C011F012C012F0120023C0CA
:1033980016F025C017F029C018F02AC019F02150DE
:1033A8000EEC18F0235027242B6E2B04166E25C024
:1033B80017F029C018F02AC019F021500EEC18F0A7
:1033C80023C016F027C017F029C018F02AC019F03A
:1033D800215052EC18F023C016F027C017F029C06E
:1033E80018F02AC019F0215025242B6E2B0452EC1A
:1033F80018F012008E0E1F6E07D0D8901A321932AC
:10340800183217321F2A00D0000E17141B6E000E38
:1034180018141C6E000E19141D6EFF0E1A141E6E61
:103428001B501C101D101E10D8A4E7D717C00FF092
:1034380018C010F019C011F01FC012F0000E136E62
:10344800CBEC15F00FC017F010C018F011C019F030
:1034580000D01200010E06D06450D8B405D0000E7A
:10346800646E000E636E20D06450D8A41DD0010E87
:103478006FEC1BF0010E4DEC1BF0010EB3EC1BF0D2
:10348800010E91EC1BF0D9EC18F0000E6FEC1BF05C
:10349800000E4DEC1BF0000EB3EC1BF0000E91EC8F
:1034A8001BF0D9EC18F000D06350D8A4D5D712007F
:1034B80000EE80F02C0EEE6AE806FDE100EE5FF00B
:1034C800120EEE6AE806FDE13E0EF66E390EF76E54
:1034D800000EF86E00EEACF010EE2CF00900F5CFFF
:1034E800EEFFE550E150FAE14E0EF66E3B0EF76E38
:1034F800000EF86E0900F5CF71F0000EF86E0001AD
:103508002EEF16F023C01DF024C01EF0000E206E12
:10351800FA0E1F6EDEEC1CF01DC027F01EC028F04E
:1035280027C025F028C026F0251E261E254A262A53
:10353800FF0E2524276EFF0E2620286EB80EB16ECA
:1035480027C0D6FF2850D76EA192B18000D0A1A283
:10355800FED7B19012003D5000083B24166ED8806B
:103568003D34176E3FC018F040C019F0395052EC86
:1035780018F039C021F03AC022F03BC023F03CC01B
:1035880024F03DC025F03EC026F0000E286E030E44
:10359800276E000E2A6E000E296E3FC02BF040C029
:1035A8002CF013EC10F012000001F06F0001EF0591
:1035B8000001F16F0001F1510001D8B40DD001D024
:1035C8000BD0F1C048F00001F05165EC15F0C9ECE2
:1035D80017F00001F107EED7000E486E6F5065EC4A
:1035E80015F0000E486E010E65EC15F0C9EC17F0E9
:1035F800000E656E000E626E1200156E2A0E85ECC6
:103608001DF0000E7DEC1DF015506D247DEC1DF0B5
:10361800000E7DEC1DF013506D247DEC1DF02B0E7B
:1036280085EC1DF0000E7DEC1DF0125070247DEC31
:103638001DF0000E7DEC1DF0145070247DEC1DF083
:103648002C0E85EC1DF01200296E29C02AF02B6A79
:103658000ED021C016F023C017F024C018F025C0E2
:1036680019F02A5052EC18F02A4A2B2A00D022507E
:1036780029C026F0276A2626000E272226502A5C13
:103688002B50800A286E2750800A2858D8A0E1D7E6
:103698001200446E010E6F6E44C041F06F50F5EC9D
:1036A80008F00AD0839601D08386839813D0839636
:1036B80001D0838683880ED04450000AD8B4F2D74C
:1036C800010AD8B4F1D7030AD8B4F1D7010AD8B49B
:1036D800F0D700D01200446E000E6F6E44C041F067
:1036E8006F50F5EC08F00AD0809801D08088809A55
:1036F80013D0809801D08088808A0ED04450000A68
:10370800D8B4F2D7010AD8B4F1D7030AD8B4F1D79C
:10371800010AD8B4F0D700D01200446E030E6F6EC1
:1037280044C041F06F50F5EC08F00AD0849001D005
:103738008480849413D0849001D0848084840ED0B3
:103748004450000AD8B4F2D7010AD8B4F1D7030A12
:10375800D8B4F1D7010AD8B4F0D700D01200446E1B
:10376800020E6F6E44C041F06F50F5EC08F00AD0BD
:10377800819801D08188819A13D0819801D081885D
:10378800818A0ED04450000AD8B4F2D7010AD8B4BE
:10379800F1D7030AD8B4F1D7010AD8B4F0D700D0CA
:1037A80012004F5050105110D8B407D0000E4F1AC5
:1037B800000E501A800E511A00D04CC040F04DC077
:1037C80041F04EC042F04FC043F050C044F051C0E9
:1037D80045F0E8EC0CF040C04CF041C04DF042C060
:1037E8004EF000D012002A0E85EC1DF0000E7DEC84
:1037F8001DF0000E7DEC1DF0000E7DEC1DF07F0E1F
:103808007DEC1DF02B0E85EC1DF0000E7DEC1DF0FF
:10381800000E7DEC1DF0000E7DEC1DF09F0E7DEC82
:103828001DF012000FC013F010C014F003D0134A9B
:10383800142A00D013C0D9FF14C0DAFFDF50D8A46F
:10384800F6D70FC011F010C012F0111E121E114A47
:10385800122A135011240F6E14501220106E00D02B
:103868001200000E266E24AE07D0236C241ED8B09A
:10387800242A010E266E00D023C00FF024C010F0B9
:10388800116A8E0E126E26C013F0CBEC15F00FC025
:1038980023F010C024F011C025F000D01200000160
:1038A800EF6FEFC0F0F00001F0510001D8B40CD078
:1038B80001D00AD0F0C048F06F50A1EC0EF0D9EC5E
:1038C80018F00001F007EFD7000E486E6F50A1EC1A
:1038D8000EF012000FC013F010C014F005D0134AF8
:1038E800142A114A122A00D011C0F6FF12C0F7FF9D
:1038F80013C0D9FF14C0DAFF0800F5CFDFFFDF508F
:10390800D8A4EDD71200196E800E196013D09F0E3F
:10391800166401D00FD016C012F01928136E16289D
:10392800146E195001EC1BF018507DEC1DF0175067
:103938007DEC1DF01200FF79243019120278001076
:10394800303000303000303000303000303000305F
:1039580030004400300030003000300044003000B7
:10396800300082848290800EC76E300EC66EAFEC37
:1039780010F0F7EC1BF0C0EC12F0360E85EC1DF0E1
:10398800C00E7DEC1DF0010E6C6E12004CEC1DF0AB
:103998009AEC1DF057EC1DF0700ED36EF19EF2926A
:1039A800F090F092F19CF19AF188F288F086F08814
:1039B800F28E12001D501F02F3CF21F0F4CF22F037
:1039C8001D502002F35022261E501F02F3502226BB
:1039D80021C01DF022C01EF000D01200C28200D00B
:1039E800C2B2FED7C450126E116AC3501124136EAE
:1039F800000E1220146E13C00FF014C010F000D087
:103A080012000F5010101110D8B406D0000E0F1A63
:103A1800000E101A800E111A0FC00FF010C010F00F
:103A280011C011F01200000E166E800E176EA00E57
:103A3800186E22C019F023C01AF0000E8CEC14F096
:103A48001200030ED56EDB0ED66E0B0ED76EF294F7
:103A5800D58E00D0F2A4FED7D59E1200F0900001BA
:103A6800890500018A11D8A402D0010E01D0000EE8
:103A7800626E00D01200F2920001890500018A11DD
:103A8800D8A402D0010E01D0000E656E00D012003D
:103A9800070E926E070E936E000E946E000E956ED2
:103AA800000E966E1200000E106E190E0F6E3C0E70
:103AB8005BEC19F0600ED36E1200106E9E96C9CFA3
:103AC8000FF010C0C9FF00D0C7A0FED7120082981F
:103AD800000E246E640E236E86EC1AF082881200A3
:103AE800F90ECB6E050ECA6E4A0EBB6E3C0EBA6E50
:103AF8001200116E82948280115061EC1DF0828454
:103B08001200116E82948290115061EC1DF0828433
:103B180012000F6E00D0ACA2FED70FC0ADFF12008E
:103B28000F6E0F50040DF328C26E12000E0EC16EF8
:103B3800A90EC06E1200000EBA6E81961200F092A5
:083B4800010E646E1200010081
:10FD340000000000000000005F0000000700070052
:10FD4400147F147F14242A7F2A1223130864623632
:10FD5400495620500008070300001C2241000041BE
:10FD6400221C002A1C7F1C2A08083E0808008070F8
:10FD7400300008080808080000606000201008042B
:10FD8400023E5149453E00427F400072494949467E
:10FD94002141494D331814127F1027454545393CFC
:10FDA4004A494931412111090736494949364649E9
:10FDB40049291E000014000000403400000008140B
:10FDC4002241141414141400412214080201590984
:10FDD400063E415D594E7C1211127C7F49494936D9
:10FDE4003E414141227F4141413E7F494949417F52
:10FDF400090909013E414151737F0808087F004108
:10FE04007F41002040413F017F081422417F404050
:10FE140040407F021C027F7F0408107F3E41414125
:10FE24003E7F090909063E4151215E7F0919294691
:10FE3400264949493203017F01033F4040403F1FA7
:10FE44002040201F3F4038403F63140814630304DC
:10FE54007804036159494D43007F4141410204083C
:10FE64001020004141417F0402010204404040400F
:10FE740040000307080020545478407F2844443845
:10FE84003844444428384444287F3854545418008F
:10FE9400087E090218A4A49C787F0804047800440E
:10FEA4007D40002040403D007F1028440000417FF9
:10FEB40040007C047804787C080404783844444482
:10FEC40038FC1824241818242418FC7C080404087A
:10FED400485454542404043F44243C4040207C1C93
:10FEE4002040201C3C4030403C44281028444C9086
:10FEF40090907C4464544C440008364100000077E0
:10FF04000000004136080002010204020100000062
:10FF14000A00000064000000E8030000102700004D
:10FF2400A086010040420F008096980000E1F5058C
:10FF340000CA9A3B00803FCDCC3DD7233C12833A84
:10FF4400B7D138C62737388635C0D633CC2B327074
:10FF54008930E7DB2EE53C1E42A20D00803F0020E5
:10FF64004100C842007A44401C4650C347247449A7
:10FF740097184BBCBE4C6B6E4E03155079AD60F3B5
:10FF84004971454345333330314C20535052494E27
:10FF9400472032322D5333004E5350204E534C548D
:10FFA400204557502045574C54204D5200566F6CF5
:10FFB40074616765203D202566200D0A004E4F526E
:10FFC40054482F534F55544800454153542F5745D7
:10FFD4005354004E2F53204C5400452F57204C545B
:10FFE400004D6F64653A0046523A0046533A005059
:0CFFF4004E53005045570020002A00002A
:020000040020DA
:08000000FFFFFFFFFFFFFFFF00
:020000040030CA
:0E000000FF08191EFF8281FF0FC00FE00F40A6
:00000001FF
